{
	"data": {
		"bytecode": {
			"linkReferences": {},
			"object": "6080604052348015600e575f80fd5b50335f806101000a81548173ffffffffffffffffffffffffffffffffffffffff021916908373ffffffffffffffffffffffffffffffffffffffff160217905550610baf8061005b5f395ff3fe608060405260043610610033575f3560e01c806357ea89b61461003757806377de07931461004d578063c12cbab914610075575b5f80fd5b348015610042575f80fd5b5061004b610091565b005b348015610058575f80fd5b50610073600480360381019061006e91906106a0565b610242565b005b61008f600480360381019061008a91906106ee565b6103be565b005b6001808111156100a4576100a3610719565b5b60015f3373ffffffffffffffffffffffffffffffffffffffff1673ffffffffffffffffffffffffffffffffffffffff1681526020019081526020015f206001015f9054906101000a900460ff16600181111561010357610102610719565b5b14610143576040517f08c379a000000000000000000000000000000000000000000000000000000000815260040161013a906107a0565b60405180910390fd5b3373ffffffffffffffffffffffffffffffffffffffff166108fc60015f3373ffffffffffffffffffffffffffffffffffffffff1673ffffffffffffffffffffffffffffffffffffffff1681526020019081526020015f205f015490811502906040515f60405180830381858888f193505050501580156101c5573d5f803e3d5ffd5b507fe7bb22312ce495e87cf54bba523f51e4023abc2e938614d165e757c6263fbc853360015f3373ffffffffffffffffffffffffffffffffffffffff1673ffffffffffffffffffffffffffffffffffffffff1681526020019081526020015f205f01544260405161023893929190610815565b60405180910390a1565b5f8054906101000a900473ffffffffffffffffffffffffffffffffffffffff1673ffffffffffffffffffffffffffffffffffffffff163373ffffffffffffffffffffffffffffffffffffffff16146102cf576040517f08c379a00000000000000000000000000000000000000000000000000000000081526004016102c6906108ba565b60405180910390fd5b600160028111156102e3576102e2610719565b5b8160028111156102f6576102f5610719565b5b148061032557505f60028111156103105761030f610719565b5b81600281111561032357610322610719565b5b145b80610353575060028081111561033e5761033d610719565b5b81600281111561035157610350610719565b5b145b610392576040517f08c379a000000000000000000000000000000000000000000000000000000000815260040161038990610922565b60405180910390fd5b805f60146101000a81548160ff021916908360028111156103b6576103b5610719565b5b021790555050565b5f60028111156103d1576103d0610719565b5b5f60149054906101000a900460ff1660028111156103f2576103f1610719565b5b14610432576040517f08c379a00000000000000000000000000000000000000000000000000000000081526004016104299061098a565b60405180910390fd5b5f600181111561044557610444610719565b5b81600181111561045857610457610719565b5b1480610487575060018081111561047257610471610719565b5b81600181111561048557610484610719565b5b145b6104c6576040517f08c379a00000000000000000000000000000000000000000000000000000000081526004016104bd906109f2565b60405180910390fd5b5f8054906101000a900473ffffffffffffffffffffffffffffffffffffffff1673ffffffffffffffffffffffffffffffffffffffff163373ffffffffffffffffffffffffffffffffffffffff1603610553576040517f08c379a000000000000000000000000000000000000000000000000000000000815260040161054a90610a80565b60405180910390fd5b60405180604001604052803460015f3373ffffffffffffffffffffffffffffffffffffffff1673ffffffffffffffffffffffffffffffffffffffff1681526020019081526020015f205f01546105a99190610acb565b81526020018260018111156105c1576105c0610719565b5b81525060015f3373ffffffffffffffffffffffffffffffffffffffff1673ffffffffffffffffffffffffffffffffffffffff1681526020019081526020015f205f820151815f01556020820151816001015f6101000a81548160ff0219169083600181111561063357610632610719565b5b02179055509050507f15c19fc5e97afeb9df79f9df2c5080df454d207832aceba0a14f57b71f70d80033348360405161066e93929190610b44565b60405180910390a150565b5f80fd5b60038110610689575f80fd5b50565b5f8135905061069a8161067d565b92915050565b5f602082840312156106b5576106b4610679565b5b5f6106c28482850161068c565b91505092915050565b600281106106d7575f80fd5b50565b5f813590506106e8816106cb565b92915050565b5f6020828403121561070357610702610679565b5b5f610710848285016106da565b91505092915050565b7f4e487b71000000000000000000000000000000000000000000000000000000005f52602160045260245ffd5b5f82825260208201905092915050565b7f596f7520417265204e6f74205468652057696e6e6572000000000000000000005f82015250565b5f61078a601683610746565b915061079582610756565b602082019050919050565b5f6020820190508181035f8301526107b78161077e565b9050919050565b5f73ffffffffffffffffffffffffffffffffffffffff82169050919050565b5f6107e7826107be565b9050919050565b6107f7816107dd565b82525050565b5f819050919050565b61080f816107fd565b82525050565b5f6060820190506108285f8301866107ee565b6108356020830185610806565b6108426040830184610806565b949350505050565b7f4f6e6c79204f776e657220697320616c6c6f77656420746f204368616e6765205f8201527f7468652073746174650000000000000000000000000000000000000000000000602082015250565b5f6108a4602983610746565b91506108af8261084a565b604082019050919050565b5f6020820190508181035f8301526108d181610898565b9050919050565b7f53656c656374656420616e20756e646566696e656420537461746500000000005f82015250565b5f61090c601b83610746565b9150610917826108d8565b602082019050919050565b5f6020820190508181035f83015261093981610900565b9050919050565b7f42617474696e6720697320436c6f7365640000000000000000000000000000005f82015250565b5f610974601183610746565b915061097f82610940565b602082019050919050565b5f6020820190508181035f8301526109a181610968565b9050919050565b7f53656c656374656420616e20556e646566696e6564205465616d0000000000005f82015250565b5f6109dc601a83610746565b91506109e7826109a8565b602082019050919050565b5f6020820190508181035f830152610a09816109d0565b9050919050565b7f736f72727920204f776e6572206973206e6f7420616c6c6f77656420746f20625f8201527f6574000000000000000000000000000000000000000000000000000000000000602082015250565b5f610a6a602283610746565b9150610a7582610a10565b604082019050919050565b5f6020820190508181035f830152610a9781610a5e565b9050919050565b7f4e487b71000000000000000000000000000000000000000000000000000000005f52601160045260245ffd5b5f610ad5826107fd565b9150610ae0836107fd565b9250828201905080821115610af857610af7610a9e565b5b92915050565b60028110610b0f57610b0e610719565b5b50565b5f819050610b1f82610afe565b919050565b5f610b2e82610b12565b9050919050565b610b3e81610b24565b82525050565b5f606082019050610b575f8301866107ee565b610b646020830185610806565b610b716040830184610b35565b94935050505056fea264697066735822122033e4079f5a304c6685d466911e81e73a878f6a5e0af33457bc6ce72efa742bd764736f6c634300081a0033",
			"opcodes": "PUSH1 0x80 PUSH1 0x40 MSTORE CALLVALUE DUP1 ISZERO PUSH1 0xE JUMPI PUSH0 DUP1 REVERT JUMPDEST POP CALLER PUSH0 DUP1 PUSH2 0x100 EXP DUP2 SLOAD DUP2 PUSH20 0xFFFFFFFFFFFFFFFFFFFFFFFFFFFFFFFFFFFFFFFF MUL NOT AND SWAP1 DUP4 PUSH20 0xFFFFFFFFFFFFFFFFFFFFFFFFFFFFFFFFFFFFFFFF AND MUL OR SWAP1 SSTORE POP PUSH2 0xBAF DUP1 PUSH2 0x5B PUSH0 CODECOPY PUSH0 RETURN INVALID PUSH1 0x80 PUSH1 0x40 MSTORE PUSH1 0x4 CALLDATASIZE LT PUSH2 0x33 JUMPI PUSH0 CALLDATALOAD PUSH1 0xE0 SHR DUP1 PUSH4 0x57EA89B6 EQ PUSH2 0x37 JUMPI DUP1 PUSH4 0x77DE0793 EQ PUSH2 0x4D JUMPI DUP1 PUSH4 0xC12CBAB9 EQ PUSH2 0x75 JUMPI JUMPDEST PUSH0 DUP1 REVERT JUMPDEST CALLVALUE DUP1 ISZERO PUSH2 0x42 JUMPI PUSH0 DUP1 REVERT JUMPDEST POP PUSH2 0x4B PUSH2 0x91 JUMP JUMPDEST STOP JUMPDEST CALLVALUE DUP1 ISZERO PUSH2 0x58 JUMPI PUSH0 DUP1 REVERT JUMPDEST POP PUSH2 0x73 PUSH1 0x4 DUP1 CALLDATASIZE SUB DUP2 ADD SWAP1 PUSH2 0x6E SWAP2 SWAP1 PUSH2 0x6A0 JUMP JUMPDEST PUSH2 0x242 JUMP JUMPDEST STOP JUMPDEST PUSH2 0x8F PUSH1 0x4 DUP1 CALLDATASIZE SUB DUP2 ADD SWAP1 PUSH2 0x8A SWAP2 SWAP1 PUSH2 0x6EE JUMP JUMPDEST PUSH2 0x3BE JUMP JUMPDEST STOP JUMPDEST PUSH1 0x1 DUP1 DUP2 GT ISZERO PUSH2 0xA4 JUMPI PUSH2 0xA3 PUSH2 0x719 JUMP JUMPDEST JUMPDEST PUSH1 0x1 PUSH0 CALLER PUSH20 0xFFFFFFFFFFFFFFFFFFFFFFFFFFFFFFFFFFFFFFFF AND PUSH20 0xFFFFFFFFFFFFFFFFFFFFFFFFFFFFFFFFFFFFFFFF AND DUP2 MSTORE PUSH1 0x20 ADD SWAP1 DUP2 MSTORE PUSH1 0x20 ADD PUSH0 KECCAK256 PUSH1 0x1 ADD PUSH0 SWAP1 SLOAD SWAP1 PUSH2 0x100 EXP SWAP1 DIV PUSH1 0xFF AND PUSH1 0x1 DUP2 GT ISZERO PUSH2 0x103 JUMPI PUSH2 0x102 PUSH2 0x719 JUMP JUMPDEST JUMPDEST EQ PUSH2 0x143 JUMPI PUSH1 0x40 MLOAD PUSH32 0x8C379A000000000000000000000000000000000000000000000000000000000 DUP2 MSTORE PUSH1 0x4 ADD PUSH2 0x13A SWAP1 PUSH2 0x7A0 JUMP JUMPDEST PUSH1 0x40 MLOAD DUP1 SWAP2 SUB SWAP1 REVERT JUMPDEST CALLER PUSH20 0xFFFFFFFFFFFFFFFFFFFFFFFFFFFFFFFFFFFFFFFF AND PUSH2 0x8FC PUSH1 0x1 PUSH0 CALLER PUSH20 0xFFFFFFFFFFFFFFFFFFFFFFFFFFFFFFFFFFFFFFFF AND PUSH20 0xFFFFFFFFFFFFFFFFFFFFFFFFFFFFFFFFFFFFFFFF AND DUP2 MSTORE PUSH1 0x20 ADD SWAP1 DUP2 MSTORE PUSH1 0x20 ADD PUSH0 KECCAK256 PUSH0 ADD SLOAD SWAP1 DUP2 ISZERO MUL SWAP1 PUSH1 0x40 MLOAD PUSH0 PUSH1 0x40 MLOAD DUP1 DUP4 SUB DUP2 DUP6 DUP9 DUP9 CALL SWAP4 POP POP POP POP ISZERO DUP1 ISZERO PUSH2 0x1C5 JUMPI RETURNDATASIZE PUSH0 DUP1 RETURNDATACOPY RETURNDATASIZE PUSH0 REVERT JUMPDEST POP PUSH32 0xE7BB22312CE495E87CF54BBA523F51E4023ABC2E938614D165E757C6263FBC85 CALLER PUSH1 0x1 PUSH0 CALLER PUSH20 0xFFFFFFFFFFFFFFFFFFFFFFFFFFFFFFFFFFFFFFFF AND PUSH20 0xFFFFFFFFFFFFFFFFFFFFFFFFFFFFFFFFFFFFFFFF AND DUP2 MSTORE PUSH1 0x20 ADD SWAP1 DUP2 MSTORE PUSH1 0x20 ADD PUSH0 KECCAK256 PUSH0 ADD SLOAD TIMESTAMP PUSH1 0x40 MLOAD PUSH2 0x238 SWAP4 SWAP3 SWAP2 SWAP1 PUSH2 0x815 JUMP JUMPDEST PUSH1 0x40 MLOAD DUP1 SWAP2 SUB SWAP1 LOG1 JUMP JUMPDEST PUSH0 DUP1 SLOAD SWAP1 PUSH2 0x100 EXP SWAP1 DIV PUSH20 0xFFFFFFFFFFFFFFFFFFFFFFFFFFFFFFFFFFFFFFFF AND PUSH20 0xFFFFFFFFFFFFFFFFFFFFFFFFFFFFFFFFFFFFFFFF AND CALLER PUSH20 0xFFFFFFFFFFFFFFFFFFFFFFFFFFFFFFFFFFFFFFFF AND EQ PUSH2 0x2CF JUMPI PUSH1 0x40 MLOAD PUSH32 0x8C379A000000000000000000000000000000000000000000000000000000000 DUP2 MSTORE PUSH1 0x4 ADD PUSH2 0x2C6 SWAP1 PUSH2 0x8BA JUMP JUMPDEST PUSH1 0x40 MLOAD DUP1 SWAP2 SUB SWAP1 REVERT JUMPDEST PUSH1 0x1 PUSH1 0x2 DUP2 GT ISZERO PUSH2 0x2E3 JUMPI PUSH2 0x2E2 PUSH2 0x719 JUMP JUMPDEST JUMPDEST DUP2 PUSH1 0x2 DUP2 GT ISZERO PUSH2 0x2F6 JUMPI PUSH2 0x2F5 PUSH2 0x719 JUMP JUMPDEST JUMPDEST EQ DUP1 PUSH2 0x325 JUMPI POP PUSH0 PUSH1 0x2 DUP2 GT ISZERO PUSH2 0x310 JUMPI PUSH2 0x30F PUSH2 0x719 JUMP JUMPDEST JUMPDEST DUP2 PUSH1 0x2 DUP2 GT ISZERO PUSH2 0x323 JUMPI PUSH2 0x322 PUSH2 0x719 JUMP JUMPDEST JUMPDEST EQ JUMPDEST DUP1 PUSH2 0x353 JUMPI POP PUSH1 0x2 DUP1 DUP2 GT ISZERO PUSH2 0x33E JUMPI PUSH2 0x33D PUSH2 0x719 JUMP JUMPDEST JUMPDEST DUP2 PUSH1 0x2 DUP2 GT ISZERO PUSH2 0x351 JUMPI PUSH2 0x350 PUSH2 0x719 JUMP JUMPDEST JUMPDEST EQ JUMPDEST PUSH2 0x392 JUMPI PUSH1 0x40 MLOAD PUSH32 0x8C379A000000000000000000000000000000000000000000000000000000000 DUP2 MSTORE PUSH1 0x4 ADD PUSH2 0x389 SWAP1 PUSH2 0x922 JUMP JUMPDEST PUSH1 0x40 MLOAD DUP1 SWAP2 SUB SWAP1 REVERT JUMPDEST DUP1 PUSH0 PUSH1 0x14 PUSH2 0x100 EXP DUP2 SLOAD DUP2 PUSH1 0xFF MUL NOT AND SWAP1 DUP4 PUSH1 0x2 DUP2 GT ISZERO PUSH2 0x3B6 JUMPI PUSH2 0x3B5 PUSH2 0x719 JUMP JUMPDEST JUMPDEST MUL OR SWAP1 SSTORE POP POP JUMP JUMPDEST PUSH0 PUSH1 0x2 DUP2 GT ISZERO PUSH2 0x3D1 JUMPI PUSH2 0x3D0 PUSH2 0x719 JUMP JUMPDEST JUMPDEST PUSH0 PUSH1 0x14 SWAP1 SLOAD SWAP1 PUSH2 0x100 EXP SWAP1 DIV PUSH1 0xFF AND PUSH1 0x2 DUP2 GT ISZERO PUSH2 0x3F2 JUMPI PUSH2 0x3F1 PUSH2 0x719 JUMP JUMPDEST JUMPDEST EQ PUSH2 0x432 JUMPI PUSH1 0x40 MLOAD PUSH32 0x8C379A000000000000000000000000000000000000000000000000000000000 DUP2 MSTORE PUSH1 0x4 ADD PUSH2 0x429 SWAP1 PUSH2 0x98A JUMP JUMPDEST PUSH1 0x40 MLOAD DUP1 SWAP2 SUB SWAP1 REVERT JUMPDEST PUSH0 PUSH1 0x1 DUP2 GT ISZERO PUSH2 0x445 JUMPI PUSH2 0x444 PUSH2 0x719 JUMP JUMPDEST JUMPDEST DUP2 PUSH1 0x1 DUP2 GT ISZERO PUSH2 0x458 JUMPI PUSH2 0x457 PUSH2 0x719 JUMP JUMPDEST JUMPDEST EQ DUP1 PUSH2 0x487 JUMPI POP PUSH1 0x1 DUP1 DUP2 GT ISZERO PUSH2 0x472 JUMPI PUSH2 0x471 PUSH2 0x719 JUMP JUMPDEST JUMPDEST DUP2 PUSH1 0x1 DUP2 GT ISZERO PUSH2 0x485 JUMPI PUSH2 0x484 PUSH2 0x719 JUMP JUMPDEST JUMPDEST EQ JUMPDEST PUSH2 0x4C6 JUMPI PUSH1 0x40 MLOAD PUSH32 0x8C379A000000000000000000000000000000000000000000000000000000000 DUP2 MSTORE PUSH1 0x4 ADD PUSH2 0x4BD SWAP1 PUSH2 0x9F2 JUMP JUMPDEST PUSH1 0x40 MLOAD DUP1 SWAP2 SUB SWAP1 REVERT JUMPDEST PUSH0 DUP1 SLOAD SWAP1 PUSH2 0x100 EXP SWAP1 DIV PUSH20 0xFFFFFFFFFFFFFFFFFFFFFFFFFFFFFFFFFFFFFFFF AND PUSH20 0xFFFFFFFFFFFFFFFFFFFFFFFFFFFFFFFFFFFFFFFF AND CALLER PUSH20 0xFFFFFFFFFFFFFFFFFFFFFFFFFFFFFFFFFFFFFFFF AND SUB PUSH2 0x553 JUMPI PUSH1 0x40 MLOAD PUSH32 0x8C379A000000000000000000000000000000000000000000000000000000000 DUP2 MSTORE PUSH1 0x4 ADD PUSH2 0x54A SWAP1 PUSH2 0xA80 JUMP JUMPDEST PUSH1 0x40 MLOAD DUP1 SWAP2 SUB SWAP1 REVERT JUMPDEST PUSH1 0x40 MLOAD DUP1 PUSH1 0x40 ADD PUSH1 0x40 MSTORE DUP1 CALLVALUE PUSH1 0x1 PUSH0 CALLER PUSH20 0xFFFFFFFFFFFFFFFFFFFFFFFFFFFFFFFFFFFFFFFF AND PUSH20 0xFFFFFFFFFFFFFFFFFFFFFFFFFFFFFFFFFFFFFFFF AND DUP2 MSTORE PUSH1 0x20 ADD SWAP1 DUP2 MSTORE PUSH1 0x20 ADD PUSH0 KECCAK256 PUSH0 ADD SLOAD PUSH2 0x5A9 SWAP2 SWAP1 PUSH2 0xACB JUMP JUMPDEST DUP2 MSTORE PUSH1 0x20 ADD DUP3 PUSH1 0x1 DUP2 GT ISZERO PUSH2 0x5C1 JUMPI PUSH2 0x5C0 PUSH2 0x719 JUMP JUMPDEST JUMPDEST DUP2 MSTORE POP PUSH1 0x1 PUSH0 CALLER PUSH20 0xFFFFFFFFFFFFFFFFFFFFFFFFFFFFFFFFFFFFFFFF AND PUSH20 0xFFFFFFFFFFFFFFFFFFFFFFFFFFFFFFFFFFFFFFFF AND DUP2 MSTORE PUSH1 0x20 ADD SWAP1 DUP2 MSTORE PUSH1 0x20 ADD PUSH0 KECCAK256 PUSH0 DUP3 ADD MLOAD DUP2 PUSH0 ADD SSTORE PUSH1 0x20 DUP3 ADD MLOAD DUP2 PUSH1 0x1 ADD PUSH0 PUSH2 0x100 EXP DUP2 SLOAD DUP2 PUSH1 0xFF MUL NOT AND SWAP1 DUP4 PUSH1 0x1 DUP2 GT ISZERO PUSH2 0x633 JUMPI PUSH2 0x632 PUSH2 0x719 JUMP JUMPDEST JUMPDEST MUL OR SWAP1 SSTORE POP SWAP1 POP POP PUSH32 0x15C19FC5E97AFEB9DF79F9DF2C5080DF454D207832ACEBA0A14F57B71F70D800 CALLER CALLVALUE DUP4 PUSH1 0x40 MLOAD PUSH2 0x66E SWAP4 SWAP3 SWAP2 SWAP1 PUSH2 0xB44 JUMP JUMPDEST PUSH1 0x40 MLOAD DUP1 SWAP2 SUB SWAP1 LOG1 POP JUMP JUMPDEST PUSH0 DUP1 REVERT JUMPDEST PUSH1 0x3 DUP2 LT PUSH2 0x689 JUMPI PUSH0 DUP1 REVERT JUMPDEST POP JUMP JUMPDEST PUSH0 DUP2 CALLDATALOAD SWAP1 POP PUSH2 0x69A DUP2 PUSH2 0x67D JUMP JUMPDEST SWAP3 SWAP2 POP POP JUMP JUMPDEST PUSH0 PUSH1 0x20 DUP3 DUP5 SUB SLT ISZERO PUSH2 0x6B5 JUMPI PUSH2 0x6B4 PUSH2 0x679 JUMP JUMPDEST JUMPDEST PUSH0 PUSH2 0x6C2 DUP5 DUP3 DUP6 ADD PUSH2 0x68C JUMP JUMPDEST SWAP2 POP POP SWAP3 SWAP2 POP POP JUMP JUMPDEST PUSH1 0x2 DUP2 LT PUSH2 0x6D7 JUMPI PUSH0 DUP1 REVERT JUMPDEST POP JUMP JUMPDEST PUSH0 DUP2 CALLDATALOAD SWAP1 POP PUSH2 0x6E8 DUP2 PUSH2 0x6CB JUMP JUMPDEST SWAP3 SWAP2 POP POP JUMP JUMPDEST PUSH0 PUSH1 0x20 DUP3 DUP5 SUB SLT ISZERO PUSH2 0x703 JUMPI PUSH2 0x702 PUSH2 0x679 JUMP JUMPDEST JUMPDEST PUSH0 PUSH2 0x710 DUP5 DUP3 DUP6 ADD PUSH2 0x6DA JUMP JUMPDEST SWAP2 POP POP SWAP3 SWAP2 POP POP JUMP JUMPDEST PUSH32 0x4E487B7100000000000000000000000000000000000000000000000000000000 PUSH0 MSTORE PUSH1 0x21 PUSH1 0x4 MSTORE PUSH1 0x24 PUSH0 REVERT JUMPDEST PUSH0 DUP3 DUP3 MSTORE PUSH1 0x20 DUP3 ADD SWAP1 POP SWAP3 SWAP2 POP POP JUMP JUMPDEST PUSH32 0x596F7520417265204E6F74205468652057696E6E657200000000000000000000 PUSH0 DUP3 ADD MSTORE POP JUMP JUMPDEST PUSH0 PUSH2 0x78A PUSH1 0x16 DUP4 PUSH2 0x746 JUMP JUMPDEST SWAP2 POP PUSH2 0x795 DUP3 PUSH2 0x756 JUMP JUMPDEST PUSH1 0x20 DUP3 ADD SWAP1 POP SWAP2 SWAP1 POP JUMP JUMPDEST PUSH0 PUSH1 0x20 DUP3 ADD SWAP1 POP DUP2 DUP2 SUB PUSH0 DUP4 ADD MSTORE PUSH2 0x7B7 DUP2 PUSH2 0x77E JUMP JUMPDEST SWAP1 POP SWAP2 SWAP1 POP JUMP JUMPDEST PUSH0 PUSH20 0xFFFFFFFFFFFFFFFFFFFFFFFFFFFFFFFFFFFFFFFF DUP3 AND SWAP1 POP SWAP2 SWAP1 POP JUMP JUMPDEST PUSH0 PUSH2 0x7E7 DUP3 PUSH2 0x7BE JUMP JUMPDEST SWAP1 POP SWAP2 SWAP1 POP JUMP JUMPDEST PUSH2 0x7F7 DUP2 PUSH2 0x7DD JUMP JUMPDEST DUP3 MSTORE POP POP JUMP JUMPDEST PUSH0 DUP2 SWAP1 POP SWAP2 SWAP1 POP JUMP JUMPDEST PUSH2 0x80F DUP2 PUSH2 0x7FD JUMP JUMPDEST DUP3 MSTORE POP POP JUMP JUMPDEST PUSH0 PUSH1 0x60 DUP3 ADD SWAP1 POP PUSH2 0x828 PUSH0 DUP4 ADD DUP7 PUSH2 0x7EE JUMP JUMPDEST PUSH2 0x835 PUSH1 0x20 DUP4 ADD DUP6 PUSH2 0x806 JUMP JUMPDEST PUSH2 0x842 PUSH1 0x40 DUP4 ADD DUP5 PUSH2 0x806 JUMP JUMPDEST SWAP5 SWAP4 POP POP POP POP JUMP JUMPDEST PUSH32 0x4F6E6C79204F776E657220697320616C6C6F77656420746F204368616E676520 PUSH0 DUP3 ADD MSTORE PUSH32 0x7468652073746174650000000000000000000000000000000000000000000000 PUSH1 0x20 DUP3 ADD MSTORE POP JUMP JUMPDEST PUSH0 PUSH2 0x8A4 PUSH1 0x29 DUP4 PUSH2 0x746 JUMP JUMPDEST SWAP2 POP PUSH2 0x8AF DUP3 PUSH2 0x84A JUMP JUMPDEST PUSH1 0x40 DUP3 ADD SWAP1 POP SWAP2 SWAP1 POP JUMP JUMPDEST PUSH0 PUSH1 0x20 DUP3 ADD SWAP1 POP DUP2 DUP2 SUB PUSH0 DUP4 ADD MSTORE PUSH2 0x8D1 DUP2 PUSH2 0x898 JUMP JUMPDEST SWAP1 POP SWAP2 SWAP1 POP JUMP JUMPDEST PUSH32 0x53656C656374656420616E20756E646566696E65642053746174650000000000 PUSH0 DUP3 ADD MSTORE POP JUMP JUMPDEST PUSH0 PUSH2 0x90C PUSH1 0x1B DUP4 PUSH2 0x746 JUMP JUMPDEST SWAP2 POP PUSH2 0x917 DUP3 PUSH2 0x8D8 JUMP JUMPDEST PUSH1 0x20 DUP3 ADD SWAP1 POP SWAP2 SWAP1 POP JUMP JUMPDEST PUSH0 PUSH1 0x20 DUP3 ADD SWAP1 POP DUP2 DUP2 SUB PUSH0 DUP4 ADD MSTORE PUSH2 0x939 DUP2 PUSH2 0x900 JUMP JUMPDEST SWAP1 POP SWAP2 SWAP1 POP JUMP JUMPDEST PUSH32 0x42617474696E6720697320436C6F736564000000000000000000000000000000 PUSH0 DUP3 ADD MSTORE POP JUMP JUMPDEST PUSH0 PUSH2 0x974 PUSH1 0x11 DUP4 PUSH2 0x746 JUMP JUMPDEST SWAP2 POP PUSH2 0x97F DUP3 PUSH2 0x940 JUMP JUMPDEST PUSH1 0x20 DUP3 ADD SWAP1 POP SWAP2 SWAP1 POP JUMP JUMPDEST PUSH0 PUSH1 0x20 DUP3 ADD SWAP1 POP DUP2 DUP2 SUB PUSH0 DUP4 ADD MSTORE PUSH2 0x9A1 DUP2 PUSH2 0x968 JUMP JUMPDEST SWAP1 POP SWAP2 SWAP1 POP JUMP JUMPDEST PUSH32 0x53656C656374656420616E20556E646566696E6564205465616D000000000000 PUSH0 DUP3 ADD MSTORE POP JUMP JUMPDEST PUSH0 PUSH2 0x9DC PUSH1 0x1A DUP4 PUSH2 0x746 JUMP JUMPDEST SWAP2 POP PUSH2 0x9E7 DUP3 PUSH2 0x9A8 JUMP JUMPDEST PUSH1 0x20 DUP3 ADD SWAP1 POP SWAP2 SWAP1 POP JUMP JUMPDEST PUSH0 PUSH1 0x20 DUP3 ADD SWAP1 POP DUP2 DUP2 SUB PUSH0 DUP4 ADD MSTORE PUSH2 0xA09 DUP2 PUSH2 0x9D0 JUMP JUMPDEST SWAP1 POP SWAP2 SWAP1 POP JUMP JUMPDEST PUSH32 0x736F72727920204F776E6572206973206E6F7420616C6C6F77656420746F2062 PUSH0 DUP3 ADD MSTORE PUSH32 0x6574000000000000000000000000000000000000000000000000000000000000 PUSH1 0x20 DUP3 ADD MSTORE POP JUMP JUMPDEST PUSH0 PUSH2 0xA6A PUSH1 0x22 DUP4 PUSH2 0x746 JUMP JUMPDEST SWAP2 POP PUSH2 0xA75 DUP3 PUSH2 0xA10 JUMP JUMPDEST PUSH1 0x40 DUP3 ADD SWAP1 POP SWAP2 SWAP1 POP JUMP JUMPDEST PUSH0 PUSH1 0x20 DUP3 ADD SWAP1 POP DUP2 DUP2 SUB PUSH0 DUP4 ADD MSTORE PUSH2 0xA97 DUP2 PUSH2 0xA5E JUMP JUMPDEST SWAP1 POP SWAP2 SWAP1 POP JUMP JUMPDEST PUSH32 0x4E487B7100000000000000000000000000000000000000000000000000000000 PUSH0 MSTORE PUSH1 0x11 PUSH1 0x4 MSTORE PUSH1 0x24 PUSH0 REVERT JUMPDEST PUSH0 PUSH2 0xAD5 DUP3 PUSH2 0x7FD JUMP JUMPDEST SWAP2 POP PUSH2 0xAE0 DUP4 PUSH2 0x7FD JUMP JUMPDEST SWAP3 POP DUP3 DUP3 ADD SWAP1 POP DUP1 DUP3 GT ISZERO PUSH2 0xAF8 JUMPI PUSH2 0xAF7 PUSH2 0xA9E JUMP JUMPDEST JUMPDEST SWAP3 SWAP2 POP POP JUMP JUMPDEST PUSH1 0x2 DUP2 LT PUSH2 0xB0F JUMPI PUSH2 0xB0E PUSH2 0x719 JUMP JUMPDEST JUMPDEST POP JUMP JUMPDEST PUSH0 DUP2 SWAP1 POP PUSH2 0xB1F DUP3 PUSH2 0xAFE JUMP JUMPDEST SWAP2 SWAP1 POP JUMP JUMPDEST PUSH0 PUSH2 0xB2E DUP3 PUSH2 0xB12 JUMP JUMPDEST SWAP1 POP SWAP2 SWAP1 POP JUMP JUMPDEST PUSH2 0xB3E DUP2 PUSH2 0xB24 JUMP JUMPDEST DUP3 MSTORE POP POP JUMP JUMPDEST PUSH0 PUSH1 0x60 DUP3 ADD SWAP1 POP PUSH2 0xB57 PUSH0 DUP4 ADD DUP7 PUSH2 0x7EE JUMP JUMPDEST PUSH2 0xB64 PUSH1 0x20 DUP4 ADD DUP6 PUSH2 0x806 JUMP JUMPDEST PUSH2 0xB71 PUSH1 0x40 DUP4 ADD DUP5 PUSH2 0xB35 JUMP JUMPDEST SWAP5 SWAP4 POP POP POP POP JUMP INVALID LOG2 PUSH5 0x6970667358 0x22 SLT KECCAK256 CALLER 0xE4 SMOD SWAP16 GAS ADDRESS 0x4C PUSH7 0x85D466911E81E7 GASPRICE DUP8 DUP16 PUSH11 0x5E0AF33457BC6CE72EFA74 0x2B 0xD7 PUSH5 0x736F6C6343 STOP ADDMOD BYTE STOP CALLER "
		},
		"gasEstimates": {
			"creation": {
				"codeDepositCost": "598200",
				"executionCost": "24895",
				"totalCost": "623095"
			},
			"external": {
				"Change_Status(uint8)": "27095",
				"Place_Bet(uint8)": "infinite",
				"Withdraw()": "infinite"
			}
		},
		"methodIdentifiers": {
			"Change_Status(uint8)": "77de0793",
			"Place_Bet(uint8)": "c12cbab9",
			"Withdraw()": "57ea89b6"
		}
	},
	"abi": [
		{
			"inputs": [],
			"stateMutability": "nonpayable",
			"type": "constructor"
		},
		{
			"anonymous": false,
			"inputs": [
				{
					"indexed": false,
					"internalType": "address",
					"name": "Address",
					"type": "address"
				},
				{
					"indexed": false,
					"internalType": "uint256",
					"name": "Bet_Value",
					"type": "uint256"
				},
				{
					"indexed": false,
					"internalType": "enum BettingSite.Teams",
					"name": "Chosen_Team",
					"type": "uint8"
				}
			],
			"name": "Done_Bet",
			"type": "event"
		},
		{
			"anonymous": false,
			"inputs": [
				{
					"indexed": false,
					"internalType": "address",
					"name": "Address",
					"type": "address"
				},
				{
					"indexed": false,
					"internalType": "uint256",
					"name": "Withdraw_Value",
					"type": "uint256"
				},
				{
					"indexed": false,
					"internalType": "uint256",
					"name": "Withdraw_Time",
					"type": "uint256"
				}
			],
			"name": "Withdraw_Amount",
			"type": "event"
		},
		{
			"inputs": [
				{
					"internalType": "enum BettingSite.Status",
					"name": "state",
					"type": "uint8"
				}
			],
			"name": "Change_Status",
			"outputs": [],
			"stateMutability": "nonpayable",
			"type": "function"
		},
		{
			"inputs": [
				{
					"internalType": "enum BettingSite.Teams",
					"name": "Team",
					"type": "uint8"
				}
			],
			"name": "Place_Bet",
			"outputs": [],
			"stateMutability": "payable",
			"type": "function"
		},
		{
			"inputs": [],
			"name": "Withdraw",
			"outputs": [],
			"stateMutability": "nonpayable",
			"type": "function"
		}
	]
}