{
	"data": {
		"bytecode": {
			"linkReferences": {},
			"object": "6080604052348015600e575f80fd5b503360045f6101000a81548173ffffffffffffffffffffffffffffffffffffffff021916908373ffffffffffffffffffffffffffffffffffffffff1602179055505f805f6101000a81548160ff02191690836002811115606f57606e6078565b5b021790555060a5565b7f4e487b71000000000000000000000000000000000000000000000000000000005f52602160045260245ffd5b611706806100b25f395ff3fe608060405260043610610094575f3560e01c8063a179acdb11610058578063a179acdb1461019c578063c19d93fb146101c4578063cc42e83a146101ee578063de3f18e214610204578063fdd746be1461022e576100d4565b806315ac534d146100d857806343046844146100ee57806355587b8e1461010a57806389a78f1a146101345780638da5cb5b14610172576100d4565b366100d4576040517f08c379a00000000000000000000000000000000000000000000000000000000081526004016100cb90610cf7565b60405180910390fd5b5f80fd5b3480156100e3575f80fd5b506100ec610258565b005b61010860048036038101906101039190610d3c565b610384565b005b348015610115575f80fd5b5061011e6106c9565b60405161012b9190610d7f565b60405180910390f35b34801561013f575f80fd5b5061015a60048036038101906101559190610df2565b6106cf565b60405161016993929190610eaa565b60405180910390f35b34801561017d575f80fd5b5061018661070e565b6040516101939190610eee565b60405180910390f35b3480156101a7575f80fd5b506101c260048036038101906101bd9190610d3c565b610733565b005b3480156101cf575f80fd5b506101d8610957565b6040516101e59190610f4d565b60405180910390f35b3480156101f9575f80fd5b50610202610967565b005b34801561020f575f80fd5b50610218610c84565b6040516102259190610f66565b60405180910390f35b348015610239575f80fd5b50610242610c97565b60405161024f9190610d7f565b60405180910390f35b60045f9054906101000a900473ffffffffffffffffffffffffffffffffffffffff1673ffffffffffffffffffffffffffffffffffffffff163373ffffffffffffffffffffffffffffffffffffffff16146102e7576040517f08c379a00000000000000000000000000000000000000000000000000000000081526004016102de90610fef565b60405180910390fd5b5f60028111156102fa576102f9610e1d565b5b5f8054906101000a900460ff16600281111561031957610318610e1d565b5b14610359576040517f08c379a00000000000000000000000000000000000000000000000000000000081526004016103509061107d565b60405180910390fd5b60015f806101000a81548160ff0219169083600281111561037d5761037c610e1d565b5b0217905550565b5f600281111561039757610396610e1d565b5b5f8054906101000a900460ff1660028111156103b6576103b5610e1d565b5b146103f6576040517f08c379a00000000000000000000000000000000000000000000000000000000081526004016103ed906110e5565b60405180910390fd5b5f3411610438576040517f08c379a000000000000000000000000000000000000000000000000000000000815260040161042f90611173565b60405180910390fd5b5f60015f3373ffffffffffffffffffffffffffffffffffffffff1673ffffffffffffffffffffffffffffffffffffffff1681526020019081526020015f205f0154146104b9576040517f08c379a00000000000000000000000000000000000000000000000000000000081526004016104b0906111db565b60405180910390fd5b600160028111156104cd576104cc610e1d565b5b8160028111156104e0576104df610e1d565b5b148061050f57506002808111156104fa576104f9610e1d565b5b81600281111561050d5761050c610e1d565b5b145b61054e576040517f08c379a000000000000000000000000000000000000000000000000000000000815260040161054590611243565b60405180910390fd5b604051806060016040528034815260200182600281111561057257610571610e1d565b5b81526020015f151581525060015f3373ffffffffffffffffffffffffffffffffffffffff1673ffffffffffffffffffffffffffffffffffffffff1681526020019081526020015f205f820151815f01556020820151816001015f6101000a81548160ff021916908360028111156105ec576105eb610e1d565b5b021790555060408201518160010160016101000a81548160ff0219169083151502179055509050506001600281111561062857610627610e1d565b5b81600281111561063b5761063a610e1d565b5b0361065d573460025f828254610651919061128e565b92505081905550610676565b3460035f82825461066e919061128e565b925050819055505b3373ffffffffffffffffffffffffffffffffffffffff167f9f6b4cced64244a64465098f682029975b1614400b96bc6bd12c66808371916682346040516106be9291906112c1565b60405180910390a250565b60035481565b6001602052805f5260405f205f91509050805f015490806001015f9054906101000a900460ff16908060010160019054906101000a900460ff16905083565b60045f9054906101000a900473ffffffffffffffffffffffffffffffffffffffff1681565b60045f9054906101000a900473ffffffffffffffffffffffffffffffffffffffff1673ffffffffffffffffffffffffffffffffffffffff163373ffffffffffffffffffffffffffffffffffffffff16146107c2576040517f08c379a00000000000000000000000000000000000000000000000000000000081526004016107b990611358565b60405180910390fd5b600160028111156107d6576107d5610e1d565b5b5f8054906101000a900460ff1660028111156107f5576107f4610e1d565b5b14610835576040517f08c379a000000000000000000000000000000000000000000000000000000000815260040161082c906113c0565b60405180910390fd5b6001600281111561084957610848610e1d565b5b81600281111561085c5761085b610e1d565b5b148061088b575060028081111561087657610875610e1d565b5b81600281111561088957610888610e1d565b5b145b6108ca576040517f08c379a00000000000000000000000000000000000000000000000000000000081526004016108c190611428565b60405180910390fd5b80600460146101000a81548160ff021916908360028111156108ef576108ee610e1d565b5b021790555060025f806101000a81548160ff0219169083600281111561091857610917610e1d565b5b02179055507fd6bcd4b6873d691163f1aff2d5585378623aef08e17513a5253eabe39c65dc508160405161094c9190610f66565b60405180910390a150565b5f8054906101000a900460ff1681565b60028081111561097a57610979610e1d565b5b5f8054906101000a900460ff16600281111561099957610998610e1d565b5b146109d9576040517f08c379a00000000000000000000000000000000000000000000000000000000081526004016109d0906114b6565b60405180910390fd5b5f60015f3373ffffffffffffffffffffffffffffffffffffffff1673ffffffffffffffffffffffffffffffffffffffff1681526020019081526020015f2090505f815f015411610a5e576040517f08c379a0000000000000000000000000000000000000000000000000000000008152600401610a559061151e565b60405180910390fd5b8060010160019054906101000a900460ff1615610ab0576040517f08c379a0000000000000000000000000000000000000000000000000000000008152600401610aa790611586565b60405180910390fd5b600460149054906101000a900460ff166002811115610ad257610ad1610e1d565b5b816001015f9054906101000a900460ff166002811115610af557610af4610e1d565b5b14610b35576040517f08c379a0000000000000000000000000000000000000000000000000000000008152600401610b2c90611614565b60405180910390fd5b5f60016002811115610b4a57610b49610e1d565b5b600460149054906101000a900460ff166002811115610b6c57610b6b610e1d565b5b03610ba357600254600354600254610b84919061128e565b835f0154610b929190611632565b610b9c91906116a0565b9050610bd1565b600354600354600254610bb6919061128e565b835f0154610bc49190611632565b610bce91906116a0565b90505b60018260010160016101000a81548160ff0219169083151502179055503373ffffffffffffffffffffffffffffffffffffffff166108fc8290811502906040515f60405180830381858888f19350505050158015610c31573d5f803e3d5ffd5b503373ffffffffffffffffffffffffffffffffffffffff167f24215bbaf0832fa4d6ffef16dee3971d8b714921fef3ad63f793d578983c6dc282604051610c789190610d7f565b60405180910390a25050565b600460149054906101000a900460ff1681565b60025481565b5f82825260208201905092915050565b7f446972656374207472616e7366657273206e6f7420616c6c6f776564000000005f82015250565b5f610ce1601c83610c9d565b9150610cec82610cad565b602082019050919050565b5f6020820190508181035f830152610d0e81610cd5565b9050919050565b5f80fd5b60038110610d25575f80fd5b50565b5f81359050610d3681610d19565b92915050565b5f60208284031215610d5157610d50610d15565b5b5f610d5e84828501610d28565b91505092915050565b5f819050919050565b610d7981610d67565b82525050565b5f602082019050610d925f830184610d70565b92915050565b5f73ffffffffffffffffffffffffffffffffffffffff82169050919050565b5f610dc182610d98565b9050919050565b610dd181610db7565b8114610ddb575f80fd5b50565b5f81359050610dec81610dc8565b92915050565b5f60208284031215610e0757610e06610d15565b5b5f610e1484828501610dde565b91505092915050565b7f4e487b71000000000000000000000000000000000000000000000000000000005f52602160045260245ffd5b60038110610e5b57610e5a610e1d565b5b50565b5f819050610e6b82610e4a565b919050565b5f610e7a82610e5e565b9050919050565b610e8a81610e70565b82525050565b5f8115159050919050565b610ea481610e90565b82525050565b5f606082019050610ebd5f830186610d70565b610eca6020830185610e81565b610ed76040830184610e9b565b949350505050565b610ee881610db7565b82525050565b5f602082019050610f015f830184610edf565b92915050565b60038110610f1857610f17610e1d565b5b50565b5f819050610f2882610f07565b919050565b5f610f3782610f1b565b9050919050565b610f4781610f2d565b82525050565b5f602082019050610f605f830184610f3e565b92915050565b5f602082019050610f795f830184610e81565b92915050565b7f4f6e6c7920746865206f776e65722063616e20636c6f736520746865206265745f8201527f74696e6700000000000000000000000000000000000000000000000000000000602082015250565b5f610fd9602483610c9d565b9150610fe482610f7f565b604082019050919050565b5f6020820190508181035f83015261100681610fcd565b9050919050565b7f42657474696e6720697320616c726561647920636c6f736564206f72207265735f8201527f6f6c766564000000000000000000000000000000000000000000000000000000602082015250565b5f611067602583610c9d565b91506110728261100d565b604082019050919050565b5f6020820190508181035f8301526110948161105b565b9050919050565b7f42657474696e67206973206e6f74206f70656e000000000000000000000000005f82015250565b5f6110cf601383610c9d565b91506110da8261109b565b602082019050919050565b5f6020820190508181035f8301526110fc816110c3565b9050919050565b7f42657420616d6f756e74206d7573742062652067726561746572207468616e205f8201527f3000000000000000000000000000000000000000000000000000000000000000602082015250565b5f61115d602183610c9d565b915061116882611103565b604082019050919050565b5f6020820190508181035f83015261118a81611151565b9050919050565b7f596f75206861766520616c726561647920706c616365642061206265740000005f82015250565b5f6111c5601d83610c9d565b91506111d082611191565b602082019050919050565b5f6020820190508181035f8301526111f2816111b9565b9050919050565b7f496e76616c6964207465616d2073656c656374656400000000000000000000005f82015250565b5f61122d601583610c9d565b9150611238826111f9565b602082019050919050565b5f6020820190508181035f83015261125a81611221565b9050919050565b7f4e487b71000000000000000000000000000000000000000000000000000000005f52601160045260245ffd5b5f61129882610d67565b91506112a383610d67565b92508282019050808211156112bb576112ba611261565b5b92915050565b5f6040820190506112d45f830185610e81565b6112e16020830184610d70565b9392505050565b7f4f6e6c7920746865206f776e65722063616e207265736f6c76652074686520625f8201527f6574000000000000000000000000000000000000000000000000000000000000602082015250565b5f611342602283610c9d565b915061134d826112e8565b604082019050919050565b5f6020820190508181035f83015261136f81611336565b9050919050565b7f42657474696e67206d75737420626520636c6f736564206669727374000000005f82015250565b5f6113aa601c83610c9d565b91506113b582611376565b602082019050919050565b5f6020820190508181035f8301526113d78161139e565b9050919050565b7f496e76616c69642077696e6e696e67207465616d0000000000000000000000005f82015250565b5f611412601483610c9d565b915061141d826113de565b602082019050919050565b5f6020820190508181035f83015261143f81611406565b9050919050565b7f42657474696e6720686173206e6f74206265656e207265736f6c7665642079655f8201527f7400000000000000000000000000000000000000000000000000000000000000602082015250565b5f6114a0602183610c9d565b91506114ab82611446565b604082019050919050565b5f6020820190508181035f8301526114cd81611494565b9050919050565b7f596f752068617665206e6f7420706c61636564206120626574000000000000005f82015250565b5f611508601983610c9d565b9150611513826114d4565b602082019050919050565b5f6020820190508181035f830152611535816114fc565b9050919050565b7f57696e6e696e677320616c72656164792077697468647261776e0000000000005f82015250565b5f611570601a83610c9d565b915061157b8261153c565b602082019050919050565b5f6020820190508181035f83015261159d81611564565b9050919050565b7f596f7520646964206e6f7420626574206f6e207468652077696e6e696e6720745f8201527f65616d0000000000000000000000000000000000000000000000000000000000602082015250565b5f6115fe602383610c9d565b9150611609826115a4565b604082019050919050565b5f6020820190508181035f83015261162b816115f2565b9050919050565b5f61163c82610d67565b915061164783610d67565b925082820261165581610d67565b9150828204841483151761166c5761166b611261565b5b5092915050565b7f4e487b71000000000000000000000000000000000000000000000000000000005f52601260045260245ffd5b5f6116aa82610d67565b91506116b583610d67565b9250826116c5576116c4611673565b5b82820490509291505056fea26469706673582212203fdd606abd62a2017daae255c2de60493efc6699cc2889431e9cd35263b6f33e64736f6c634300081a0033",
			"opcodes": "PUSH1 0x80 PUSH1 0x40 MSTORE CALLVALUE DUP1 ISZERO PUSH1 0xE JUMPI PUSH0 DUP1 REVERT JUMPDEST POP CALLER PUSH1 0x4 PUSH0 PUSH2 0x100 EXP DUP2 SLOAD DUP2 PUSH20 0xFFFFFFFFFFFFFFFFFFFFFFFFFFFFFFFFFFFFFFFF MUL NOT AND SWAP1 DUP4 PUSH20 0xFFFFFFFFFFFFFFFFFFFFFFFFFFFFFFFFFFFFFFFF AND MUL OR SWAP1 SSTORE POP PUSH0 DUP1 PUSH0 PUSH2 0x100 EXP DUP2 SLOAD DUP2 PUSH1 0xFF MUL NOT AND SWAP1 DUP4 PUSH1 0x2 DUP2 GT ISZERO PUSH1 0x6F JUMPI PUSH1 0x6E PUSH1 0x78 JUMP JUMPDEST JUMPDEST MUL OR SWAP1 SSTORE POP PUSH1 0xA5 JUMP JUMPDEST PUSH32 0x4E487B7100000000000000000000000000000000000000000000000000000000 PUSH0 MSTORE PUSH1 0x21 PUSH1 0x4 MSTORE PUSH1 0x24 PUSH0 REVERT JUMPDEST PUSH2 0x1706 DUP1 PUSH2 0xB2 PUSH0 CODECOPY PUSH0 RETURN INVALID PUSH1 0x80 PUSH1 0x40 MSTORE PUSH1 0x4 CALLDATASIZE LT PUSH2 0x94 JUMPI PUSH0 CALLDATALOAD PUSH1 0xE0 SHR DUP1 PUSH4 0xA179ACDB GT PUSH2 0x58 JUMPI DUP1 PUSH4 0xA179ACDB EQ PUSH2 0x19C JUMPI DUP1 PUSH4 0xC19D93FB EQ PUSH2 0x1C4 JUMPI DUP1 PUSH4 0xCC42E83A EQ PUSH2 0x1EE JUMPI DUP1 PUSH4 0xDE3F18E2 EQ PUSH2 0x204 JUMPI DUP1 PUSH4 0xFDD746BE EQ PUSH2 0x22E JUMPI PUSH2 0xD4 JUMP JUMPDEST DUP1 PUSH4 0x15AC534D EQ PUSH2 0xD8 JUMPI DUP1 PUSH4 0x43046844 EQ PUSH2 0xEE JUMPI DUP1 PUSH4 0x55587B8E EQ PUSH2 0x10A JUMPI DUP1 PUSH4 0x89A78F1A EQ PUSH2 0x134 JUMPI DUP1 PUSH4 0x8DA5CB5B EQ PUSH2 0x172 JUMPI PUSH2 0xD4 JUMP JUMPDEST CALLDATASIZE PUSH2 0xD4 JUMPI PUSH1 0x40 MLOAD PUSH32 0x8C379A000000000000000000000000000000000000000000000000000000000 DUP2 MSTORE PUSH1 0x4 ADD PUSH2 0xCB SWAP1 PUSH2 0xCF7 JUMP JUMPDEST PUSH1 0x40 MLOAD DUP1 SWAP2 SUB SWAP1 REVERT JUMPDEST PUSH0 DUP1 REVERT JUMPDEST CALLVALUE DUP1 ISZERO PUSH2 0xE3 JUMPI PUSH0 DUP1 REVERT JUMPDEST POP PUSH2 0xEC PUSH2 0x258 JUMP JUMPDEST STOP JUMPDEST PUSH2 0x108 PUSH1 0x4 DUP1 CALLDATASIZE SUB DUP2 ADD SWAP1 PUSH2 0x103 SWAP2 SWAP1 PUSH2 0xD3C JUMP JUMPDEST PUSH2 0x384 JUMP JUMPDEST STOP JUMPDEST CALLVALUE DUP1 ISZERO PUSH2 0x115 JUMPI PUSH0 DUP1 REVERT JUMPDEST POP PUSH2 0x11E PUSH2 0x6C9 JUMP JUMPDEST PUSH1 0x40 MLOAD PUSH2 0x12B SWAP2 SWAP1 PUSH2 0xD7F JUMP JUMPDEST PUSH1 0x40 MLOAD DUP1 SWAP2 SUB SWAP1 RETURN JUMPDEST CALLVALUE DUP1 ISZERO PUSH2 0x13F JUMPI PUSH0 DUP1 REVERT JUMPDEST POP PUSH2 0x15A PUSH1 0x4 DUP1 CALLDATASIZE SUB DUP2 ADD SWAP1 PUSH2 0x155 SWAP2 SWAP1 PUSH2 0xDF2 JUMP JUMPDEST PUSH2 0x6CF JUMP JUMPDEST PUSH1 0x40 MLOAD PUSH2 0x169 SWAP4 SWAP3 SWAP2 SWAP1 PUSH2 0xEAA JUMP JUMPDEST PUSH1 0x40 MLOAD DUP1 SWAP2 SUB SWAP1 RETURN JUMPDEST CALLVALUE DUP1 ISZERO PUSH2 0x17D JUMPI PUSH0 DUP1 REVERT JUMPDEST POP PUSH2 0x186 PUSH2 0x70E JUMP JUMPDEST PUSH1 0x40 MLOAD PUSH2 0x193 SWAP2 SWAP1 PUSH2 0xEEE JUMP JUMPDEST PUSH1 0x40 MLOAD DUP1 SWAP2 SUB SWAP1 RETURN JUMPDEST CALLVALUE DUP1 ISZERO PUSH2 0x1A7 JUMPI PUSH0 DUP1 REVERT JUMPDEST POP PUSH2 0x1C2 PUSH1 0x4 DUP1 CALLDATASIZE SUB DUP2 ADD SWAP1 PUSH2 0x1BD SWAP2 SWAP1 PUSH2 0xD3C JUMP JUMPDEST PUSH2 0x733 JUMP JUMPDEST STOP JUMPDEST CALLVALUE DUP1 ISZERO PUSH2 0x1CF JUMPI PUSH0 DUP1 REVERT JUMPDEST POP PUSH2 0x1D8 PUSH2 0x957 JUMP JUMPDEST PUSH1 0x40 MLOAD PUSH2 0x1E5 SWAP2 SWAP1 PUSH2 0xF4D JUMP JUMPDEST PUSH1 0x40 MLOAD DUP1 SWAP2 SUB SWAP1 RETURN JUMPDEST CALLVALUE DUP1 ISZERO PUSH2 0x1F9 JUMPI PUSH0 DUP1 REVERT JUMPDEST POP PUSH2 0x202 PUSH2 0x967 JUMP JUMPDEST STOP JUMPDEST CALLVALUE DUP1 ISZERO PUSH2 0x20F JUMPI PUSH0 DUP1 REVERT JUMPDEST POP PUSH2 0x218 PUSH2 0xC84 JUMP JUMPDEST PUSH1 0x40 MLOAD PUSH2 0x225 SWAP2 SWAP1 PUSH2 0xF66 JUMP JUMPDEST PUSH1 0x40 MLOAD DUP1 SWAP2 SUB SWAP1 RETURN JUMPDEST CALLVALUE DUP1 ISZERO PUSH2 0x239 JUMPI PUSH0 DUP1 REVERT JUMPDEST POP PUSH2 0x242 PUSH2 0xC97 JUMP JUMPDEST PUSH1 0x40 MLOAD PUSH2 0x24F SWAP2 SWAP1 PUSH2 0xD7F JUMP JUMPDEST PUSH1 0x40 MLOAD DUP1 SWAP2 SUB SWAP1 RETURN JUMPDEST PUSH1 0x4 PUSH0 SWAP1 SLOAD SWAP1 PUSH2 0x100 EXP SWAP1 DIV PUSH20 0xFFFFFFFFFFFFFFFFFFFFFFFFFFFFFFFFFFFFFFFF AND PUSH20 0xFFFFFFFFFFFFFFFFFFFFFFFFFFFFFFFFFFFFFFFF AND CALLER PUSH20 0xFFFFFFFFFFFFFFFFFFFFFFFFFFFFFFFFFFFFFFFF AND EQ PUSH2 0x2E7 JUMPI PUSH1 0x40 MLOAD PUSH32 0x8C379A000000000000000000000000000000000000000000000000000000000 DUP2 MSTORE PUSH1 0x4 ADD PUSH2 0x2DE SWAP1 PUSH2 0xFEF JUMP JUMPDEST PUSH1 0x40 MLOAD DUP1 SWAP2 SUB SWAP1 REVERT JUMPDEST PUSH0 PUSH1 0x2 DUP2 GT ISZERO PUSH2 0x2FA JUMPI PUSH2 0x2F9 PUSH2 0xE1D JUMP JUMPDEST JUMPDEST PUSH0 DUP1 SLOAD SWAP1 PUSH2 0x100 EXP SWAP1 DIV PUSH1 0xFF AND PUSH1 0x2 DUP2 GT ISZERO PUSH2 0x319 JUMPI PUSH2 0x318 PUSH2 0xE1D JUMP JUMPDEST JUMPDEST EQ PUSH2 0x359 JUMPI PUSH1 0x40 MLOAD PUSH32 0x8C379A000000000000000000000000000000000000000000000000000000000 DUP2 MSTORE PUSH1 0x4 ADD PUSH2 0x350 SWAP1 PUSH2 0x107D JUMP JUMPDEST PUSH1 0x40 MLOAD DUP1 SWAP2 SUB SWAP1 REVERT JUMPDEST PUSH1 0x1 PUSH0 DUP1 PUSH2 0x100 EXP DUP2 SLOAD DUP2 PUSH1 0xFF MUL NOT AND SWAP1 DUP4 PUSH1 0x2 DUP2 GT ISZERO PUSH2 0x37D JUMPI PUSH2 0x37C PUSH2 0xE1D JUMP JUMPDEST JUMPDEST MUL OR SWAP1 SSTORE POP JUMP JUMPDEST PUSH0 PUSH1 0x2 DUP2 GT ISZERO PUSH2 0x397 JUMPI PUSH2 0x396 PUSH2 0xE1D JUMP JUMPDEST JUMPDEST PUSH0 DUP1 SLOAD SWAP1 PUSH2 0x100 EXP SWAP1 DIV PUSH1 0xFF AND PUSH1 0x2 DUP2 GT ISZERO PUSH2 0x3B6 JUMPI PUSH2 0x3B5 PUSH2 0xE1D JUMP JUMPDEST JUMPDEST EQ PUSH2 0x3F6 JUMPI PUSH1 0x40 MLOAD PUSH32 0x8C379A000000000000000000000000000000000000000000000000000000000 DUP2 MSTORE PUSH1 0x4 ADD PUSH2 0x3ED SWAP1 PUSH2 0x10E5 JUMP JUMPDEST PUSH1 0x40 MLOAD DUP1 SWAP2 SUB SWAP1 REVERT JUMPDEST PUSH0 CALLVALUE GT PUSH2 0x438 JUMPI PUSH1 0x40 MLOAD PUSH32 0x8C379A000000000000000000000000000000000000000000000000000000000 DUP2 MSTORE PUSH1 0x4 ADD PUSH2 0x42F SWAP1 PUSH2 0x1173 JUMP JUMPDEST PUSH1 0x40 MLOAD DUP1 SWAP2 SUB SWAP1 REVERT JUMPDEST PUSH0 PUSH1 0x1 PUSH0 CALLER PUSH20 0xFFFFFFFFFFFFFFFFFFFFFFFFFFFFFFFFFFFFFFFF AND PUSH20 0xFFFFFFFFFFFFFFFFFFFFFFFFFFFFFFFFFFFFFFFF AND DUP2 MSTORE PUSH1 0x20 ADD SWAP1 DUP2 MSTORE PUSH1 0x20 ADD PUSH0 KECCAK256 PUSH0 ADD SLOAD EQ PUSH2 0x4B9 JUMPI PUSH1 0x40 MLOAD PUSH32 0x8C379A000000000000000000000000000000000000000000000000000000000 DUP2 MSTORE PUSH1 0x4 ADD PUSH2 0x4B0 SWAP1 PUSH2 0x11DB JUMP JUMPDEST PUSH1 0x40 MLOAD DUP1 SWAP2 SUB SWAP1 REVERT JUMPDEST PUSH1 0x1 PUSH1 0x2 DUP2 GT ISZERO PUSH2 0x4CD JUMPI PUSH2 0x4CC PUSH2 0xE1D JUMP JUMPDEST JUMPDEST DUP2 PUSH1 0x2 DUP2 GT ISZERO PUSH2 0x4E0 JUMPI PUSH2 0x4DF PUSH2 0xE1D JUMP JUMPDEST JUMPDEST EQ DUP1 PUSH2 0x50F JUMPI POP PUSH1 0x2 DUP1 DUP2 GT ISZERO PUSH2 0x4FA JUMPI PUSH2 0x4F9 PUSH2 0xE1D JUMP JUMPDEST JUMPDEST DUP2 PUSH1 0x2 DUP2 GT ISZERO PUSH2 0x50D JUMPI PUSH2 0x50C PUSH2 0xE1D JUMP JUMPDEST JUMPDEST EQ JUMPDEST PUSH2 0x54E JUMPI PUSH1 0x40 MLOAD PUSH32 0x8C379A000000000000000000000000000000000000000000000000000000000 DUP2 MSTORE PUSH1 0x4 ADD PUSH2 0x545 SWAP1 PUSH2 0x1243 JUMP JUMPDEST PUSH1 0x40 MLOAD DUP1 SWAP2 SUB SWAP1 REVERT JUMPDEST PUSH1 0x40 MLOAD DUP1 PUSH1 0x60 ADD PUSH1 0x40 MSTORE DUP1 CALLVALUE DUP2 MSTORE PUSH1 0x20 ADD DUP3 PUSH1 0x2 DUP2 GT ISZERO PUSH2 0x572 JUMPI PUSH2 0x571 PUSH2 0xE1D JUMP JUMPDEST JUMPDEST DUP2 MSTORE PUSH1 0x20 ADD PUSH0 ISZERO ISZERO DUP2 MSTORE POP PUSH1 0x1 PUSH0 CALLER PUSH20 0xFFFFFFFFFFFFFFFFFFFFFFFFFFFFFFFFFFFFFFFF AND PUSH20 0xFFFFFFFFFFFFFFFFFFFFFFFFFFFFFFFFFFFFFFFF AND DUP2 MSTORE PUSH1 0x20 ADD SWAP1 DUP2 MSTORE PUSH1 0x20 ADD PUSH0 KECCAK256 PUSH0 DUP3 ADD MLOAD DUP2 PUSH0 ADD SSTORE PUSH1 0x20 DUP3 ADD MLOAD DUP2 PUSH1 0x1 ADD PUSH0 PUSH2 0x100 EXP DUP2 SLOAD DUP2 PUSH1 0xFF MUL NOT AND SWAP1 DUP4 PUSH1 0x2 DUP2 GT ISZERO PUSH2 0x5EC JUMPI PUSH2 0x5EB PUSH2 0xE1D JUMP JUMPDEST JUMPDEST MUL OR SWAP1 SSTORE POP PUSH1 0x40 DUP3 ADD MLOAD DUP2 PUSH1 0x1 ADD PUSH1 0x1 PUSH2 0x100 EXP DUP2 SLOAD DUP2 PUSH1 0xFF MUL NOT AND SWAP1 DUP4 ISZERO ISZERO MUL OR SWAP1 SSTORE POP SWAP1 POP POP PUSH1 0x1 PUSH1 0x2 DUP2 GT ISZERO PUSH2 0x628 JUMPI PUSH2 0x627 PUSH2 0xE1D JUMP JUMPDEST JUMPDEST DUP2 PUSH1 0x2 DUP2 GT ISZERO PUSH2 0x63B JUMPI PUSH2 0x63A PUSH2 0xE1D JUMP JUMPDEST JUMPDEST SUB PUSH2 0x65D JUMPI CALLVALUE PUSH1 0x2 PUSH0 DUP3 DUP3 SLOAD PUSH2 0x651 SWAP2 SWAP1 PUSH2 0x128E JUMP JUMPDEST SWAP3 POP POP DUP2 SWAP1 SSTORE POP PUSH2 0x676 JUMP JUMPDEST CALLVALUE PUSH1 0x3 PUSH0 DUP3 DUP3 SLOAD PUSH2 0x66E SWAP2 SWAP1 PUSH2 0x128E JUMP JUMPDEST SWAP3 POP POP DUP2 SWAP1 SSTORE POP JUMPDEST CALLER PUSH20 0xFFFFFFFFFFFFFFFFFFFFFFFFFFFFFFFFFFFFFFFF AND PUSH32 0x9F6B4CCED64244A64465098F682029975B1614400B96BC6BD12C668083719166 DUP3 CALLVALUE PUSH1 0x40 MLOAD PUSH2 0x6BE SWAP3 SWAP2 SWAP1 PUSH2 0x12C1 JUMP JUMPDEST PUSH1 0x40 MLOAD DUP1 SWAP2 SUB SWAP1 LOG2 POP JUMP JUMPDEST PUSH1 0x3 SLOAD DUP2 JUMP JUMPDEST PUSH1 0x1 PUSH1 0x20 MSTORE DUP1 PUSH0 MSTORE PUSH1 0x40 PUSH0 KECCAK256 PUSH0 SWAP2 POP SWAP1 POP DUP1 PUSH0 ADD SLOAD SWAP1 DUP1 PUSH1 0x1 ADD PUSH0 SWAP1 SLOAD SWAP1 PUSH2 0x100 EXP SWAP1 DIV PUSH1 0xFF AND SWAP1 DUP1 PUSH1 0x1 ADD PUSH1 0x1 SWAP1 SLOAD SWAP1 PUSH2 0x100 EXP SWAP1 DIV PUSH1 0xFF AND SWAP1 POP DUP4 JUMP JUMPDEST PUSH1 0x4 PUSH0 SWAP1 SLOAD SWAP1 PUSH2 0x100 EXP SWAP1 DIV PUSH20 0xFFFFFFFFFFFFFFFFFFFFFFFFFFFFFFFFFFFFFFFF AND DUP2 JUMP JUMPDEST PUSH1 0x4 PUSH0 SWAP1 SLOAD SWAP1 PUSH2 0x100 EXP SWAP1 DIV PUSH20 0xFFFFFFFFFFFFFFFFFFFFFFFFFFFFFFFFFFFFFFFF AND PUSH20 0xFFFFFFFFFFFFFFFFFFFFFFFFFFFFFFFFFFFFFFFF AND CALLER PUSH20 0xFFFFFFFFFFFFFFFFFFFFFFFFFFFFFFFFFFFFFFFF AND EQ PUSH2 0x7C2 JUMPI PUSH1 0x40 MLOAD PUSH32 0x8C379A000000000000000000000000000000000000000000000000000000000 DUP2 MSTORE PUSH1 0x4 ADD PUSH2 0x7B9 SWAP1 PUSH2 0x1358 JUMP JUMPDEST PUSH1 0x40 MLOAD DUP1 SWAP2 SUB SWAP1 REVERT JUMPDEST PUSH1 0x1 PUSH1 0x2 DUP2 GT ISZERO PUSH2 0x7D6 JUMPI PUSH2 0x7D5 PUSH2 0xE1D JUMP JUMPDEST JUMPDEST PUSH0 DUP1 SLOAD SWAP1 PUSH2 0x100 EXP SWAP1 DIV PUSH1 0xFF AND PUSH1 0x2 DUP2 GT ISZERO PUSH2 0x7F5 JUMPI PUSH2 0x7F4 PUSH2 0xE1D JUMP JUMPDEST JUMPDEST EQ PUSH2 0x835 JUMPI PUSH1 0x40 MLOAD PUSH32 0x8C379A000000000000000000000000000000000000000000000000000000000 DUP2 MSTORE PUSH1 0x4 ADD PUSH2 0x82C SWAP1 PUSH2 0x13C0 JUMP JUMPDEST PUSH1 0x40 MLOAD DUP1 SWAP2 SUB SWAP1 REVERT JUMPDEST PUSH1 0x1 PUSH1 0x2 DUP2 GT ISZERO PUSH2 0x849 JUMPI PUSH2 0x848 PUSH2 0xE1D JUMP JUMPDEST JUMPDEST DUP2 PUSH1 0x2 DUP2 GT ISZERO PUSH2 0x85C JUMPI PUSH2 0x85B PUSH2 0xE1D JUMP JUMPDEST JUMPDEST EQ DUP1 PUSH2 0x88B JUMPI POP PUSH1 0x2 DUP1 DUP2 GT ISZERO PUSH2 0x876 JUMPI PUSH2 0x875 PUSH2 0xE1D JUMP JUMPDEST JUMPDEST DUP2 PUSH1 0x2 DUP2 GT ISZERO PUSH2 0x889 JUMPI PUSH2 0x888 PUSH2 0xE1D JUMP JUMPDEST JUMPDEST EQ JUMPDEST PUSH2 0x8CA JUMPI PUSH1 0x40 MLOAD PUSH32 0x8C379A000000000000000000000000000000000000000000000000000000000 DUP2 MSTORE PUSH1 0x4 ADD PUSH2 0x8C1 SWAP1 PUSH2 0x1428 JUMP JUMPDEST PUSH1 0x40 MLOAD DUP1 SWAP2 SUB SWAP1 REVERT JUMPDEST DUP1 PUSH1 0x4 PUSH1 0x14 PUSH2 0x100 EXP DUP2 SLOAD DUP2 PUSH1 0xFF MUL NOT AND SWAP1 DUP4 PUSH1 0x2 DUP2 GT ISZERO PUSH2 0x8EF JUMPI PUSH2 0x8EE PUSH2 0xE1D JUMP JUMPDEST JUMPDEST MUL OR SWAP1 SSTORE POP PUSH1 0x2 PUSH0 DUP1 PUSH2 0x100 EXP DUP2 SLOAD DUP2 PUSH1 0xFF MUL NOT AND SWAP1 DUP4 PUSH1 0x2 DUP2 GT ISZERO PUSH2 0x918 JUMPI PUSH2 0x917 PUSH2 0xE1D JUMP JUMPDEST JUMPDEST MUL OR SWAP1 SSTORE POP PUSH32 0xD6BCD4B6873D691163F1AFF2D5585378623AEF08E17513A5253EABE39C65DC50 DUP2 PUSH1 0x40 MLOAD PUSH2 0x94C SWAP2 SWAP1 PUSH2 0xF66 JUMP JUMPDEST PUSH1 0x40 MLOAD DUP1 SWAP2 SUB SWAP1 LOG1 POP JUMP JUMPDEST PUSH0 DUP1 SLOAD SWAP1 PUSH2 0x100 EXP SWAP1 DIV PUSH1 0xFF AND DUP2 JUMP JUMPDEST PUSH1 0x2 DUP1 DUP2 GT ISZERO PUSH2 0x97A JUMPI PUSH2 0x979 PUSH2 0xE1D JUMP JUMPDEST JUMPDEST PUSH0 DUP1 SLOAD SWAP1 PUSH2 0x100 EXP SWAP1 DIV PUSH1 0xFF AND PUSH1 0x2 DUP2 GT ISZERO PUSH2 0x999 JUMPI PUSH2 0x998 PUSH2 0xE1D JUMP JUMPDEST JUMPDEST EQ PUSH2 0x9D9 JUMPI PUSH1 0x40 MLOAD PUSH32 0x8C379A000000000000000000000000000000000000000000000000000000000 DUP2 MSTORE PUSH1 0x4 ADD PUSH2 0x9D0 SWAP1 PUSH2 0x14B6 JUMP JUMPDEST PUSH1 0x40 MLOAD DUP1 SWAP2 SUB SWAP1 REVERT JUMPDEST PUSH0 PUSH1 0x1 PUSH0 CALLER PUSH20 0xFFFFFFFFFFFFFFFFFFFFFFFFFFFFFFFFFFFFFFFF AND PUSH20 0xFFFFFFFFFFFFFFFFFFFFFFFFFFFFFFFFFFFFFFFF AND DUP2 MSTORE PUSH1 0x20 ADD SWAP1 DUP2 MSTORE PUSH1 0x20 ADD PUSH0 KECCAK256 SWAP1 POP PUSH0 DUP2 PUSH0 ADD SLOAD GT PUSH2 0xA5E JUMPI PUSH1 0x40 MLOAD PUSH32 0x8C379A000000000000000000000000000000000000000000000000000000000 DUP2 MSTORE PUSH1 0x4 ADD PUSH2 0xA55 SWAP1 PUSH2 0x151E JUMP JUMPDEST PUSH1 0x40 MLOAD DUP1 SWAP2 SUB SWAP1 REVERT JUMPDEST DUP1 PUSH1 0x1 ADD PUSH1 0x1 SWAP1 SLOAD SWAP1 PUSH2 0x100 EXP SWAP1 DIV PUSH1 0xFF AND ISZERO PUSH2 0xAB0 JUMPI PUSH1 0x40 MLOAD PUSH32 0x8C379A000000000000000000000000000000000000000000000000000000000 DUP2 MSTORE PUSH1 0x4 ADD PUSH2 0xAA7 SWAP1 PUSH2 0x1586 JUMP JUMPDEST PUSH1 0x40 MLOAD DUP1 SWAP2 SUB SWAP1 REVERT JUMPDEST PUSH1 0x4 PUSH1 0x14 SWAP1 SLOAD SWAP1 PUSH2 0x100 EXP SWAP1 DIV PUSH1 0xFF AND PUSH1 0x2 DUP2 GT ISZERO PUSH2 0xAD2 JUMPI PUSH2 0xAD1 PUSH2 0xE1D JUMP JUMPDEST JUMPDEST DUP2 PUSH1 0x1 ADD PUSH0 SWAP1 SLOAD SWAP1 PUSH2 0x100 EXP SWAP1 DIV PUSH1 0xFF AND PUSH1 0x2 DUP2 GT ISZERO PUSH2 0xAF5 JUMPI PUSH2 0xAF4 PUSH2 0xE1D JUMP JUMPDEST JUMPDEST EQ PUSH2 0xB35 JUMPI PUSH1 0x40 MLOAD PUSH32 0x8C379A000000000000000000000000000000000000000000000000000000000 DUP2 MSTORE PUSH1 0x4 ADD PUSH2 0xB2C SWAP1 PUSH2 0x1614 JUMP JUMPDEST PUSH1 0x40 MLOAD DUP1 SWAP2 SUB SWAP1 REVERT JUMPDEST PUSH0 PUSH1 0x1 PUSH1 0x2 DUP2 GT ISZERO PUSH2 0xB4A JUMPI PUSH2 0xB49 PUSH2 0xE1D JUMP JUMPDEST JUMPDEST PUSH1 0x4 PUSH1 0x14 SWAP1 SLOAD SWAP1 PUSH2 0x100 EXP SWAP1 DIV PUSH1 0xFF AND PUSH1 0x2 DUP2 GT ISZERO PUSH2 0xB6C JUMPI PUSH2 0xB6B PUSH2 0xE1D JUMP JUMPDEST JUMPDEST SUB PUSH2 0xBA3 JUMPI PUSH1 0x2 SLOAD PUSH1 0x3 SLOAD PUSH1 0x2 SLOAD PUSH2 0xB84 SWAP2 SWAP1 PUSH2 0x128E JUMP JUMPDEST DUP4 PUSH0 ADD SLOAD PUSH2 0xB92 SWAP2 SWAP1 PUSH2 0x1632 JUMP JUMPDEST PUSH2 0xB9C SWAP2 SWAP1 PUSH2 0x16A0 JUMP JUMPDEST SWAP1 POP PUSH2 0xBD1 JUMP JUMPDEST PUSH1 0x3 SLOAD PUSH1 0x3 SLOAD PUSH1 0x2 SLOAD PUSH2 0xBB6 SWAP2 SWAP1 PUSH2 0x128E JUMP JUMPDEST DUP4 PUSH0 ADD SLOAD PUSH2 0xBC4 SWAP2 SWAP1 PUSH2 0x1632 JUMP JUMPDEST PUSH2 0xBCE SWAP2 SWAP1 PUSH2 0x16A0 JUMP JUMPDEST SWAP1 POP JUMPDEST PUSH1 0x1 DUP3 PUSH1 0x1 ADD PUSH1 0x1 PUSH2 0x100 EXP DUP2 SLOAD DUP2 PUSH1 0xFF MUL NOT AND SWAP1 DUP4 ISZERO ISZERO MUL OR SWAP1 SSTORE POP CALLER PUSH20 0xFFFFFFFFFFFFFFFFFFFFFFFFFFFFFFFFFFFFFFFF AND PUSH2 0x8FC DUP3 SWAP1 DUP2 ISZERO MUL SWAP1 PUSH1 0x40 MLOAD PUSH0 PUSH1 0x40 MLOAD DUP1 DUP4 SUB DUP2 DUP6 DUP9 DUP9 CALL SWAP4 POP POP POP POP ISZERO DUP1 ISZERO PUSH2 0xC31 JUMPI RETURNDATASIZE PUSH0 DUP1 RETURNDATACOPY RETURNDATASIZE PUSH0 REVERT JUMPDEST POP CALLER PUSH20 0xFFFFFFFFFFFFFFFFFFFFFFFFFFFFFFFFFFFFFFFF AND PUSH32 0x24215BBAF0832FA4D6FFEF16DEE3971D8B714921FEF3AD63F793D578983C6DC2 DUP3 PUSH1 0x40 MLOAD PUSH2 0xC78 SWAP2 SWAP1 PUSH2 0xD7F JUMP JUMPDEST PUSH1 0x40 MLOAD DUP1 SWAP2 SUB SWAP1 LOG2 POP POP JUMP JUMPDEST PUSH1 0x4 PUSH1 0x14 SWAP1 SLOAD SWAP1 PUSH2 0x100 EXP SWAP1 DIV PUSH1 0xFF AND DUP2 JUMP JUMPDEST PUSH1 0x2 SLOAD DUP2 JUMP JUMPDEST PUSH0 DUP3 DUP3 MSTORE PUSH1 0x20 DUP3 ADD SWAP1 POP SWAP3 SWAP2 POP POP JUMP JUMPDEST PUSH32 0x446972656374207472616E7366657273206E6F7420616C6C6F77656400000000 PUSH0 DUP3 ADD MSTORE POP JUMP JUMPDEST PUSH0 PUSH2 0xCE1 PUSH1 0x1C DUP4 PUSH2 0xC9D JUMP JUMPDEST SWAP2 POP PUSH2 0xCEC DUP3 PUSH2 0xCAD JUMP JUMPDEST PUSH1 0x20 DUP3 ADD SWAP1 POP SWAP2 SWAP1 POP JUMP JUMPDEST PUSH0 PUSH1 0x20 DUP3 ADD SWAP1 POP DUP2 DUP2 SUB PUSH0 DUP4 ADD MSTORE PUSH2 0xD0E DUP2 PUSH2 0xCD5 JUMP JUMPDEST SWAP1 POP SWAP2 SWAP1 POP JUMP JUMPDEST PUSH0 DUP1 REVERT JUMPDEST PUSH1 0x3 DUP2 LT PUSH2 0xD25 JUMPI PUSH0 DUP1 REVERT JUMPDEST POP JUMP JUMPDEST PUSH0 DUP2 CALLDATALOAD SWAP1 POP PUSH2 0xD36 DUP2 PUSH2 0xD19 JUMP JUMPDEST SWAP3 SWAP2 POP POP JUMP JUMPDEST PUSH0 PUSH1 0x20 DUP3 DUP5 SUB SLT ISZERO PUSH2 0xD51 JUMPI PUSH2 0xD50 PUSH2 0xD15 JUMP JUMPDEST JUMPDEST PUSH0 PUSH2 0xD5E DUP5 DUP3 DUP6 ADD PUSH2 0xD28 JUMP JUMPDEST SWAP2 POP POP SWAP3 SWAP2 POP POP JUMP JUMPDEST PUSH0 DUP2 SWAP1 POP SWAP2 SWAP1 POP JUMP JUMPDEST PUSH2 0xD79 DUP2 PUSH2 0xD67 JUMP JUMPDEST DUP3 MSTORE POP POP JUMP JUMPDEST PUSH0 PUSH1 0x20 DUP3 ADD SWAP1 POP PUSH2 0xD92 PUSH0 DUP4 ADD DUP5 PUSH2 0xD70 JUMP JUMPDEST SWAP3 SWAP2 POP POP JUMP JUMPDEST PUSH0 PUSH20 0xFFFFFFFFFFFFFFFFFFFFFFFFFFFFFFFFFFFFFFFF DUP3 AND SWAP1 POP SWAP2 SWAP1 POP JUMP JUMPDEST PUSH0 PUSH2 0xDC1 DUP3 PUSH2 0xD98 JUMP JUMPDEST SWAP1 POP SWAP2 SWAP1 POP JUMP JUMPDEST PUSH2 0xDD1 DUP2 PUSH2 0xDB7 JUMP JUMPDEST DUP2 EQ PUSH2 0xDDB JUMPI PUSH0 DUP1 REVERT JUMPDEST POP JUMP JUMPDEST PUSH0 DUP2 CALLDATALOAD SWAP1 POP PUSH2 0xDEC DUP2 PUSH2 0xDC8 JUMP JUMPDEST SWAP3 SWAP2 POP POP JUMP JUMPDEST PUSH0 PUSH1 0x20 DUP3 DUP5 SUB SLT ISZERO PUSH2 0xE07 JUMPI PUSH2 0xE06 PUSH2 0xD15 JUMP JUMPDEST JUMPDEST PUSH0 PUSH2 0xE14 DUP5 DUP3 DUP6 ADD PUSH2 0xDDE JUMP JUMPDEST SWAP2 POP POP SWAP3 SWAP2 POP POP JUMP JUMPDEST PUSH32 0x4E487B7100000000000000000000000000000000000000000000000000000000 PUSH0 MSTORE PUSH1 0x21 PUSH1 0x4 MSTORE PUSH1 0x24 PUSH0 REVERT JUMPDEST PUSH1 0x3 DUP2 LT PUSH2 0xE5B JUMPI PUSH2 0xE5A PUSH2 0xE1D JUMP JUMPDEST JUMPDEST POP JUMP JUMPDEST PUSH0 DUP2 SWAP1 POP PUSH2 0xE6B DUP3 PUSH2 0xE4A JUMP JUMPDEST SWAP2 SWAP1 POP JUMP JUMPDEST PUSH0 PUSH2 0xE7A DUP3 PUSH2 0xE5E JUMP JUMPDEST SWAP1 POP SWAP2 SWAP1 POP JUMP JUMPDEST PUSH2 0xE8A DUP2 PUSH2 0xE70 JUMP JUMPDEST DUP3 MSTORE POP POP JUMP JUMPDEST PUSH0 DUP2 ISZERO ISZERO SWAP1 POP SWAP2 SWAP1 POP JUMP JUMPDEST PUSH2 0xEA4 DUP2 PUSH2 0xE90 JUMP JUMPDEST DUP3 MSTORE POP POP JUMP JUMPDEST PUSH0 PUSH1 0x60 DUP3 ADD SWAP1 POP PUSH2 0xEBD PUSH0 DUP4 ADD DUP7 PUSH2 0xD70 JUMP JUMPDEST PUSH2 0xECA PUSH1 0x20 DUP4 ADD DUP6 PUSH2 0xE81 JUMP JUMPDEST PUSH2 0xED7 PUSH1 0x40 DUP4 ADD DUP5 PUSH2 0xE9B JUMP JUMPDEST SWAP5 SWAP4 POP POP POP POP JUMP JUMPDEST PUSH2 0xEE8 DUP2 PUSH2 0xDB7 JUMP JUMPDEST DUP3 MSTORE POP POP JUMP JUMPDEST PUSH0 PUSH1 0x20 DUP3 ADD SWAP1 POP PUSH2 0xF01 PUSH0 DUP4 ADD DUP5 PUSH2 0xEDF JUMP JUMPDEST SWAP3 SWAP2 POP POP JUMP JUMPDEST PUSH1 0x3 DUP2 LT PUSH2 0xF18 JUMPI PUSH2 0xF17 PUSH2 0xE1D JUMP JUMPDEST JUMPDEST POP JUMP JUMPDEST PUSH0 DUP2 SWAP1 POP PUSH2 0xF28 DUP3 PUSH2 0xF07 JUMP JUMPDEST SWAP2 SWAP1 POP JUMP JUMPDEST PUSH0 PUSH2 0xF37 DUP3 PUSH2 0xF1B JUMP JUMPDEST SWAP1 POP SWAP2 SWAP1 POP JUMP JUMPDEST PUSH2 0xF47 DUP2 PUSH2 0xF2D JUMP JUMPDEST DUP3 MSTORE POP POP JUMP JUMPDEST PUSH0 PUSH1 0x20 DUP3 ADD SWAP1 POP PUSH2 0xF60 PUSH0 DUP4 ADD DUP5 PUSH2 0xF3E JUMP JUMPDEST SWAP3 SWAP2 POP POP JUMP JUMPDEST PUSH0 PUSH1 0x20 DUP3 ADD SWAP1 POP PUSH2 0xF79 PUSH0 DUP4 ADD DUP5 PUSH2 0xE81 JUMP JUMPDEST SWAP3 SWAP2 POP POP JUMP JUMPDEST PUSH32 0x4F6E6C7920746865206F776E65722063616E20636C6F73652074686520626574 PUSH0 DUP3 ADD MSTORE PUSH32 0x74696E6700000000000000000000000000000000000000000000000000000000 PUSH1 0x20 DUP3 ADD MSTORE POP JUMP JUMPDEST PUSH0 PUSH2 0xFD9 PUSH1 0x24 DUP4 PUSH2 0xC9D JUMP JUMPDEST SWAP2 POP PUSH2 0xFE4 DUP3 PUSH2 0xF7F JUMP JUMPDEST PUSH1 0x40 DUP3 ADD SWAP1 POP SWAP2 SWAP1 POP JUMP JUMPDEST PUSH0 PUSH1 0x20 DUP3 ADD SWAP1 POP DUP2 DUP2 SUB PUSH0 DUP4 ADD MSTORE PUSH2 0x1006 DUP2 PUSH2 0xFCD JUMP JUMPDEST SWAP1 POP SWAP2 SWAP1 POP JUMP JUMPDEST PUSH32 0x42657474696E6720697320616C726561647920636C6F736564206F7220726573 PUSH0 DUP3 ADD MSTORE PUSH32 0x6F6C766564000000000000000000000000000000000000000000000000000000 PUSH1 0x20 DUP3 ADD MSTORE POP JUMP JUMPDEST PUSH0 PUSH2 0x1067 PUSH1 0x25 DUP4 PUSH2 0xC9D JUMP JUMPDEST SWAP2 POP PUSH2 0x1072 DUP3 PUSH2 0x100D JUMP JUMPDEST PUSH1 0x40 DUP3 ADD SWAP1 POP SWAP2 SWAP1 POP JUMP JUMPDEST PUSH0 PUSH1 0x20 DUP3 ADD SWAP1 POP DUP2 DUP2 SUB PUSH0 DUP4 ADD MSTORE PUSH2 0x1094 DUP2 PUSH2 0x105B JUMP JUMPDEST SWAP1 POP SWAP2 SWAP1 POP JUMP JUMPDEST PUSH32 0x42657474696E67206973206E6F74206F70656E00000000000000000000000000 PUSH0 DUP3 ADD MSTORE POP JUMP JUMPDEST PUSH0 PUSH2 0x10CF PUSH1 0x13 DUP4 PUSH2 0xC9D JUMP JUMPDEST SWAP2 POP PUSH2 0x10DA DUP3 PUSH2 0x109B JUMP JUMPDEST PUSH1 0x20 DUP3 ADD SWAP1 POP SWAP2 SWAP1 POP JUMP JUMPDEST PUSH0 PUSH1 0x20 DUP3 ADD SWAP1 POP DUP2 DUP2 SUB PUSH0 DUP4 ADD MSTORE PUSH2 0x10FC DUP2 PUSH2 0x10C3 JUMP JUMPDEST SWAP1 POP SWAP2 SWAP1 POP JUMP JUMPDEST PUSH32 0x42657420616D6F756E74206D7573742062652067726561746572207468616E20 PUSH0 DUP3 ADD MSTORE PUSH32 0x3000000000000000000000000000000000000000000000000000000000000000 PUSH1 0x20 DUP3 ADD MSTORE POP JUMP JUMPDEST PUSH0 PUSH2 0x115D PUSH1 0x21 DUP4 PUSH2 0xC9D JUMP JUMPDEST SWAP2 POP PUSH2 0x1168 DUP3 PUSH2 0x1103 JUMP JUMPDEST PUSH1 0x40 DUP3 ADD SWAP1 POP SWAP2 SWAP1 POP JUMP JUMPDEST PUSH0 PUSH1 0x20 DUP3 ADD SWAP1 POP DUP2 DUP2 SUB PUSH0 DUP4 ADD MSTORE PUSH2 0x118A DUP2 PUSH2 0x1151 JUMP JUMPDEST SWAP1 POP SWAP2 SWAP1 POP JUMP JUMPDEST PUSH32 0x596F75206861766520616C726561647920706C61636564206120626574000000 PUSH0 DUP3 ADD MSTORE POP JUMP JUMPDEST PUSH0 PUSH2 0x11C5 PUSH1 0x1D DUP4 PUSH2 0xC9D JUMP JUMPDEST SWAP2 POP PUSH2 0x11D0 DUP3 PUSH2 0x1191 JUMP JUMPDEST PUSH1 0x20 DUP3 ADD SWAP1 POP SWAP2 SWAP1 POP JUMP JUMPDEST PUSH0 PUSH1 0x20 DUP3 ADD SWAP1 POP DUP2 DUP2 SUB PUSH0 DUP4 ADD MSTORE PUSH2 0x11F2 DUP2 PUSH2 0x11B9 JUMP JUMPDEST SWAP1 POP SWAP2 SWAP1 POP JUMP JUMPDEST PUSH32 0x496E76616C6964207465616D2073656C65637465640000000000000000000000 PUSH0 DUP3 ADD MSTORE POP JUMP JUMPDEST PUSH0 PUSH2 0x122D PUSH1 0x15 DUP4 PUSH2 0xC9D JUMP JUMPDEST SWAP2 POP PUSH2 0x1238 DUP3 PUSH2 0x11F9 JUMP JUMPDEST PUSH1 0x20 DUP3 ADD SWAP1 POP SWAP2 SWAP1 POP JUMP JUMPDEST PUSH0 PUSH1 0x20 DUP3 ADD SWAP1 POP DUP2 DUP2 SUB PUSH0 DUP4 ADD MSTORE PUSH2 0x125A DUP2 PUSH2 0x1221 JUMP JUMPDEST SWAP1 POP SWAP2 SWAP1 POP JUMP JUMPDEST PUSH32 0x4E487B7100000000000000000000000000000000000000000000000000000000 PUSH0 MSTORE PUSH1 0x11 PUSH1 0x4 MSTORE PUSH1 0x24 PUSH0 REVERT JUMPDEST PUSH0 PUSH2 0x1298 DUP3 PUSH2 0xD67 JUMP JUMPDEST SWAP2 POP PUSH2 0x12A3 DUP4 PUSH2 0xD67 JUMP JUMPDEST SWAP3 POP DUP3 DUP3 ADD SWAP1 POP DUP1 DUP3 GT ISZERO PUSH2 0x12BB JUMPI PUSH2 0x12BA PUSH2 0x1261 JUMP JUMPDEST JUMPDEST SWAP3 SWAP2 POP POP JUMP JUMPDEST PUSH0 PUSH1 0x40 DUP3 ADD SWAP1 POP PUSH2 0x12D4 PUSH0 DUP4 ADD DUP6 PUSH2 0xE81 JUMP JUMPDEST PUSH2 0x12E1 PUSH1 0x20 DUP4 ADD DUP5 PUSH2 0xD70 JUMP JUMPDEST SWAP4 SWAP3 POP POP POP JUMP JUMPDEST PUSH32 0x4F6E6C7920746865206F776E65722063616E207265736F6C7665207468652062 PUSH0 DUP3 ADD MSTORE PUSH32 0x6574000000000000000000000000000000000000000000000000000000000000 PUSH1 0x20 DUP3 ADD MSTORE POP JUMP JUMPDEST PUSH0 PUSH2 0x1342 PUSH1 0x22 DUP4 PUSH2 0xC9D JUMP JUMPDEST SWAP2 POP PUSH2 0x134D DUP3 PUSH2 0x12E8 JUMP JUMPDEST PUSH1 0x40 DUP3 ADD SWAP1 POP SWAP2 SWAP1 POP JUMP JUMPDEST PUSH0 PUSH1 0x20 DUP3 ADD SWAP1 POP DUP2 DUP2 SUB PUSH0 DUP4 ADD MSTORE PUSH2 0x136F DUP2 PUSH2 0x1336 JUMP JUMPDEST SWAP1 POP SWAP2 SWAP1 POP JUMP JUMPDEST PUSH32 0x42657474696E67206D75737420626520636C6F73656420666972737400000000 PUSH0 DUP3 ADD MSTORE POP JUMP JUMPDEST PUSH0 PUSH2 0x13AA PUSH1 0x1C DUP4 PUSH2 0xC9D JUMP JUMPDEST SWAP2 POP PUSH2 0x13B5 DUP3 PUSH2 0x1376 JUMP JUMPDEST PUSH1 0x20 DUP3 ADD SWAP1 POP SWAP2 SWAP1 POP JUMP JUMPDEST PUSH0 PUSH1 0x20 DUP3 ADD SWAP1 POP DUP2 DUP2 SUB PUSH0 DUP4 ADD MSTORE PUSH2 0x13D7 DUP2 PUSH2 0x139E JUMP JUMPDEST SWAP1 POP SWAP2 SWAP1 POP JUMP JUMPDEST PUSH32 0x496E76616C69642077696E6E696E67207465616D000000000000000000000000 PUSH0 DUP3 ADD MSTORE POP JUMP JUMPDEST PUSH0 PUSH2 0x1412 PUSH1 0x14 DUP4 PUSH2 0xC9D JUMP JUMPDEST SWAP2 POP PUSH2 0x141D DUP3 PUSH2 0x13DE JUMP JUMPDEST PUSH1 0x20 DUP3 ADD SWAP1 POP SWAP2 SWAP1 POP JUMP JUMPDEST PUSH0 PUSH1 0x20 DUP3 ADD SWAP1 POP DUP2 DUP2 SUB PUSH0 DUP4 ADD MSTORE PUSH2 0x143F DUP2 PUSH2 0x1406 JUMP JUMPDEST SWAP1 POP SWAP2 SWAP1 POP JUMP JUMPDEST PUSH32 0x42657474696E6720686173206E6F74206265656E207265736F6C766564207965 PUSH0 DUP3 ADD MSTORE PUSH32 0x7400000000000000000000000000000000000000000000000000000000000000 PUSH1 0x20 DUP3 ADD MSTORE POP JUMP JUMPDEST PUSH0 PUSH2 0x14A0 PUSH1 0x21 DUP4 PUSH2 0xC9D JUMP JUMPDEST SWAP2 POP PUSH2 0x14AB DUP3 PUSH2 0x1446 JUMP JUMPDEST PUSH1 0x40 DUP3 ADD SWAP1 POP SWAP2 SWAP1 POP JUMP JUMPDEST PUSH0 PUSH1 0x20 DUP3 ADD SWAP1 POP DUP2 DUP2 SUB PUSH0 DUP4 ADD MSTORE PUSH2 0x14CD DUP2 PUSH2 0x1494 JUMP JUMPDEST SWAP1 POP SWAP2 SWAP1 POP JUMP JUMPDEST PUSH32 0x596F752068617665206E6F7420706C6163656420612062657400000000000000 PUSH0 DUP3 ADD MSTORE POP JUMP JUMPDEST PUSH0 PUSH2 0x1508 PUSH1 0x19 DUP4 PUSH2 0xC9D JUMP JUMPDEST SWAP2 POP PUSH2 0x1513 DUP3 PUSH2 0x14D4 JUMP JUMPDEST PUSH1 0x20 DUP3 ADD SWAP1 POP SWAP2 SWAP1 POP JUMP JUMPDEST PUSH0 PUSH1 0x20 DUP3 ADD SWAP1 POP DUP2 DUP2 SUB PUSH0 DUP4 ADD MSTORE PUSH2 0x1535 DUP2 PUSH2 0x14FC JUMP JUMPDEST SWAP1 POP SWAP2 SWAP1 POP JUMP JUMPDEST PUSH32 0x57696E6E696E677320616C72656164792077697468647261776E000000000000 PUSH0 DUP3 ADD MSTORE POP JUMP JUMPDEST PUSH0 PUSH2 0x1570 PUSH1 0x1A DUP4 PUSH2 0xC9D JUMP JUMPDEST SWAP2 POP PUSH2 0x157B DUP3 PUSH2 0x153C JUMP JUMPDEST PUSH1 0x20 DUP3 ADD SWAP1 POP SWAP2 SWAP1 POP JUMP JUMPDEST PUSH0 PUSH1 0x20 DUP3 ADD SWAP1 POP DUP2 DUP2 SUB PUSH0 DUP4 ADD MSTORE PUSH2 0x159D DUP2 PUSH2 0x1564 JUMP JUMPDEST SWAP1 POP SWAP2 SWAP1 POP JUMP JUMPDEST PUSH32 0x596F7520646964206E6F7420626574206F6E207468652077696E6E696E672074 PUSH0 DUP3 ADD MSTORE PUSH32 0x65616D0000000000000000000000000000000000000000000000000000000000 PUSH1 0x20 DUP3 ADD MSTORE POP JUMP JUMPDEST PUSH0 PUSH2 0x15FE PUSH1 0x23 DUP4 PUSH2 0xC9D JUMP JUMPDEST SWAP2 POP PUSH2 0x1609 DUP3 PUSH2 0x15A4 JUMP JUMPDEST PUSH1 0x40 DUP3 ADD SWAP1 POP SWAP2 SWAP1 POP JUMP JUMPDEST PUSH0 PUSH1 0x20 DUP3 ADD SWAP1 POP DUP2 DUP2 SUB PUSH0 DUP4 ADD MSTORE PUSH2 0x162B DUP2 PUSH2 0x15F2 JUMP JUMPDEST SWAP1 POP SWAP2 SWAP1 POP JUMP JUMPDEST PUSH0 PUSH2 0x163C DUP3 PUSH2 0xD67 JUMP JUMPDEST SWAP2 POP PUSH2 0x1647 DUP4 PUSH2 0xD67 JUMP JUMPDEST SWAP3 POP DUP3 DUP3 MUL PUSH2 0x1655 DUP2 PUSH2 0xD67 JUMP JUMPDEST SWAP2 POP DUP3 DUP3 DIV DUP5 EQ DUP4 ISZERO OR PUSH2 0x166C JUMPI PUSH2 0x166B PUSH2 0x1261 JUMP JUMPDEST JUMPDEST POP SWAP3 SWAP2 POP POP JUMP JUMPDEST PUSH32 0x4E487B7100000000000000000000000000000000000000000000000000000000 PUSH0 MSTORE PUSH1 0x12 PUSH1 0x4 MSTORE PUSH1 0x24 PUSH0 REVERT JUMPDEST PUSH0 PUSH2 0x16AA DUP3 PUSH2 0xD67 JUMP JUMPDEST SWAP2 POP PUSH2 0x16B5 DUP4 PUSH2 0xD67 JUMP JUMPDEST SWAP3 POP DUP3 PUSH2 0x16C5 JUMPI PUSH2 0x16C4 PUSH2 0x1673 JUMP JUMPDEST JUMPDEST DUP3 DUP3 DIV SWAP1 POP SWAP3 SWAP2 POP POP JUMP INVALID LOG2 PUSH5 0x6970667358 0x22 SLT KECCAK256 EXTCODEHASH 0xDD PUSH1 0x6A 0xBD PUSH3 0xA2017D 0xAA 0xE2 SSTORE 0xC2 0xDE PUSH1 0x49 RETURNDATACOPY 0xFC PUSH7 0x99CC2889431E9C 0xD3 MSTORE PUSH4 0xB6F33E64 PUSH20 0x6F6C634300081A00330000000000000000000000 "
		},
		"gasEstimates": {
			"creation": {
				"codeDepositCost": "1178800",
				"executionCost": "49787",
				"totalCost": "1228587"
			},
			"external": {
				"bets(address)": "7525",
				"closeBetting()": "28805",
				"owner()": "2597",
				"placeBet(uint8)": "infinite",
				"resolveBet(uint8)": "54795",
				"state()": "2573",
				"totalBetAmountTeamA()": "2513",
				"totalBetAmountTeamB()": "2470",
				"winningTeam()": "2671",
				"withdrawWinnings()": "infinite"
			}
		},
		"methodIdentifiers": {
			"bets(address)": "89a78f1a",
			"closeBetting()": "15ac534d",
			"owner()": "8da5cb5b",
			"placeBet(uint8)": "43046844",
			"resolveBet(uint8)": "a179acdb",
			"state()": "c19d93fb",
			"totalBetAmountTeamA()": "fdd746be",
			"totalBetAmountTeamB()": "55587b8e",
			"winningTeam()": "de3f18e2",
			"withdrawWinnings()": "cc42e83a"
		}
	},
	"abi": [
		{
			"inputs": [],
			"stateMutability": "nonpayable",
			"type": "constructor"
		},
		{
			"anonymous": false,
			"inputs": [
				{
					"indexed": true,
					"internalType": "address",
					"name": "user",
					"type": "address"
				},
				{
					"indexed": false,
					"internalType": "enum SimpleBettingContract.Team",
					"name": "team",
					"type": "uint8"
				},
				{
					"indexed": false,
					"internalType": "uint256",
					"name": "amount",
					"type": "uint256"
				}
			],
			"name": "BetPlaced",
			"type": "event"
		},
		{
			"anonymous": false,
			"inputs": [
				{
					"indexed": false,
					"internalType": "enum SimpleBettingContract.Team",
					"name": "winner",
					"type": "uint8"
				}
			],
			"name": "BetResolved",
			"type": "event"
		},
		{
			"anonymous": false,
			"inputs": [
				{
					"indexed": true,
					"internalType": "address",
					"name": "user",
					"type": "address"
				},
				{
					"indexed": false,
					"internalType": "uint256",
					"name": "amount",
					"type": "uint256"
				}
			],
			"name": "WinningsWithdrawn",
			"type": "event"
		},
		{
			"inputs": [
				{
					"internalType": "address",
					"name": "",
					"type": "address"
				}
			],
			"name": "bets",
			"outputs": [
				{
					"internalType": "uint256",
					"name": "amount",
					"type": "uint256"
				},
				{
					"internalType": "enum SimpleBettingContract.Team",
					"name": "selectedTeam",
					"type": "uint8"
				},
				{
					"internalType": "bool",
					"name": "withdrawn",
					"type": "bool"
				}
			],
			"stateMutability": "view",
			"type": "function"
		},
		{
			"inputs": [],
			"name": "closeBetting",
			"outputs": [],
			"stateMutability": "nonpayable",
			"type": "function"
		},
		{
			"inputs": [],
			"name": "owner",
			"outputs": [
				{
					"internalType": "address",
					"name": "",
					"type": "address"
				}
			],
			"stateMutability": "view",
			"type": "function"
		},
		{
			"inputs": [
				{
					"internalType": "enum SimpleBettingContract.Team",
					"name": "_team",
					"type": "uint8"
				}
			],
			"name": "placeBet",
			"outputs": [],
			"stateMutability": "payable",
			"type": "function"
		},
		{
			"inputs": [
				{
					"internalType": "enum SimpleBettingContract.Team",
					"name": "_winningTeam",
					"type": "uint8"
				}
			],
			"name": "resolveBet",
			"outputs": [],
			"stateMutability": "nonpayable",
			"type": "function"
		},
		{
			"inputs": [],
			"name": "state",
			"outputs": [
				{
					"internalType": "enum SimpleBettingContract.BettingState",
					"name": "",
					"type": "uint8"
				}
			],
			"stateMutability": "view",
			"type": "function"
		},
		{
			"inputs": [],
			"name": "totalBetAmountTeamA",
			"outputs": [
				{
					"internalType": "uint256",
					"name": "",
					"type": "uint256"
				}
			],
			"stateMutability": "view",
			"type": "function"
		},
		{
			"inputs": [],
			"name": "totalBetAmountTeamB",
			"outputs": [
				{
					"internalType": "uint256",
					"name": "",
					"type": "uint256"
				}
			],
			"stateMutability": "view",
			"type": "function"
		},
		{
			"inputs": [],
			"name": "winningTeam",
			"outputs": [
				{
					"internalType": "enum SimpleBettingContract.Team",
					"name": "",
					"type": "uint8"
				}
			],
			"stateMutability": "view",
			"type": "function"
		},
		{
			"inputs": [],
			"name": "withdrawWinnings",
			"outputs": [],
			"stateMutability": "nonpayable",
			"type": "function"
		},
		{
			"stateMutability": "payable",
			"type": "receive"
		}
	]
}