{
	"SmartContract/BettingA.sol": {
		"BettingSite": {
			"abi": [
				{
					"inputs": [],
					"stateMutability": "nonpayable",
					"type": "constructor"
				},
				{
					"anonymous": false,
					"inputs": [
						{
							"indexed": false,
							"internalType": "address",
							"name": "Address",
							"type": "address"
						},
						{
							"indexed": false,
							"internalType": "uint256",
							"name": "Bet_Value",
							"type": "uint256"
						},
						{
							"indexed": false,
							"internalType": "enum BettingSite.Teams",
							"name": "Chosen_Team",
							"type": "uint8"
						}
					],
					"name": "Done_Bet",
					"type": "event"
				},
				{
					"anonymous": false,
					"inputs": [
						{
							"indexed": false,
							"internalType": "address",
							"name": "Address",
							"type": "address"
						},
						{
							"indexed": false,
							"internalType": "uint256",
							"name": "Withdraw_Value",
							"type": "uint256"
						},
						{
							"indexed": false,
							"internalType": "uint256",
							"name": "Withdraw_Time",
							"type": "uint256"
						}
					],
					"name": "Withdraw_Amount",
					"type": "event"
				},
				{
					"inputs": [
						{
							"internalType": "enum BettingSite.Status",
							"name": "state",
							"type": "uint8"
						}
					],
					"name": "Change_Status",
					"outputs": [],
					"stateMutability": "nonpayable",
					"type": "function"
				},
				{
					"inputs": [
						{
							"internalType": "enum BettingSite.Teams",
							"name": "Team",
							"type": "uint8"
						}
					],
					"name": "Place_Bet",
					"outputs": [],
					"stateMutability": "payable",
					"type": "function"
				},
				{
					"inputs": [],
					"name": "Withdraw",
					"outputs": [],
					"stateMutability": "nonpayable",
					"type": "function"
				}
			],
			"devdoc": {
				"kind": "dev",
				"methods": {},
				"version": 1
			},
			"evm": {
				"assembly": "    /* \"SmartContract/BettingA.sol\":61:1558  contract BettingSite{... */\n  mstore(0x40, 0x80)\n    /* \"SmartContract/BettingA.sol\":505:548  constructor(){... */\n  callvalue\n  dup1\n  iszero\n  tag_1\n  jumpi\n  0x00\n  dup1\n  revert\ntag_1:\n  pop\n    /* \"SmartContract/BettingA.sol\":533:543  msg.sender */\n  caller\n    /* \"SmartContract/BettingA.sol\":525:530  Owner */\n  0x00\n  dup1\n    /* \"SmartContract/BettingA.sol\":525:543  Owner = msg.sender */\n  0x0100\n  exp\n  dup2\n  sload\n  dup2\n  0xffffffffffffffffffffffffffffffffffffffff\n  mul\n  not\n  and\n  swap1\n  dup4\n  0xffffffffffffffffffffffffffffffffffffffff\n  and\n  mul\n  or\n  swap1\n  sstore\n  pop\n    /* \"SmartContract/BettingA.sol\":61:1558  contract BettingSite{... */\n  dataSize(sub_0)\n  dup1\n  dataOffset(sub_0)\n  0x00\n  codecopy\n  0x00\n  return\nstop\n\nsub_0: assembly {\n        /* \"SmartContract/BettingA.sol\":61:1558  contract BettingSite{... */\n      mstore(0x40, 0x80)\n      jumpi(tag_1, lt(calldatasize, 0x04))\n      shr(0xe0, calldataload(0x00))\n      dup1\n      0x57ea89b6\n      eq\n      tag_2\n      jumpi\n      dup1\n      0x77de0793\n      eq\n      tag_3\n      jumpi\n      dup1\n      0xc12cbab9\n      eq\n      tag_4\n      jumpi\n    tag_1:\n      0x00\n      dup1\n      revert\n        /* \"SmartContract/BettingA.sol\":1277:1557  function Withdraw() public{... */\n    tag_2:\n      callvalue\n      dup1\n      iszero\n      tag_5\n      jumpi\n      0x00\n      dup1\n      revert\n    tag_5:\n      pop\n      tag_6\n      tag_7\n      jump\t// in\n    tag_6:\n      stop\n        /* \"SmartContract/BettingA.sol\":551:822  function Change_Status(Status state) public {... */\n    tag_3:\n      callvalue\n      dup1\n      iszero\n      tag_8\n      jumpi\n      0x00\n      dup1\n      revert\n    tag_8:\n      pop\n      tag_9\n      0x04\n      dup1\n      calldatasize\n      sub\n      dup2\n      add\n      swap1\n      tag_10\n      swap2\n      swap1\n      tag_11\n      jump\t// in\n    tag_10:\n      tag_12\n      jump\t// in\n    tag_9:\n      stop\n        /* \"SmartContract/BettingA.sol\":830:1265  function  Place_Bet(Teams Team) payable public {... */\n    tag_4:\n      tag_13\n      0x04\n      dup1\n      calldatasize\n      sub\n      dup2\n      add\n      swap1\n      tag_14\n      swap2\n      swap1\n      tag_15\n      jump\t// in\n    tag_14:\n      tag_16\n      jump\t// in\n    tag_13:\n      stop\n        /* \"SmartContract/BettingA.sol\":1277:1557  function Withdraw() public{... */\n    tag_7:\n        /* \"SmartContract/BettingA.sol\":1361:1373  Teams.Team_B */\n      0x01\n        /* \"SmartContract/BettingA.sol\":1322:1373  User_Data[msg.sender].Selected_Team == Teams.Team_B */\n      dup1\n      dup2\n      gt\n      iszero\n      tag_18\n      jumpi\n      tag_19\n      tag_20\n      jump\t// in\n    tag_19:\n    tag_18:\n        /* \"SmartContract/BettingA.sol\":1322:1331  User_Data */\n      0x01\n        /* \"SmartContract/BettingA.sol\":1322:1343  User_Data[msg.sender] */\n      0x00\n        /* \"SmartContract/BettingA.sol\":1332:1342  msg.sender */\n      caller\n        /* \"SmartContract/BettingA.sol\":1322:1343  User_Data[msg.sender] */\n      0xffffffffffffffffffffffffffffffffffffffff\n      and\n      0xffffffffffffffffffffffffffffffffffffffff\n      and\n      dup2\n      mstore\n      0x20\n      add\n      swap1\n      dup2\n      mstore\n      0x20\n      add\n      0x00\n      keccak256\n        /* \"SmartContract/BettingA.sol\":1322:1357  User_Data[msg.sender].Selected_Team */\n      0x01\n      add\n      0x00\n      swap1\n      sload\n      swap1\n      0x0100\n      exp\n      swap1\n      div\n      0xff\n      and\n        /* \"SmartContract/BettingA.sol\":1322:1373  User_Data[msg.sender].Selected_Team == Teams.Team_B */\n      0x01\n      dup2\n      gt\n      iszero\n      tag_21\n      jumpi\n      tag_22\n      tag_20\n      jump\t// in\n    tag_22:\n    tag_21:\n      eq\n        /* \"SmartContract/BettingA.sol\":1314:1400  require(User_Data[msg.sender].Selected_Team == Teams.Team_B, \"You Are Not The Winner\") */\n      tag_23\n      jumpi\n      mload(0x40)\n      0x08c379a000000000000000000000000000000000000000000000000000000000\n      dup2\n      mstore\n      0x04\n      add\n      tag_24\n      swap1\n      tag_25\n      jump\t// in\n    tag_24:\n      mload(0x40)\n      dup1\n      swap2\n      sub\n      swap1\n      revert\n    tag_23:\n        /* \"SmartContract/BettingA.sol\":1419:1429  msg.sender */\n      caller\n        /* \"SmartContract/BettingA.sol\":1411:1439  payable(msg.sender).transfer */\n      0xffffffffffffffffffffffffffffffffffffffff\n      and\n        /* \"SmartContract/BettingA.sol\":1411:1469  payable(msg.sender).transfer(User_Data[msg.sender].Amount) */\n      0x08fc\n        /* \"SmartContract/BettingA.sol\":1440:1449  User_Data */\n      0x01\n        /* \"SmartContract/BettingA.sol\":1440:1461  User_Data[msg.sender] */\n      0x00\n        /* \"SmartContract/BettingA.sol\":1450:1460  msg.sender */\n      caller\n        /* \"SmartContract/BettingA.sol\":1440:1461  User_Data[msg.sender] */\n      0xffffffffffffffffffffffffffffffffffffffff\n      and\n      0xffffffffffffffffffffffffffffffffffffffff\n      and\n      dup2\n      mstore\n      0x20\n      add\n      swap1\n      dup2\n      mstore\n      0x20\n      add\n      0x00\n      keccak256\n        /* \"SmartContract/BettingA.sol\":1440:1468  User_Data[msg.sender].Amount */\n      0x00\n      add\n      sload\n        /* \"SmartContract/BettingA.sol\":1411:1469  payable(msg.sender).transfer(User_Data[msg.sender].Amount) */\n      swap1\n      dup2\n      iszero\n      mul\n      swap1\n      mload(0x40)\n      0x00\n      mload(0x40)\n      dup1\n      dup4\n      sub\n      dup2\n      dup6\n      dup9\n      dup9\n      call\n      swap4\n      pop\n      pop\n      pop\n      pop\n      iszero\n      dup1\n      iszero\n      tag_27\n      jumpi\n      returndatasize\n      0x00\n      dup1\n      returndatacopy\n      revert(0x00, returndatasize)\n    tag_27:\n      pop\n        /* \"SmartContract/BettingA.sol\":1481:1555  Withdraw_Amount(msg.sender, User_Data[msg.sender].Amount, block.timestamp) */\n      0xe7bb22312ce495e87cf54bba523f51e4023abc2e938614d165e757c6263fbc85\n        /* \"SmartContract/BettingA.sol\":1497:1507  msg.sender */\n      caller\n        /* \"SmartContract/BettingA.sol\":1509:1518  User_Data */\n      0x01\n        /* \"SmartContract/BettingA.sol\":1509:1530  User_Data[msg.sender] */\n      0x00\n        /* \"SmartContract/BettingA.sol\":1519:1529  msg.sender */\n      caller\n        /* \"SmartContract/BettingA.sol\":1509:1530  User_Data[msg.sender] */\n      0xffffffffffffffffffffffffffffffffffffffff\n      and\n      0xffffffffffffffffffffffffffffffffffffffff\n      and\n      dup2\n      mstore\n      0x20\n      add\n      swap1\n      dup2\n      mstore\n      0x20\n      add\n      0x00\n      keccak256\n        /* \"SmartContract/BettingA.sol\":1509:1537  User_Data[msg.sender].Amount */\n      0x00\n      add\n      sload\n        /* \"SmartContract/BettingA.sol\":1539:1554  block.timestamp */\n      timestamp\n        /* \"SmartContract/BettingA.sol\":1481:1555  Withdraw_Amount(msg.sender, User_Data[msg.sender].Amount, block.timestamp) */\n      mload(0x40)\n      tag_28\n      swap4\n      swap3\n      swap2\n      swap1\n      tag_29\n      jump\t// in\n    tag_28:\n      mload(0x40)\n      dup1\n      swap2\n      sub\n      swap1\n      log1\n        /* \"SmartContract/BettingA.sol\":1277:1557  function Withdraw() public{... */\n      jump\t// out\n        /* \"SmartContract/BettingA.sol\":551:822  function Change_Status(Status state) public {... */\n    tag_12:\n        /* \"SmartContract/BettingA.sol\":624:629  Owner */\n      0x00\n      dup1\n      sload\n      swap1\n      0x0100\n      exp\n      swap1\n      div\n      0xffffffffffffffffffffffffffffffffffffffff\n      and\n        /* \"SmartContract/BettingA.sol\":610:629  msg.sender == Owner */\n      0xffffffffffffffffffffffffffffffffffffffff\n      and\n        /* \"SmartContract/BettingA.sol\":610:620  msg.sender */\n      caller\n        /* \"SmartContract/BettingA.sol\":610:629  msg.sender == Owner */\n      0xffffffffffffffffffffffffffffffffffffffff\n      and\n      eq\n        /* \"SmartContract/BettingA.sol\":602:675  require(msg.sender == Owner, \"Only Owner is allowed to Change the state\") */\n      tag_31\n      jumpi\n      mload(0x40)\n      0x08c379a000000000000000000000000000000000000000000000000000000000\n      dup2\n      mstore\n      0x04\n      add\n      tag_32\n      swap1\n      tag_33\n      jump\t// in\n    tag_32:\n      mload(0x40)\n      dup1\n      swap2\n      sub\n      swap1\n      revert\n    tag_31:\n        /* \"SmartContract/BettingA.sol\":699:712  Status.Closed */\n      0x01\n        /* \"SmartContract/BettingA.sol\":690:712  state == Status.Closed */\n      0x02\n      dup2\n      gt\n      iszero\n      tag_34\n      jumpi\n      tag_35\n      tag_20\n      jump\t// in\n    tag_35:\n    tag_34:\n        /* \"SmartContract/BettingA.sol\":690:695  state */\n      dup2\n        /* \"SmartContract/BettingA.sol\":690:712  state == Status.Closed */\n      0x02\n      dup2\n      gt\n      iszero\n      tag_36\n      jumpi\n      tag_37\n      tag_20\n      jump\t// in\n    tag_37:\n    tag_36:\n      eq\n        /* \"SmartContract/BettingA.sol\":690:736  state == Status.Closed || state == Status.Open */\n      dup1\n      tag_38\n      jumpi\n      pop\n        /* \"SmartContract/BettingA.sol\":725:736  Status.Open */\n      0x00\n        /* \"SmartContract/BettingA.sol\":716:736  state == Status.Open */\n      0x02\n      dup2\n      gt\n      iszero\n      tag_39\n      jumpi\n      tag_40\n      tag_20\n      jump\t// in\n    tag_40:\n    tag_39:\n        /* \"SmartContract/BettingA.sol\":716:721  state */\n      dup2\n        /* \"SmartContract/BettingA.sol\":716:736  state == Status.Open */\n      0x02\n      dup2\n      gt\n      iszero\n      tag_41\n      jumpi\n      tag_42\n      tag_20\n      jump\t// in\n    tag_42:\n    tag_41:\n      eq\n        /* \"SmartContract/BettingA.sol\":690:736  state == Status.Closed || state == Status.Open */\n    tag_38:\n        /* \"SmartContract/BettingA.sol\":690:764  state == Status.Closed || state == Status.Open || state == Status.Resolved */\n      dup1\n      tag_43\n      jumpi\n      pop\n        /* \"SmartContract/BettingA.sol\":749:764  Status.Resolved */\n      0x02\n        /* \"SmartContract/BettingA.sol\":740:764  state == Status.Resolved */\n      dup1\n      dup2\n      gt\n      iszero\n      tag_44\n      jumpi\n      tag_45\n      tag_20\n      jump\t// in\n    tag_45:\n    tag_44:\n        /* \"SmartContract/BettingA.sol\":740:745  state */\n      dup2\n        /* \"SmartContract/BettingA.sol\":740:764  state == Status.Resolved */\n      0x02\n      dup2\n      gt\n      iszero\n      tag_46\n      jumpi\n      tag_47\n      tag_20\n      jump\t// in\n    tag_47:\n    tag_46:\n      eq\n        /* \"SmartContract/BettingA.sol\":690:764  state == Status.Closed || state == Status.Open || state == Status.Resolved */\n    tag_43:\n        /* \"SmartContract/BettingA.sol\":682:796  require(state == Status.Closed || state == Status.Open || state == Status.Resolved, \"Selected an undefined State\") */\n      tag_48\n      jumpi\n      mload(0x40)\n      0x08c379a000000000000000000000000000000000000000000000000000000000\n      dup2\n      mstore\n      0x04\n      add\n      tag_49\n      swap1\n      tag_50\n      jump\t// in\n    tag_49:\n      mload(0x40)\n      dup1\n      swap2\n      sub\n      swap1\n      revert\n    tag_48:\n        /* \"SmartContract/BettingA.sol\":812:817  state */\n      dup1\n        /* \"SmartContract/BettingA.sol\":803:809  status */\n      0x00\n      0x14\n        /* \"SmartContract/BettingA.sol\":803:817  status = state */\n      0x0100\n      exp\n      dup2\n      sload\n      dup2\n      0xff\n      mul\n      not\n      and\n      swap1\n      dup4\n      0x02\n      dup2\n      gt\n      iszero\n      tag_51\n      jumpi\n      tag_52\n      tag_20\n      jump\t// in\n    tag_52:\n    tag_51:\n      mul\n      or\n      swap1\n      sstore\n      pop\n        /* \"SmartContract/BettingA.sol\":551:822  function Change_Status(Status state) public {... */\n      pop\n      jump\t// out\n        /* \"SmartContract/BettingA.sol\":830:1265  function  Place_Bet(Teams Team) payable public {... */\n    tag_16:\n        /* \"SmartContract/BettingA.sol\":907:918  Status.Open */\n      0x00\n        /* \"SmartContract/BettingA.sol\":897:918  status == Status.Open */\n      0x02\n      dup2\n      gt\n      iszero\n      tag_54\n      jumpi\n      tag_55\n      tag_20\n      jump\t// in\n    tag_55:\n    tag_54:\n        /* \"SmartContract/BettingA.sol\":897:903  status */\n      0x00\n      0x14\n      swap1\n      sload\n      swap1\n      0x0100\n      exp\n      swap1\n      div\n      0xff\n      and\n        /* \"SmartContract/BettingA.sol\":897:918  status == Status.Open */\n      0x02\n      dup2\n      gt\n      iszero\n      tag_56\n      jumpi\n      tag_57\n      tag_20\n      jump\t// in\n    tag_57:\n    tag_56:\n      eq\n        /* \"SmartContract/BettingA.sol\":888:940  require (status == Status.Open, \"Batting is Closed\") */\n      tag_58\n      jumpi\n      mload(0x40)\n      0x08c379a000000000000000000000000000000000000000000000000000000000\n      dup2\n      mstore\n      0x04\n      add\n      tag_59\n      swap1\n      tag_60\n      jump\t// in\n    tag_59:\n      mload(0x40)\n      dup1\n      swap2\n      sub\n      swap1\n      revert\n    tag_58:\n        /* \"SmartContract/BettingA.sol\":967:979  Teams.Team_A */\n      0x00\n        /* \"SmartContract/BettingA.sol\":959:979  Team == Teams.Team_A */\n      0x01\n      dup2\n      gt\n      iszero\n      tag_61\n      jumpi\n      tag_62\n      tag_20\n      jump\t// in\n    tag_62:\n    tag_61:\n        /* \"SmartContract/BettingA.sol\":959:963  Team */\n      dup2\n        /* \"SmartContract/BettingA.sol\":959:979  Team == Teams.Team_A */\n      0x01\n      dup2\n      gt\n      iszero\n      tag_63\n      jumpi\n      tag_64\n      tag_20\n      jump\t// in\n    tag_64:\n    tag_63:\n      eq\n        /* \"SmartContract/BettingA.sol\":959:1003  Team == Teams.Team_A || Team == Teams.Team_B */\n      dup1\n      tag_65\n      jumpi\n      pop\n        /* \"SmartContract/BettingA.sol\":991:1003  Teams.Team_B */\n      0x01\n        /* \"SmartContract/BettingA.sol\":983:1003  Team == Teams.Team_B */\n      dup1\n      dup2\n      gt\n      iszero\n      tag_66\n      jumpi\n      tag_67\n      tag_20\n      jump\t// in\n    tag_67:\n    tag_66:\n        /* \"SmartContract/BettingA.sol\":983:987  Team */\n      dup2\n        /* \"SmartContract/BettingA.sol\":983:1003  Team == Teams.Team_B */\n      0x01\n      dup2\n      gt\n      iszero\n      tag_68\n      jumpi\n      tag_69\n      tag_20\n      jump\t// in\n    tag_69:\n    tag_68:\n      eq\n        /* \"SmartContract/BettingA.sol\":959:1003  Team == Teams.Team_A || Team == Teams.Team_B */\n    tag_65:\n        /* \"SmartContract/BettingA.sol\":951:1034  require(Team == Teams.Team_A || Team == Teams.Team_B, \"Selected an Undefined Team\") */\n      tag_70\n      jumpi\n      mload(0x40)\n      0x08c379a000000000000000000000000000000000000000000000000000000000\n      dup2\n      mstore\n      0x04\n      add\n      tag_71\n      swap1\n      tag_72\n      jump\t// in\n    tag_71:\n      mload(0x40)\n      dup1\n      swap2\n      sub\n      swap1\n      revert\n    tag_70:\n        /* \"SmartContract/BettingA.sol\":1069:1074  Owner */\n      0x00\n      dup1\n      sload\n      swap1\n      0x0100\n      exp\n      swap1\n      div\n      0xffffffffffffffffffffffffffffffffffffffff\n      and\n        /* \"SmartContract/BettingA.sol\":1054:1074  msg.sender !=  Owner */\n      0xffffffffffffffffffffffffffffffffffffffff\n      and\n        /* \"SmartContract/BettingA.sol\":1054:1064  msg.sender */\n      caller\n        /* \"SmartContract/BettingA.sol\":1054:1074  msg.sender !=  Owner */\n      0xffffffffffffffffffffffffffffffffffffffff\n      and\n      sub\n        /* \"SmartContract/BettingA.sol\":1045:1114  require (msg.sender !=  Owner , \"sorry  Owner is not allowed to bet\") */\n      tag_73\n      jumpi\n      mload(0x40)\n      0x08c379a000000000000000000000000000000000000000000000000000000000\n      dup2\n      mstore\n      0x04\n      add\n      tag_74\n      swap1\n      tag_75\n      jump\t// in\n    tag_74:\n      mload(0x40)\n      dup1\n      swap2\n      sub\n      swap1\n      revert\n    tag_73:\n        /* \"SmartContract/BettingA.sol\":1151:1204  Data(User_Data[msg.sender].Amount + msg.value , Team) */\n      mload(0x40)\n      dup1\n      0x40\n      add\n      0x40\n      mstore\n      dup1\n        /* \"SmartContract/BettingA.sol\":1187:1196  msg.value */\n      callvalue\n        /* \"SmartContract/BettingA.sol\":1156:1165  User_Data */\n      0x01\n        /* \"SmartContract/BettingA.sol\":1156:1177  User_Data[msg.sender] */\n      0x00\n        /* \"SmartContract/BettingA.sol\":1166:1176  msg.sender */\n      caller\n        /* \"SmartContract/BettingA.sol\":1156:1177  User_Data[msg.sender] */\n      0xffffffffffffffffffffffffffffffffffffffff\n      and\n      0xffffffffffffffffffffffffffffffffffffffff\n      and\n      dup2\n      mstore\n      0x20\n      add\n      swap1\n      dup2\n      mstore\n      0x20\n      add\n      0x00\n      keccak256\n        /* \"SmartContract/BettingA.sol\":1156:1184  User_Data[msg.sender].Amount */\n      0x00\n      add\n      sload\n        /* \"SmartContract/BettingA.sol\":1156:1196  User_Data[msg.sender].Amount + msg.value */\n      tag_76\n      swap2\n      swap1\n      tag_77\n      jump\t// in\n    tag_76:\n        /* \"SmartContract/BettingA.sol\":1151:1204  Data(User_Data[msg.sender].Amount + msg.value , Team) */\n      dup2\n      mstore\n      0x20\n      add\n        /* \"SmartContract/BettingA.sol\":1199:1203  Team */\n      dup3\n        /* \"SmartContract/BettingA.sol\":1151:1204  Data(User_Data[msg.sender].Amount + msg.value , Team) */\n      0x01\n      dup2\n      gt\n      iszero\n      tag_78\n      jumpi\n      tag_79\n      tag_20\n      jump\t// in\n    tag_79:\n    tag_78:\n      dup2\n      mstore\n      pop\n        /* \"SmartContract/BettingA.sol\":1127:1136  User_Data */\n      0x01\n        /* \"SmartContract/BettingA.sol\":1127:1148  User_Data[msg.sender] */\n      0x00\n        /* \"SmartContract/BettingA.sol\":1137:1147  msg.sender */\n      caller\n        /* \"SmartContract/BettingA.sol\":1127:1148  User_Data[msg.sender] */\n      0xffffffffffffffffffffffffffffffffffffffff\n      and\n      0xffffffffffffffffffffffffffffffffffffffff\n      and\n      dup2\n      mstore\n      0x20\n      add\n      swap1\n      dup2\n      mstore\n      0x20\n      add\n      0x00\n      keccak256\n        /* \"SmartContract/BettingA.sol\":1127:1204  User_Data[msg.sender] = Data(User_Data[msg.sender].Amount + msg.value , Team) */\n      0x00\n      dup3\n      add\n      mload\n      dup2\n      0x00\n      add\n      sstore\n      0x20\n      dup3\n      add\n      mload\n      dup2\n      0x01\n      add\n      exp(0x0100, 0x00)\n      dup2\n      sload\n      dup2\n      0xff\n      mul\n      not\n      and\n      swap1\n      dup4\n      0x01\n      dup2\n      gt\n      iszero\n      tag_80\n      jumpi\n      tag_81\n      tag_20\n      jump\t// in\n    tag_81:\n    tag_80:\n      mul\n      or\n      swap1\n      sstore\n      pop\n      swap1\n      pop\n      pop\n        /* \"SmartContract/BettingA.sol\":1220:1257  Done_Bet(msg.sender, msg.value, Team) */\n      0x15c19fc5e97afeb9df79f9df2c5080df454d207832aceba0a14f57b71f70d800\n        /* \"SmartContract/BettingA.sol\":1229:1239  msg.sender */\n      caller\n        /* \"SmartContract/BettingA.sol\":1241:1250  msg.value */\n      callvalue\n        /* \"SmartContract/BettingA.sol\":1252:1256  Team */\n      dup4\n        /* \"SmartContract/BettingA.sol\":1220:1257  Done_Bet(msg.sender, msg.value, Team) */\n      mload(0x40)\n      tag_82\n      swap4\n      swap3\n      swap2\n      swap1\n      tag_83\n      jump\t// in\n    tag_82:\n      mload(0x40)\n      dup1\n      swap2\n      sub\n      swap1\n      log1\n        /* \"SmartContract/BettingA.sol\":830:1265  function  Place_Bet(Teams Team) payable public {... */\n      pop\n      jump\t// out\n        /* \"#utility.yul\":88:205   */\n    tag_85:\n        /* \"#utility.yul\":197:198   */\n      0x00\n        /* \"#utility.yul\":194:195   */\n      dup1\n        /* \"#utility.yul\":187:199   */\n      revert\n        /* \"#utility.yul\":334:441   */\n    tag_87:\n        /* \"#utility.yul\":415:416   */\n      0x03\n        /* \"#utility.yul\":408:413   */\n      dup2\n        /* \"#utility.yul\":405:417   */\n      lt\n        /* \"#utility.yul\":395:435   */\n      tag_119\n      jumpi\n        /* \"#utility.yul\":431:432   */\n      0x00\n        /* \"#utility.yul\":428:429   */\n      dup1\n        /* \"#utility.yul\":421:433   */\n      revert\n        /* \"#utility.yul\":395:435   */\n    tag_119:\n        /* \"#utility.yul\":334:441   */\n      pop\n      jump\t// out\n        /* \"#utility.yul\":447:602   */\n    tag_88:\n        /* \"#utility.yul\":501:506   */\n      0x00\n        /* \"#utility.yul\":539:545   */\n      dup2\n        /* \"#utility.yul\":526:546   */\n      calldataload\n        /* \"#utility.yul\":517:546   */\n      swap1\n      pop\n        /* \"#utility.yul\":555:596   */\n      tag_121\n        /* \"#utility.yul\":590:595   */\n      dup2\n        /* \"#utility.yul\":555:596   */\n      tag_87\n      jump\t// in\n    tag_121:\n        /* \"#utility.yul\":447:602   */\n      swap3\n      swap2\n      pop\n      pop\n      jump\t// out\n        /* \"#utility.yul\":608:953   */\n    tag_11:\n        /* \"#utility.yul\":675:681   */\n      0x00\n        /* \"#utility.yul\":724:726   */\n      0x20\n        /* \"#utility.yul\":712:721   */\n      dup3\n        /* \"#utility.yul\":703:710   */\n      dup5\n        /* \"#utility.yul\":699:722   */\n      sub\n        /* \"#utility.yul\":695:727   */\n      slt\n        /* \"#utility.yul\":692:811   */\n      iszero\n      tag_123\n      jumpi\n        /* \"#utility.yul\":730:809   */\n      tag_124\n      tag_85\n      jump\t// in\n    tag_124:\n        /* \"#utility.yul\":692:811   */\n    tag_123:\n        /* \"#utility.yul\":850:851   */\n      0x00\n        /* \"#utility.yul\":875:936   */\n      tag_125\n        /* \"#utility.yul\":928:935   */\n      dup5\n        /* \"#utility.yul\":919:925   */\n      dup3\n        /* \"#utility.yul\":908:917   */\n      dup6\n        /* \"#utility.yul\":904:926   */\n      add\n        /* \"#utility.yul\":875:936   */\n      tag_88\n      jump\t// in\n    tag_125:\n        /* \"#utility.yul\":865:936   */\n      swap2\n      pop\n        /* \"#utility.yul\":821:946   */\n      pop\n        /* \"#utility.yul\":608:953   */\n      swap3\n      swap2\n      pop\n      pop\n      jump\t// out\n        /* \"#utility.yul\":959:1066   */\n    tag_89:\n        /* \"#utility.yul\":1040:1041   */\n      0x02\n        /* \"#utility.yul\":1033:1038   */\n      dup2\n        /* \"#utility.yul\":1030:1042   */\n      lt\n        /* \"#utility.yul\":1020:1060   */\n      tag_127\n      jumpi\n        /* \"#utility.yul\":1056:1057   */\n      0x00\n        /* \"#utility.yul\":1053:1054   */\n      dup1\n        /* \"#utility.yul\":1046:1058   */\n      revert\n        /* \"#utility.yul\":1020:1060   */\n    tag_127:\n        /* \"#utility.yul\":959:1066   */\n      pop\n      jump\t// out\n        /* \"#utility.yul\":1072:1227   */\n    tag_90:\n        /* \"#utility.yul\":1126:1131   */\n      0x00\n        /* \"#utility.yul\":1164:1170   */\n      dup2\n        /* \"#utility.yul\":1151:1171   */\n      calldataload\n        /* \"#utility.yul\":1142:1171   */\n      swap1\n      pop\n        /* \"#utility.yul\":1180:1221   */\n      tag_129\n        /* \"#utility.yul\":1215:1220   */\n      dup2\n        /* \"#utility.yul\":1180:1221   */\n      tag_89\n      jump\t// in\n    tag_129:\n        /* \"#utility.yul\":1072:1227   */\n      swap3\n      swap2\n      pop\n      pop\n      jump\t// out\n        /* \"#utility.yul\":1233:1578   */\n    tag_15:\n        /* \"#utility.yul\":1300:1306   */\n      0x00\n        /* \"#utility.yul\":1349:1351   */\n      0x20\n        /* \"#utility.yul\":1337:1346   */\n      dup3\n        /* \"#utility.yul\":1328:1335   */\n      dup5\n        /* \"#utility.yul\":1324:1347   */\n      sub\n        /* \"#utility.yul\":1320:1352   */\n      slt\n        /* \"#utility.yul\":1317:1436   */\n      iszero\n      tag_131\n      jumpi\n        /* \"#utility.yul\":1355:1434   */\n      tag_132\n      tag_85\n      jump\t// in\n    tag_132:\n        /* \"#utility.yul\":1317:1436   */\n    tag_131:\n        /* \"#utility.yul\":1475:1476   */\n      0x00\n        /* \"#utility.yul\":1500:1561   */\n      tag_133\n        /* \"#utility.yul\":1553:1560   */\n      dup5\n        /* \"#utility.yul\":1544:1550   */\n      dup3\n        /* \"#utility.yul\":1533:1542   */\n      dup6\n        /* \"#utility.yul\":1529:1551   */\n      add\n        /* \"#utility.yul\":1500:1561   */\n      tag_90\n      jump\t// in\n    tag_133:\n        /* \"#utility.yul\":1490:1561   */\n      swap2\n      pop\n        /* \"#utility.yul\":1446:1571   */\n      pop\n        /* \"#utility.yul\":1233:1578   */\n      swap3\n      swap2\n      pop\n      pop\n      jump\t// out\n        /* \"#utility.yul\":1584:1764   */\n    tag_20:\n        /* \"#utility.yul\":1632:1709   */\n      0x4e487b7100000000000000000000000000000000000000000000000000000000\n        /* \"#utility.yul\":1629:1630   */\n      0x00\n        /* \"#utility.yul\":1622:1710   */\n      mstore\n        /* \"#utility.yul\":1729:1733   */\n      0x21\n        /* \"#utility.yul\":1726:1727   */\n      0x04\n        /* \"#utility.yul\":1719:1734   */\n      mstore\n        /* \"#utility.yul\":1753:1757   */\n      0x24\n        /* \"#utility.yul\":1750:1751   */\n      0x00\n        /* \"#utility.yul\":1743:1758   */\n      revert\n        /* \"#utility.yul\":1770:1939   */\n    tag_91:\n        /* \"#utility.yul\":1854:1865   */\n      0x00\n        /* \"#utility.yul\":1888:1894   */\n      dup3\n        /* \"#utility.yul\":1883:1886   */\n      dup3\n        /* \"#utility.yul\":1876:1895   */\n      mstore\n        /* \"#utility.yul\":1928:1932   */\n      0x20\n        /* \"#utility.yul\":1923:1926   */\n      dup3\n        /* \"#utility.yul\":1919:1933   */\n      add\n        /* \"#utility.yul\":1904:1933   */\n      swap1\n      pop\n        /* \"#utility.yul\":1770:1939   */\n      swap3\n      swap2\n      pop\n      pop\n      jump\t// out\n        /* \"#utility.yul\":1945:2117   */\n    tag_92:\n        /* \"#utility.yul\":2085:2109   */\n      0x596f7520417265204e6f74205468652057696e6e657200000000000000000000\n        /* \"#utility.yul\":2081:2082   */\n      0x00\n        /* \"#utility.yul\":2073:2079   */\n      dup3\n        /* \"#utility.yul\":2069:2083   */\n      add\n        /* \"#utility.yul\":2062:2110   */\n      mstore\n        /* \"#utility.yul\":1945:2117   */\n      pop\n      jump\t// out\n        /* \"#utility.yul\":2123:2489   */\n    tag_93:\n        /* \"#utility.yul\":2265:2268   */\n      0x00\n        /* \"#utility.yul\":2286:2353   */\n      tag_138\n        /* \"#utility.yul\":2350:2352   */\n      0x16\n        /* \"#utility.yul\":2345:2348   */\n      dup4\n        /* \"#utility.yul\":2286:2353   */\n      tag_91\n      jump\t// in\n    tag_138:\n        /* \"#utility.yul\":2279:2353   */\n      swap2\n      pop\n        /* \"#utility.yul\":2362:2455   */\n      tag_139\n        /* \"#utility.yul\":2451:2454   */\n      dup3\n        /* \"#utility.yul\":2362:2455   */\n      tag_92\n      jump\t// in\n    tag_139:\n        /* \"#utility.yul\":2480:2482   */\n      0x20\n        /* \"#utility.yul\":2475:2478   */\n      dup3\n        /* \"#utility.yul\":2471:2483   */\n      add\n        /* \"#utility.yul\":2464:2483   */\n      swap1\n      pop\n        /* \"#utility.yul\":2123:2489   */\n      swap2\n      swap1\n      pop\n      jump\t// out\n        /* \"#utility.yul\":2495:2914   */\n    tag_25:\n        /* \"#utility.yul\":2661:2665   */\n      0x00\n        /* \"#utility.yul\":2699:2701   */\n      0x20\n        /* \"#utility.yul\":2688:2697   */\n      dup3\n        /* \"#utility.yul\":2684:2702   */\n      add\n        /* \"#utility.yul\":2676:2702   */\n      swap1\n      pop\n        /* \"#utility.yul\":2748:2757   */\n      dup2\n        /* \"#utility.yul\":2742:2746   */\n      dup2\n        /* \"#utility.yul\":2738:2758   */\n      sub\n        /* \"#utility.yul\":2734:2735   */\n      0x00\n        /* \"#utility.yul\":2723:2732   */\n      dup4\n        /* \"#utility.yul\":2719:2736   */\n      add\n        /* \"#utility.yul\":2712:2759   */\n      mstore\n        /* \"#utility.yul\":2776:2907   */\n      tag_141\n        /* \"#utility.yul\":2902:2906   */\n      dup2\n        /* \"#utility.yul\":2776:2907   */\n      tag_93\n      jump\t// in\n    tag_141:\n        /* \"#utility.yul\":2768:2907   */\n      swap1\n      pop\n        /* \"#utility.yul\":2495:2914   */\n      swap2\n      swap1\n      pop\n      jump\t// out\n        /* \"#utility.yul\":2920:3046   */\n    tag_94:\n        /* \"#utility.yul\":2957:2964   */\n      0x00\n        /* \"#utility.yul\":2997:3039   */\n      0xffffffffffffffffffffffffffffffffffffffff\n        /* \"#utility.yul\":2990:2995   */\n      dup3\n        /* \"#utility.yul\":2986:3040   */\n      and\n        /* \"#utility.yul\":2975:3040   */\n      swap1\n      pop\n        /* \"#utility.yul\":2920:3046   */\n      swap2\n      swap1\n      pop\n      jump\t// out\n        /* \"#utility.yul\":3052:3148   */\n    tag_95:\n        /* \"#utility.yul\":3089:3096   */\n      0x00\n        /* \"#utility.yul\":3118:3142   */\n      tag_144\n        /* \"#utility.yul\":3136:3141   */\n      dup3\n        /* \"#utility.yul\":3118:3142   */\n      tag_94\n      jump\t// in\n    tag_144:\n        /* \"#utility.yul\":3107:3142   */\n      swap1\n      pop\n        /* \"#utility.yul\":3052:3148   */\n      swap2\n      swap1\n      pop\n      jump\t// out\n        /* \"#utility.yul\":3154:3272   */\n    tag_96:\n        /* \"#utility.yul\":3241:3265   */\n      tag_146\n        /* \"#utility.yul\":3259:3264   */\n      dup2\n        /* \"#utility.yul\":3241:3265   */\n      tag_95\n      jump\t// in\n    tag_146:\n        /* \"#utility.yul\":3236:3239   */\n      dup3\n        /* \"#utility.yul\":3229:3266   */\n      mstore\n        /* \"#utility.yul\":3154:3272   */\n      pop\n      pop\n      jump\t// out\n        /* \"#utility.yul\":3278:3355   */\n    tag_97:\n        /* \"#utility.yul\":3315:3322   */\n      0x00\n        /* \"#utility.yul\":3344:3349   */\n      dup2\n        /* \"#utility.yul\":3333:3349   */\n      swap1\n      pop\n        /* \"#utility.yul\":3278:3355   */\n      swap2\n      swap1\n      pop\n      jump\t// out\n        /* \"#utility.yul\":3361:3479   */\n    tag_98:\n        /* \"#utility.yul\":3448:3472   */\n      tag_149\n        /* \"#utility.yul\":3466:3471   */\n      dup2\n        /* \"#utility.yul\":3448:3472   */\n      tag_97\n      jump\t// in\n    tag_149:\n        /* \"#utility.yul\":3443:3446   */\n      dup3\n        /* \"#utility.yul\":3436:3473   */\n      mstore\n        /* \"#utility.yul\":3361:3479   */\n      pop\n      pop\n      jump\t// out\n        /* \"#utility.yul\":3485:3927   */\n    tag_29:\n        /* \"#utility.yul\":3634:3638   */\n      0x00\n        /* \"#utility.yul\":3672:3674   */\n      0x60\n        /* \"#utility.yul\":3661:3670   */\n      dup3\n        /* \"#utility.yul\":3657:3675   */\n      add\n        /* \"#utility.yul\":3649:3675   */\n      swap1\n      pop\n        /* \"#utility.yul\":3685:3756   */\n      tag_151\n        /* \"#utility.yul\":3753:3754   */\n      0x00\n        /* \"#utility.yul\":3742:3751   */\n      dup4\n        /* \"#utility.yul\":3738:3755   */\n      add\n        /* \"#utility.yul\":3729:3735   */\n      dup7\n        /* \"#utility.yul\":3685:3756   */\n      tag_96\n      jump\t// in\n    tag_151:\n        /* \"#utility.yul\":3766:3838   */\n      tag_152\n        /* \"#utility.yul\":3834:3836   */\n      0x20\n        /* \"#utility.yul\":3823:3832   */\n      dup4\n        /* \"#utility.yul\":3819:3837   */\n      add\n        /* \"#utility.yul\":3810:3816   */\n      dup6\n        /* \"#utility.yul\":3766:3838   */\n      tag_98\n      jump\t// in\n    tag_152:\n        /* \"#utility.yul\":3848:3920   */\n      tag_153\n        /* \"#utility.yul\":3916:3918   */\n      0x40\n        /* \"#utility.yul\":3905:3914   */\n      dup4\n        /* \"#utility.yul\":3901:3919   */\n      add\n        /* \"#utility.yul\":3892:3898   */\n      dup5\n        /* \"#utility.yul\":3848:3920   */\n      tag_98\n      jump\t// in\n    tag_153:\n        /* \"#utility.yul\":3485:3927   */\n      swap5\n      swap4\n      pop\n      pop\n      pop\n      pop\n      jump\t// out\n        /* \"#utility.yul\":3933:4161   */\n    tag_99:\n        /* \"#utility.yul\":4073:4107   */\n      0x4f6e6c79204f776e657220697320616c6c6f77656420746f204368616e676520\n        /* \"#utility.yul\":4069:4070   */\n      0x00\n        /* \"#utility.yul\":4061:4067   */\n      dup3\n        /* \"#utility.yul\":4057:4071   */\n      add\n        /* \"#utility.yul\":4050:4108   */\n      mstore\n        /* \"#utility.yul\":4142:4153   */\n      0x7468652073746174650000000000000000000000000000000000000000000000\n        /* \"#utility.yul\":4137:4139   */\n      0x20\n        /* \"#utility.yul\":4129:4135   */\n      dup3\n        /* \"#utility.yul\":4125:4140   */\n      add\n        /* \"#utility.yul\":4118:4154   */\n      mstore\n        /* \"#utility.yul\":3933:4161   */\n      pop\n      jump\t// out\n        /* \"#utility.yul\":4167:4533   */\n    tag_100:\n        /* \"#utility.yul\":4309:4312   */\n      0x00\n        /* \"#utility.yul\":4330:4397   */\n      tag_156\n        /* \"#utility.yul\":4394:4396   */\n      0x29\n        /* \"#utility.yul\":4389:4392   */\n      dup4\n        /* \"#utility.yul\":4330:4397   */\n      tag_91\n      jump\t// in\n    tag_156:\n        /* \"#utility.yul\":4323:4397   */\n      swap2\n      pop\n        /* \"#utility.yul\":4406:4499   */\n      tag_157\n        /* \"#utility.yul\":4495:4498   */\n      dup3\n        /* \"#utility.yul\":4406:4499   */\n      tag_99\n      jump\t// in\n    tag_157:\n        /* \"#utility.yul\":4524:4526   */\n      0x40\n        /* \"#utility.yul\":4519:4522   */\n      dup3\n        /* \"#utility.yul\":4515:4527   */\n      add\n        /* \"#utility.yul\":4508:4527   */\n      swap1\n      pop\n        /* \"#utility.yul\":4167:4533   */\n      swap2\n      swap1\n      pop\n      jump\t// out\n        /* \"#utility.yul\":4539:4958   */\n    tag_33:\n        /* \"#utility.yul\":4705:4709   */\n      0x00\n        /* \"#utility.yul\":4743:4745   */\n      0x20\n        /* \"#utility.yul\":4732:4741   */\n      dup3\n        /* \"#utility.yul\":4728:4746   */\n      add\n        /* \"#utility.yul\":4720:4746   */\n      swap1\n      pop\n        /* \"#utility.yul\":4792:4801   */\n      dup2\n        /* \"#utility.yul\":4786:4790   */\n      dup2\n        /* \"#utility.yul\":4782:4802   */\n      sub\n        /* \"#utility.yul\":4778:4779   */\n      0x00\n        /* \"#utility.yul\":4767:4776   */\n      dup4\n        /* \"#utility.yul\":4763:4780   */\n      add\n        /* \"#utility.yul\":4756:4803   */\n      mstore\n        /* \"#utility.yul\":4820:4951   */\n      tag_159\n        /* \"#utility.yul\":4946:4950   */\n      dup2\n        /* \"#utility.yul\":4820:4951   */\n      tag_100\n      jump\t// in\n    tag_159:\n        /* \"#utility.yul\":4812:4951   */\n      swap1\n      pop\n        /* \"#utility.yul\":4539:4958   */\n      swap2\n      swap1\n      pop\n      jump\t// out\n        /* \"#utility.yul\":4964:5141   */\n    tag_101:\n        /* \"#utility.yul\":5104:5133   */\n      0x53656c656374656420616e20756e646566696e65642053746174650000000000\n        /* \"#utility.yul\":5100:5101   */\n      0x00\n        /* \"#utility.yul\":5092:5098   */\n      dup3\n        /* \"#utility.yul\":5088:5102   */\n      add\n        /* \"#utility.yul\":5081:5134   */\n      mstore\n        /* \"#utility.yul\":4964:5141   */\n      pop\n      jump\t// out\n        /* \"#utility.yul\":5147:5513   */\n    tag_102:\n        /* \"#utility.yul\":5289:5292   */\n      0x00\n        /* \"#utility.yul\":5310:5377   */\n      tag_162\n        /* \"#utility.yul\":5374:5376   */\n      0x1b\n        /* \"#utility.yul\":5369:5372   */\n      dup4\n        /* \"#utility.yul\":5310:5377   */\n      tag_91\n      jump\t// in\n    tag_162:\n        /* \"#utility.yul\":5303:5377   */\n      swap2\n      pop\n        /* \"#utility.yul\":5386:5479   */\n      tag_163\n        /* \"#utility.yul\":5475:5478   */\n      dup3\n        /* \"#utility.yul\":5386:5479   */\n      tag_101\n      jump\t// in\n    tag_163:\n        /* \"#utility.yul\":5504:5506   */\n      0x20\n        /* \"#utility.yul\":5499:5502   */\n      dup3\n        /* \"#utility.yul\":5495:5507   */\n      add\n        /* \"#utility.yul\":5488:5507   */\n      swap1\n      pop\n        /* \"#utility.yul\":5147:5513   */\n      swap2\n      swap1\n      pop\n      jump\t// out\n        /* \"#utility.yul\":5519:5938   */\n    tag_50:\n        /* \"#utility.yul\":5685:5689   */\n      0x00\n        /* \"#utility.yul\":5723:5725   */\n      0x20\n        /* \"#utility.yul\":5712:5721   */\n      dup3\n        /* \"#utility.yul\":5708:5726   */\n      add\n        /* \"#utility.yul\":5700:5726   */\n      swap1\n      pop\n        /* \"#utility.yul\":5772:5781   */\n      dup2\n        /* \"#utility.yul\":5766:5770   */\n      dup2\n        /* \"#utility.yul\":5762:5782   */\n      sub\n        /* \"#utility.yul\":5758:5759   */\n      0x00\n        /* \"#utility.yul\":5747:5756   */\n      dup4\n        /* \"#utility.yul\":5743:5760   */\n      add\n        /* \"#utility.yul\":5736:5783   */\n      mstore\n        /* \"#utility.yul\":5800:5931   */\n      tag_165\n        /* \"#utility.yul\":5926:5930   */\n      dup2\n        /* \"#utility.yul\":5800:5931   */\n      tag_102\n      jump\t// in\n    tag_165:\n        /* \"#utility.yul\":5792:5931   */\n      swap1\n      pop\n        /* \"#utility.yul\":5519:5938   */\n      swap2\n      swap1\n      pop\n      jump\t// out\n        /* \"#utility.yul\":5944:6111   */\n    tag_103:\n        /* \"#utility.yul\":6084:6103   */\n      0x42617474696e6720697320436c6f736564000000000000000000000000000000\n        /* \"#utility.yul\":6080:6081   */\n      0x00\n        /* \"#utility.yul\":6072:6078   */\n      dup3\n        /* \"#utility.yul\":6068:6082   */\n      add\n        /* \"#utility.yul\":6061:6104   */\n      mstore\n        /* \"#utility.yul\":5944:6111   */\n      pop\n      jump\t// out\n        /* \"#utility.yul\":6117:6483   */\n    tag_104:\n        /* \"#utility.yul\":6259:6262   */\n      0x00\n        /* \"#utility.yul\":6280:6347   */\n      tag_168\n        /* \"#utility.yul\":6344:6346   */\n      0x11\n        /* \"#utility.yul\":6339:6342   */\n      dup4\n        /* \"#utility.yul\":6280:6347   */\n      tag_91\n      jump\t// in\n    tag_168:\n        /* \"#utility.yul\":6273:6347   */\n      swap2\n      pop\n        /* \"#utility.yul\":6356:6449   */\n      tag_169\n        /* \"#utility.yul\":6445:6448   */\n      dup3\n        /* \"#utility.yul\":6356:6449   */\n      tag_103\n      jump\t// in\n    tag_169:\n        /* \"#utility.yul\":6474:6476   */\n      0x20\n        /* \"#utility.yul\":6469:6472   */\n      dup3\n        /* \"#utility.yul\":6465:6477   */\n      add\n        /* \"#utility.yul\":6458:6477   */\n      swap1\n      pop\n        /* \"#utility.yul\":6117:6483   */\n      swap2\n      swap1\n      pop\n      jump\t// out\n        /* \"#utility.yul\":6489:6908   */\n    tag_60:\n        /* \"#utility.yul\":6655:6659   */\n      0x00\n        /* \"#utility.yul\":6693:6695   */\n      0x20\n        /* \"#utility.yul\":6682:6691   */\n      dup3\n        /* \"#utility.yul\":6678:6696   */\n      add\n        /* \"#utility.yul\":6670:6696   */\n      swap1\n      pop\n        /* \"#utility.yul\":6742:6751   */\n      dup2\n        /* \"#utility.yul\":6736:6740   */\n      dup2\n        /* \"#utility.yul\":6732:6752   */\n      sub\n        /* \"#utility.yul\":6728:6729   */\n      0x00\n        /* \"#utility.yul\":6717:6726   */\n      dup4\n        /* \"#utility.yul\":6713:6730   */\n      add\n        /* \"#utility.yul\":6706:6753   */\n      mstore\n        /* \"#utility.yul\":6770:6901   */\n      tag_171\n        /* \"#utility.yul\":6896:6900   */\n      dup2\n        /* \"#utility.yul\":6770:6901   */\n      tag_104\n      jump\t// in\n    tag_171:\n        /* \"#utility.yul\":6762:6901   */\n      swap1\n      pop\n        /* \"#utility.yul\":6489:6908   */\n      swap2\n      swap1\n      pop\n      jump\t// out\n        /* \"#utility.yul\":6914:7090   */\n    tag_105:\n        /* \"#utility.yul\":7054:7082   */\n      0x53656c656374656420616e20556e646566696e6564205465616d000000000000\n        /* \"#utility.yul\":7050:7051   */\n      0x00\n        /* \"#utility.yul\":7042:7048   */\n      dup3\n        /* \"#utility.yul\":7038:7052   */\n      add\n        /* \"#utility.yul\":7031:7083   */\n      mstore\n        /* \"#utility.yul\":6914:7090   */\n      pop\n      jump\t// out\n        /* \"#utility.yul\":7096:7462   */\n    tag_106:\n        /* \"#utility.yul\":7238:7241   */\n      0x00\n        /* \"#utility.yul\":7259:7326   */\n      tag_174\n        /* \"#utility.yul\":7323:7325   */\n      0x1a\n        /* \"#utility.yul\":7318:7321   */\n      dup4\n        /* \"#utility.yul\":7259:7326   */\n      tag_91\n      jump\t// in\n    tag_174:\n        /* \"#utility.yul\":7252:7326   */\n      swap2\n      pop\n        /* \"#utility.yul\":7335:7428   */\n      tag_175\n        /* \"#utility.yul\":7424:7427   */\n      dup3\n        /* \"#utility.yul\":7335:7428   */\n      tag_105\n      jump\t// in\n    tag_175:\n        /* \"#utility.yul\":7453:7455   */\n      0x20\n        /* \"#utility.yul\":7448:7451   */\n      dup3\n        /* \"#utility.yul\":7444:7456   */\n      add\n        /* \"#utility.yul\":7437:7456   */\n      swap1\n      pop\n        /* \"#utility.yul\":7096:7462   */\n      swap2\n      swap1\n      pop\n      jump\t// out\n        /* \"#utility.yul\":7468:7887   */\n    tag_72:\n        /* \"#utility.yul\":7634:7638   */\n      0x00\n        /* \"#utility.yul\":7672:7674   */\n      0x20\n        /* \"#utility.yul\":7661:7670   */\n      dup3\n        /* \"#utility.yul\":7657:7675   */\n      add\n        /* \"#utility.yul\":7649:7675   */\n      swap1\n      pop\n        /* \"#utility.yul\":7721:7730   */\n      dup2\n        /* \"#utility.yul\":7715:7719   */\n      dup2\n        /* \"#utility.yul\":7711:7731   */\n      sub\n        /* \"#utility.yul\":7707:7708   */\n      0x00\n        /* \"#utility.yul\":7696:7705   */\n      dup4\n        /* \"#utility.yul\":7692:7709   */\n      add\n        /* \"#utility.yul\":7685:7732   */\n      mstore\n        /* \"#utility.yul\":7749:7880   */\n      tag_177\n        /* \"#utility.yul\":7875:7879   */\n      dup2\n        /* \"#utility.yul\":7749:7880   */\n      tag_106\n      jump\t// in\n    tag_177:\n        /* \"#utility.yul\":7741:7880   */\n      swap1\n      pop\n        /* \"#utility.yul\":7468:7887   */\n      swap2\n      swap1\n      pop\n      jump\t// out\n        /* \"#utility.yul\":7893:8114   */\n    tag_107:\n        /* \"#utility.yul\":8033:8067   */\n      0x736f72727920204f776e6572206973206e6f7420616c6c6f77656420746f2062\n        /* \"#utility.yul\":8029:8030   */\n      0x00\n        /* \"#utility.yul\":8021:8027   */\n      dup3\n        /* \"#utility.yul\":8017:8031   */\n      add\n        /* \"#utility.yul\":8010:8068   */\n      mstore\n        /* \"#utility.yul\":8102:8106   */\n      0x6574000000000000000000000000000000000000000000000000000000000000\n        /* \"#utility.yul\":8097:8099   */\n      0x20\n        /* \"#utility.yul\":8089:8095   */\n      dup3\n        /* \"#utility.yul\":8085:8100   */\n      add\n        /* \"#utility.yul\":8078:8107   */\n      mstore\n        /* \"#utility.yul\":7893:8114   */\n      pop\n      jump\t// out\n        /* \"#utility.yul\":8120:8486   */\n    tag_108:\n        /* \"#utility.yul\":8262:8265   */\n      0x00\n        /* \"#utility.yul\":8283:8350   */\n      tag_180\n        /* \"#utility.yul\":8347:8349   */\n      0x22\n        /* \"#utility.yul\":8342:8345   */\n      dup4\n        /* \"#utility.yul\":8283:8350   */\n      tag_91\n      jump\t// in\n    tag_180:\n        /* \"#utility.yul\":8276:8350   */\n      swap2\n      pop\n        /* \"#utility.yul\":8359:8452   */\n      tag_181\n        /* \"#utility.yul\":8448:8451   */\n      dup3\n        /* \"#utility.yul\":8359:8452   */\n      tag_107\n      jump\t// in\n    tag_181:\n        /* \"#utility.yul\":8477:8479   */\n      0x40\n        /* \"#utility.yul\":8472:8475   */\n      dup3\n        /* \"#utility.yul\":8468:8480   */\n      add\n        /* \"#utility.yul\":8461:8480   */\n      swap1\n      pop\n        /* \"#utility.yul\":8120:8486   */\n      swap2\n      swap1\n      pop\n      jump\t// out\n        /* \"#utility.yul\":8492:8911   */\n    tag_75:\n        /* \"#utility.yul\":8658:8662   */\n      0x00\n        /* \"#utility.yul\":8696:8698   */\n      0x20\n        /* \"#utility.yul\":8685:8694   */\n      dup3\n        /* \"#utility.yul\":8681:8699   */\n      add\n        /* \"#utility.yul\":8673:8699   */\n      swap1\n      pop\n        /* \"#utility.yul\":8745:8754   */\n      dup2\n        /* \"#utility.yul\":8739:8743   */\n      dup2\n        /* \"#utility.yul\":8735:8755   */\n      sub\n        /* \"#utility.yul\":8731:8732   */\n      0x00\n        /* \"#utility.yul\":8720:8729   */\n      dup4\n        /* \"#utility.yul\":8716:8733   */\n      add\n        /* \"#utility.yul\":8709:8756   */\n      mstore\n        /* \"#utility.yul\":8773:8904   */\n      tag_183\n        /* \"#utility.yul\":8899:8903   */\n      dup2\n        /* \"#utility.yul\":8773:8904   */\n      tag_108\n      jump\t// in\n    tag_183:\n        /* \"#utility.yul\":8765:8904   */\n      swap1\n      pop\n        /* \"#utility.yul\":8492:8911   */\n      swap2\n      swap1\n      pop\n      jump\t// out\n        /* \"#utility.yul\":8917:9097   */\n    tag_109:\n        /* \"#utility.yul\":8965:9042   */\n      0x4e487b7100000000000000000000000000000000000000000000000000000000\n        /* \"#utility.yul\":8962:8963   */\n      0x00\n        /* \"#utility.yul\":8955:9043   */\n      mstore\n        /* \"#utility.yul\":9062:9066   */\n      0x11\n        /* \"#utility.yul\":9059:9060   */\n      0x04\n        /* \"#utility.yul\":9052:9067   */\n      mstore\n        /* \"#utility.yul\":9086:9090   */\n      0x24\n        /* \"#utility.yul\":9083:9084   */\n      0x00\n        /* \"#utility.yul\":9076:9091   */\n      revert\n        /* \"#utility.yul\":9103:9294   */\n    tag_77:\n        /* \"#utility.yul\":9143:9146   */\n      0x00\n        /* \"#utility.yul\":9162:9182   */\n      tag_186\n        /* \"#utility.yul\":9180:9181   */\n      dup3\n        /* \"#utility.yul\":9162:9182   */\n      tag_97\n      jump\t// in\n    tag_186:\n        /* \"#utility.yul\":9157:9182   */\n      swap2\n      pop\n        /* \"#utility.yul\":9196:9216   */\n      tag_187\n        /* \"#utility.yul\":9214:9215   */\n      dup4\n        /* \"#utility.yul\":9196:9216   */\n      tag_97\n      jump\t// in\n    tag_187:\n        /* \"#utility.yul\":9191:9216   */\n      swap3\n      pop\n        /* \"#utility.yul\":9239:9240   */\n      dup3\n        /* \"#utility.yul\":9236:9237   */\n      dup3\n        /* \"#utility.yul\":9232:9241   */\n      add\n        /* \"#utility.yul\":9225:9241   */\n      swap1\n      pop\n        /* \"#utility.yul\":9260:9263   */\n      dup1\n        /* \"#utility.yul\":9257:9258   */\n      dup3\n        /* \"#utility.yul\":9254:9264   */\n      gt\n        /* \"#utility.yul\":9251:9287   */\n      iszero\n      tag_188\n      jumpi\n        /* \"#utility.yul\":9267:9285   */\n      tag_189\n      tag_109\n      jump\t// in\n    tag_189:\n        /* \"#utility.yul\":9251:9287   */\n    tag_188:\n        /* \"#utility.yul\":9103:9294   */\n      swap3\n      swap2\n      pop\n      pop\n      jump\t// out\n        /* \"#utility.yul\":9300:9413   */\n    tag_110:\n        /* \"#utility.yul\":9381:9382   */\n      0x02\n        /* \"#utility.yul\":9374:9379   */\n      dup2\n        /* \"#utility.yul\":9371:9383   */\n      lt\n        /* \"#utility.yul\":9361:9407   */\n      tag_191\n      jumpi\n        /* \"#utility.yul\":9387:9405   */\n      tag_192\n      tag_20\n      jump\t// in\n    tag_192:\n        /* \"#utility.yul\":9361:9407   */\n    tag_191:\n        /* \"#utility.yul\":9300:9413   */\n      pop\n      jump\t// out\n        /* \"#utility.yul\":9419:9546   */\n    tag_111:\n        /* \"#utility.yul\":9464:9471   */\n      0x00\n        /* \"#utility.yul\":9493:9498   */\n      dup2\n        /* \"#utility.yul\":9482:9498   */\n      swap1\n      pop\n        /* \"#utility.yul\":9499:9540   */\n      tag_194\n        /* \"#utility.yul\":9534:9539   */\n      dup3\n        /* \"#utility.yul\":9499:9540   */\n      tag_110\n      jump\t// in\n    tag_194:\n        /* \"#utility.yul\":9419:9546   */\n      swap2\n      swap1\n      pop\n      jump\t// out\n        /* \"#utility.yul\":9552:9679   */\n    tag_112:\n        /* \"#utility.yul\":9608:9617   */\n      0x00\n        /* \"#utility.yul\":9641:9673   */\n      tag_196\n        /* \"#utility.yul\":9667:9672   */\n      dup3\n        /* \"#utility.yul\":9641:9673   */\n      tag_111\n      jump\t// in\n    tag_196:\n        /* \"#utility.yul\":9628:9673   */\n      swap1\n      pop\n        /* \"#utility.yul\":9552:9679   */\n      swap2\n      swap1\n      pop\n      jump\t// out\n        /* \"#utility.yul\":9685:9828   */\n    tag_113:\n        /* \"#utility.yul\":9778:9821   */\n      tag_198\n        /* \"#utility.yul\":9815:9820   */\n      dup2\n        /* \"#utility.yul\":9778:9821   */\n      tag_112\n      jump\t// in\n    tag_198:\n        /* \"#utility.yul\":9773:9776   */\n      dup3\n        /* \"#utility.yul\":9766:9822   */\n      mstore\n        /* \"#utility.yul\":9685:9828   */\n      pop\n      pop\n      jump\t// out\n        /* \"#utility.yul\":9834:10288   */\n    tag_83:\n        /* \"#utility.yul\":9989:9993   */\n      0x00\n        /* \"#utility.yul\":10027:10029   */\n      0x60\n        /* \"#utility.yul\":10016:10025   */\n      dup3\n        /* \"#utility.yul\":10012:10030   */\n      add\n        /* \"#utility.yul\":10004:10030   */\n      swap1\n      pop\n        /* \"#utility.yul\":10040:10111   */\n      tag_200\n        /* \"#utility.yul\":10108:10109   */\n      0x00\n        /* \"#utility.yul\":10097:10106   */\n      dup4\n        /* \"#utility.yul\":10093:10110   */\n      add\n        /* \"#utility.yul\":10084:10090   */\n      dup7\n        /* \"#utility.yul\":10040:10111   */\n      tag_96\n      jump\t// in\n    tag_200:\n        /* \"#utility.yul\":10121:10193   */\n      tag_201\n        /* \"#utility.yul\":10189:10191   */\n      0x20\n        /* \"#utility.yul\":10178:10187   */\n      dup4\n        /* \"#utility.yul\":10174:10192   */\n      add\n        /* \"#utility.yul\":10165:10171   */\n      dup6\n        /* \"#utility.yul\":10121:10193   */\n      tag_98\n      jump\t// in\n    tag_201:\n        /* \"#utility.yul\":10203:10281   */\n      tag_202\n        /* \"#utility.yul\":10277:10279   */\n      0x40\n        /* \"#utility.yul\":10266:10275   */\n      dup4\n        /* \"#utility.yul\":10262:10280   */\n      add\n        /* \"#utility.yul\":10253:10259   */\n      dup5\n        /* \"#utility.yul\":10203:10281   */\n      tag_113\n      jump\t// in\n    tag_202:\n        /* \"#utility.yul\":9834:10288   */\n      swap5\n      swap4\n      pop\n      pop\n      pop\n      pop\n      jump\t// out\n\n    auxdata: 0xa264697066735822122033e4079f5a304c6685d466911e81e73a878f6a5e0af33457bc6ce72efa742bd764736f6c634300081a0033\n}\n",
				"bytecode": {
					"linkReferences": {},
					"object": "6080604052348015600e575f80fd5b50335f806101000a81548173ffffffffffffffffffffffffffffffffffffffff021916908373ffffffffffffffffffffffffffffffffffffffff160217905550610baf8061005b5f395ff3fe608060405260043610610033575f3560e01c806357ea89b61461003757806377de07931461004d578063c12cbab914610075575b5f80fd5b348015610042575f80fd5b5061004b610091565b005b348015610058575f80fd5b50610073600480360381019061006e91906106a0565b610242565b005b61008f600480360381019061008a91906106ee565b6103be565b005b6001808111156100a4576100a3610719565b5b60015f3373ffffffffffffffffffffffffffffffffffffffff1673ffffffffffffffffffffffffffffffffffffffff1681526020019081526020015f206001015f9054906101000a900460ff16600181111561010357610102610719565b5b14610143576040517f08c379a000000000000000000000000000000000000000000000000000000000815260040161013a906107a0565b60405180910390fd5b3373ffffffffffffffffffffffffffffffffffffffff166108fc60015f3373ffffffffffffffffffffffffffffffffffffffff1673ffffffffffffffffffffffffffffffffffffffff1681526020019081526020015f205f015490811502906040515f60405180830381858888f193505050501580156101c5573d5f803e3d5ffd5b507fe7bb22312ce495e87cf54bba523f51e4023abc2e938614d165e757c6263fbc853360015f3373ffffffffffffffffffffffffffffffffffffffff1673ffffffffffffffffffffffffffffffffffffffff1681526020019081526020015f205f01544260405161023893929190610815565b60405180910390a1565b5f8054906101000a900473ffffffffffffffffffffffffffffffffffffffff1673ffffffffffffffffffffffffffffffffffffffff163373ffffffffffffffffffffffffffffffffffffffff16146102cf576040517f08c379a00000000000000000000000000000000000000000000000000000000081526004016102c6906108ba565b60405180910390fd5b600160028111156102e3576102e2610719565b5b8160028111156102f6576102f5610719565b5b148061032557505f60028111156103105761030f610719565b5b81600281111561032357610322610719565b5b145b80610353575060028081111561033e5761033d610719565b5b81600281111561035157610350610719565b5b145b610392576040517f08c379a000000000000000000000000000000000000000000000000000000000815260040161038990610922565b60405180910390fd5b805f60146101000a81548160ff021916908360028111156103b6576103b5610719565b5b021790555050565b5f60028111156103d1576103d0610719565b5b5f60149054906101000a900460ff1660028111156103f2576103f1610719565b5b14610432576040517f08c379a00000000000000000000000000000000000000000000000000000000081526004016104299061098a565b60405180910390fd5b5f600181111561044557610444610719565b5b81600181111561045857610457610719565b5b1480610487575060018081111561047257610471610719565b5b81600181111561048557610484610719565b5b145b6104c6576040517f08c379a00000000000000000000000000000000000000000000000000000000081526004016104bd906109f2565b60405180910390fd5b5f8054906101000a900473ffffffffffffffffffffffffffffffffffffffff1673ffffffffffffffffffffffffffffffffffffffff163373ffffffffffffffffffffffffffffffffffffffff1603610553576040517f08c379a000000000000000000000000000000000000000000000000000000000815260040161054a90610a80565b60405180910390fd5b60405180604001604052803460015f3373ffffffffffffffffffffffffffffffffffffffff1673ffffffffffffffffffffffffffffffffffffffff1681526020019081526020015f205f01546105a99190610acb565b81526020018260018111156105c1576105c0610719565b5b81525060015f3373ffffffffffffffffffffffffffffffffffffffff1673ffffffffffffffffffffffffffffffffffffffff1681526020019081526020015f205f820151815f01556020820151816001015f6101000a81548160ff0219169083600181111561063357610632610719565b5b02179055509050507f15c19fc5e97afeb9df79f9df2c5080df454d207832aceba0a14f57b71f70d80033348360405161066e93929190610b44565b60405180910390a150565b5f80fd5b60038110610689575f80fd5b50565b5f8135905061069a8161067d565b92915050565b5f602082840312156106b5576106b4610679565b5b5f6106c28482850161068c565b91505092915050565b600281106106d7575f80fd5b50565b5f813590506106e8816106cb565b92915050565b5f6020828403121561070357610702610679565b5b5f610710848285016106da565b91505092915050565b7f4e487b71000000000000000000000000000000000000000000000000000000005f52602160045260245ffd5b5f82825260208201905092915050565b7f596f7520417265204e6f74205468652057696e6e6572000000000000000000005f82015250565b5f61078a601683610746565b915061079582610756565b602082019050919050565b5f6020820190508181035f8301526107b78161077e565b9050919050565b5f73ffffffffffffffffffffffffffffffffffffffff82169050919050565b5f6107e7826107be565b9050919050565b6107f7816107dd565b82525050565b5f819050919050565b61080f816107fd565b82525050565b5f6060820190506108285f8301866107ee565b6108356020830185610806565b6108426040830184610806565b949350505050565b7f4f6e6c79204f776e657220697320616c6c6f77656420746f204368616e6765205f8201527f7468652073746174650000000000000000000000000000000000000000000000602082015250565b5f6108a4602983610746565b91506108af8261084a565b604082019050919050565b5f6020820190508181035f8301526108d181610898565b9050919050565b7f53656c656374656420616e20756e646566696e656420537461746500000000005f82015250565b5f61090c601b83610746565b9150610917826108d8565b602082019050919050565b5f6020820190508181035f83015261093981610900565b9050919050565b7f42617474696e6720697320436c6f7365640000000000000000000000000000005f82015250565b5f610974601183610746565b915061097f82610940565b602082019050919050565b5f6020820190508181035f8301526109a181610968565b9050919050565b7f53656c656374656420616e20556e646566696e6564205465616d0000000000005f82015250565b5f6109dc601a83610746565b91506109e7826109a8565b602082019050919050565b5f6020820190508181035f830152610a09816109d0565b9050919050565b7f736f72727920204f776e6572206973206e6f7420616c6c6f77656420746f20625f8201527f6574000000000000000000000000000000000000000000000000000000000000602082015250565b5f610a6a602283610746565b9150610a7582610a10565b604082019050919050565b5f6020820190508181035f830152610a9781610a5e565b9050919050565b7f4e487b71000000000000000000000000000000000000000000000000000000005f52601160045260245ffd5b5f610ad5826107fd565b9150610ae0836107fd565b9250828201905080821115610af857610af7610a9e565b5b92915050565b60028110610b0f57610b0e610719565b5b50565b5f819050610b1f82610afe565b919050565b5f610b2e82610b12565b9050919050565b610b3e81610b24565b82525050565b5f606082019050610b575f8301866107ee565b610b646020830185610806565b610b716040830184610b35565b94935050505056fea264697066735822122033e4079f5a304c6685d466911e81e73a878f6a5e0af33457bc6ce72efa742bd764736f6c634300081a0033",
					"opcodes": "PUSH1 0x80 PUSH1 0x40 MSTORE CALLVALUE DUP1 ISZERO PUSH1 0xE JUMPI PUSH0 DUP1 REVERT JUMPDEST POP CALLER PUSH0 DUP1 PUSH2 0x100 EXP DUP2 SLOAD DUP2 PUSH20 0xFFFFFFFFFFFFFFFFFFFFFFFFFFFFFFFFFFFFFFFF MUL NOT AND SWAP1 DUP4 PUSH20 0xFFFFFFFFFFFFFFFFFFFFFFFFFFFFFFFFFFFFFFFF AND MUL OR SWAP1 SSTORE POP PUSH2 0xBAF DUP1 PUSH2 0x5B PUSH0 CODECOPY PUSH0 RETURN INVALID PUSH1 0x80 PUSH1 0x40 MSTORE PUSH1 0x4 CALLDATASIZE LT PUSH2 0x33 JUMPI PUSH0 CALLDATALOAD PUSH1 0xE0 SHR DUP1 PUSH4 0x57EA89B6 EQ PUSH2 0x37 JUMPI DUP1 PUSH4 0x77DE0793 EQ PUSH2 0x4D JUMPI DUP1 PUSH4 0xC12CBAB9 EQ PUSH2 0x75 JUMPI JUMPDEST PUSH0 DUP1 REVERT JUMPDEST CALLVALUE DUP1 ISZERO PUSH2 0x42 JUMPI PUSH0 DUP1 REVERT JUMPDEST POP PUSH2 0x4B PUSH2 0x91 JUMP JUMPDEST STOP JUMPDEST CALLVALUE DUP1 ISZERO PUSH2 0x58 JUMPI PUSH0 DUP1 REVERT JUMPDEST POP PUSH2 0x73 PUSH1 0x4 DUP1 CALLDATASIZE SUB DUP2 ADD SWAP1 PUSH2 0x6E SWAP2 SWAP1 PUSH2 0x6A0 JUMP JUMPDEST PUSH2 0x242 JUMP JUMPDEST STOP JUMPDEST PUSH2 0x8F PUSH1 0x4 DUP1 CALLDATASIZE SUB DUP2 ADD SWAP1 PUSH2 0x8A SWAP2 SWAP1 PUSH2 0x6EE JUMP JUMPDEST PUSH2 0x3BE JUMP JUMPDEST STOP JUMPDEST PUSH1 0x1 DUP1 DUP2 GT ISZERO PUSH2 0xA4 JUMPI PUSH2 0xA3 PUSH2 0x719 JUMP JUMPDEST JUMPDEST PUSH1 0x1 PUSH0 CALLER PUSH20 0xFFFFFFFFFFFFFFFFFFFFFFFFFFFFFFFFFFFFFFFF AND PUSH20 0xFFFFFFFFFFFFFFFFFFFFFFFFFFFFFFFFFFFFFFFF AND DUP2 MSTORE PUSH1 0x20 ADD SWAP1 DUP2 MSTORE PUSH1 0x20 ADD PUSH0 KECCAK256 PUSH1 0x1 ADD PUSH0 SWAP1 SLOAD SWAP1 PUSH2 0x100 EXP SWAP1 DIV PUSH1 0xFF AND PUSH1 0x1 DUP2 GT ISZERO PUSH2 0x103 JUMPI PUSH2 0x102 PUSH2 0x719 JUMP JUMPDEST JUMPDEST EQ PUSH2 0x143 JUMPI PUSH1 0x40 MLOAD PUSH32 0x8C379A000000000000000000000000000000000000000000000000000000000 DUP2 MSTORE PUSH1 0x4 ADD PUSH2 0x13A SWAP1 PUSH2 0x7A0 JUMP JUMPDEST PUSH1 0x40 MLOAD DUP1 SWAP2 SUB SWAP1 REVERT JUMPDEST CALLER PUSH20 0xFFFFFFFFFFFFFFFFFFFFFFFFFFFFFFFFFFFFFFFF AND PUSH2 0x8FC PUSH1 0x1 PUSH0 CALLER PUSH20 0xFFFFFFFFFFFFFFFFFFFFFFFFFFFFFFFFFFFFFFFF AND PUSH20 0xFFFFFFFFFFFFFFFFFFFFFFFFFFFFFFFFFFFFFFFF AND DUP2 MSTORE PUSH1 0x20 ADD SWAP1 DUP2 MSTORE PUSH1 0x20 ADD PUSH0 KECCAK256 PUSH0 ADD SLOAD SWAP1 DUP2 ISZERO MUL SWAP1 PUSH1 0x40 MLOAD PUSH0 PUSH1 0x40 MLOAD DUP1 DUP4 SUB DUP2 DUP6 DUP9 DUP9 CALL SWAP4 POP POP POP POP ISZERO DUP1 ISZERO PUSH2 0x1C5 JUMPI RETURNDATASIZE PUSH0 DUP1 RETURNDATACOPY RETURNDATASIZE PUSH0 REVERT JUMPDEST POP PUSH32 0xE7BB22312CE495E87CF54BBA523F51E4023ABC2E938614D165E757C6263FBC85 CALLER PUSH1 0x1 PUSH0 CALLER PUSH20 0xFFFFFFFFFFFFFFFFFFFFFFFFFFFFFFFFFFFFFFFF AND PUSH20 0xFFFFFFFFFFFFFFFFFFFFFFFFFFFFFFFFFFFFFFFF AND DUP2 MSTORE PUSH1 0x20 ADD SWAP1 DUP2 MSTORE PUSH1 0x20 ADD PUSH0 KECCAK256 PUSH0 ADD SLOAD TIMESTAMP PUSH1 0x40 MLOAD PUSH2 0x238 SWAP4 SWAP3 SWAP2 SWAP1 PUSH2 0x815 JUMP JUMPDEST PUSH1 0x40 MLOAD DUP1 SWAP2 SUB SWAP1 LOG1 JUMP JUMPDEST PUSH0 DUP1 SLOAD SWAP1 PUSH2 0x100 EXP SWAP1 DIV PUSH20 0xFFFFFFFFFFFFFFFFFFFFFFFFFFFFFFFFFFFFFFFF AND PUSH20 0xFFFFFFFFFFFFFFFFFFFFFFFFFFFFFFFFFFFFFFFF AND CALLER PUSH20 0xFFFFFFFFFFFFFFFFFFFFFFFFFFFFFFFFFFFFFFFF AND EQ PUSH2 0x2CF JUMPI PUSH1 0x40 MLOAD PUSH32 0x8C379A000000000000000000000000000000000000000000000000000000000 DUP2 MSTORE PUSH1 0x4 ADD PUSH2 0x2C6 SWAP1 PUSH2 0x8BA JUMP JUMPDEST PUSH1 0x40 MLOAD DUP1 SWAP2 SUB SWAP1 REVERT JUMPDEST PUSH1 0x1 PUSH1 0x2 DUP2 GT ISZERO PUSH2 0x2E3 JUMPI PUSH2 0x2E2 PUSH2 0x719 JUMP JUMPDEST JUMPDEST DUP2 PUSH1 0x2 DUP2 GT ISZERO PUSH2 0x2F6 JUMPI PUSH2 0x2F5 PUSH2 0x719 JUMP JUMPDEST JUMPDEST EQ DUP1 PUSH2 0x325 JUMPI POP PUSH0 PUSH1 0x2 DUP2 GT ISZERO PUSH2 0x310 JUMPI PUSH2 0x30F PUSH2 0x719 JUMP JUMPDEST JUMPDEST DUP2 PUSH1 0x2 DUP2 GT ISZERO PUSH2 0x323 JUMPI PUSH2 0x322 PUSH2 0x719 JUMP JUMPDEST JUMPDEST EQ JUMPDEST DUP1 PUSH2 0x353 JUMPI POP PUSH1 0x2 DUP1 DUP2 GT ISZERO PUSH2 0x33E JUMPI PUSH2 0x33D PUSH2 0x719 JUMP JUMPDEST JUMPDEST DUP2 PUSH1 0x2 DUP2 GT ISZERO PUSH2 0x351 JUMPI PUSH2 0x350 PUSH2 0x719 JUMP JUMPDEST JUMPDEST EQ JUMPDEST PUSH2 0x392 JUMPI PUSH1 0x40 MLOAD PUSH32 0x8C379A000000000000000000000000000000000000000000000000000000000 DUP2 MSTORE PUSH1 0x4 ADD PUSH2 0x389 SWAP1 PUSH2 0x922 JUMP JUMPDEST PUSH1 0x40 MLOAD DUP1 SWAP2 SUB SWAP1 REVERT JUMPDEST DUP1 PUSH0 PUSH1 0x14 PUSH2 0x100 EXP DUP2 SLOAD DUP2 PUSH1 0xFF MUL NOT AND SWAP1 DUP4 PUSH1 0x2 DUP2 GT ISZERO PUSH2 0x3B6 JUMPI PUSH2 0x3B5 PUSH2 0x719 JUMP JUMPDEST JUMPDEST MUL OR SWAP1 SSTORE POP POP JUMP JUMPDEST PUSH0 PUSH1 0x2 DUP2 GT ISZERO PUSH2 0x3D1 JUMPI PUSH2 0x3D0 PUSH2 0x719 JUMP JUMPDEST JUMPDEST PUSH0 PUSH1 0x14 SWAP1 SLOAD SWAP1 PUSH2 0x100 EXP SWAP1 DIV PUSH1 0xFF AND PUSH1 0x2 DUP2 GT ISZERO PUSH2 0x3F2 JUMPI PUSH2 0x3F1 PUSH2 0x719 JUMP JUMPDEST JUMPDEST EQ PUSH2 0x432 JUMPI PUSH1 0x40 MLOAD PUSH32 0x8C379A000000000000000000000000000000000000000000000000000000000 DUP2 MSTORE PUSH1 0x4 ADD PUSH2 0x429 SWAP1 PUSH2 0x98A JUMP JUMPDEST PUSH1 0x40 MLOAD DUP1 SWAP2 SUB SWAP1 REVERT JUMPDEST PUSH0 PUSH1 0x1 DUP2 GT ISZERO PUSH2 0x445 JUMPI PUSH2 0x444 PUSH2 0x719 JUMP JUMPDEST JUMPDEST DUP2 PUSH1 0x1 DUP2 GT ISZERO PUSH2 0x458 JUMPI PUSH2 0x457 PUSH2 0x719 JUMP JUMPDEST JUMPDEST EQ DUP1 PUSH2 0x487 JUMPI POP PUSH1 0x1 DUP1 DUP2 GT ISZERO PUSH2 0x472 JUMPI PUSH2 0x471 PUSH2 0x719 JUMP JUMPDEST JUMPDEST DUP2 PUSH1 0x1 DUP2 GT ISZERO PUSH2 0x485 JUMPI PUSH2 0x484 PUSH2 0x719 JUMP JUMPDEST JUMPDEST EQ JUMPDEST PUSH2 0x4C6 JUMPI PUSH1 0x40 MLOAD PUSH32 0x8C379A000000000000000000000000000000000000000000000000000000000 DUP2 MSTORE PUSH1 0x4 ADD PUSH2 0x4BD SWAP1 PUSH2 0x9F2 JUMP JUMPDEST PUSH1 0x40 MLOAD DUP1 SWAP2 SUB SWAP1 REVERT JUMPDEST PUSH0 DUP1 SLOAD SWAP1 PUSH2 0x100 EXP SWAP1 DIV PUSH20 0xFFFFFFFFFFFFFFFFFFFFFFFFFFFFFFFFFFFFFFFF AND PUSH20 0xFFFFFFFFFFFFFFFFFFFFFFFFFFFFFFFFFFFFFFFF AND CALLER PUSH20 0xFFFFFFFFFFFFFFFFFFFFFFFFFFFFFFFFFFFFFFFF AND SUB PUSH2 0x553 JUMPI PUSH1 0x40 MLOAD PUSH32 0x8C379A000000000000000000000000000000000000000000000000000000000 DUP2 MSTORE PUSH1 0x4 ADD PUSH2 0x54A SWAP1 PUSH2 0xA80 JUMP JUMPDEST PUSH1 0x40 MLOAD DUP1 SWAP2 SUB SWAP1 REVERT JUMPDEST PUSH1 0x40 MLOAD DUP1 PUSH1 0x40 ADD PUSH1 0x40 MSTORE DUP1 CALLVALUE PUSH1 0x1 PUSH0 CALLER PUSH20 0xFFFFFFFFFFFFFFFFFFFFFFFFFFFFFFFFFFFFFFFF AND PUSH20 0xFFFFFFFFFFFFFFFFFFFFFFFFFFFFFFFFFFFFFFFF AND DUP2 MSTORE PUSH1 0x20 ADD SWAP1 DUP2 MSTORE PUSH1 0x20 ADD PUSH0 KECCAK256 PUSH0 ADD SLOAD PUSH2 0x5A9 SWAP2 SWAP1 PUSH2 0xACB JUMP JUMPDEST DUP2 MSTORE PUSH1 0x20 ADD DUP3 PUSH1 0x1 DUP2 GT ISZERO PUSH2 0x5C1 JUMPI PUSH2 0x5C0 PUSH2 0x719 JUMP JUMPDEST JUMPDEST DUP2 MSTORE POP PUSH1 0x1 PUSH0 CALLER PUSH20 0xFFFFFFFFFFFFFFFFFFFFFFFFFFFFFFFFFFFFFFFF AND PUSH20 0xFFFFFFFFFFFFFFFFFFFFFFFFFFFFFFFFFFFFFFFF AND DUP2 MSTORE PUSH1 0x20 ADD SWAP1 DUP2 MSTORE PUSH1 0x20 ADD PUSH0 KECCAK256 PUSH0 DUP3 ADD MLOAD DUP2 PUSH0 ADD SSTORE PUSH1 0x20 DUP3 ADD MLOAD DUP2 PUSH1 0x1 ADD PUSH0 PUSH2 0x100 EXP DUP2 SLOAD DUP2 PUSH1 0xFF MUL NOT AND SWAP1 DUP4 PUSH1 0x1 DUP2 GT ISZERO PUSH2 0x633 JUMPI PUSH2 0x632 PUSH2 0x719 JUMP JUMPDEST JUMPDEST MUL OR SWAP1 SSTORE POP SWAP1 POP POP PUSH32 0x15C19FC5E97AFEB9DF79F9DF2C5080DF454D207832ACEBA0A14F57B71F70D800 CALLER CALLVALUE DUP4 PUSH1 0x40 MLOAD PUSH2 0x66E SWAP4 SWAP3 SWAP2 SWAP1 PUSH2 0xB44 JUMP JUMPDEST PUSH1 0x40 MLOAD DUP1 SWAP2 SUB SWAP1 LOG1 POP JUMP JUMPDEST PUSH0 DUP1 REVERT JUMPDEST PUSH1 0x3 DUP2 LT PUSH2 0x689 JUMPI PUSH0 DUP1 REVERT JUMPDEST POP JUMP JUMPDEST PUSH0 DUP2 CALLDATALOAD SWAP1 POP PUSH2 0x69A DUP2 PUSH2 0x67D JUMP JUMPDEST SWAP3 SWAP2 POP POP JUMP JUMPDEST PUSH0 PUSH1 0x20 DUP3 DUP5 SUB SLT ISZERO PUSH2 0x6B5 JUMPI PUSH2 0x6B4 PUSH2 0x679 JUMP JUMPDEST JUMPDEST PUSH0 PUSH2 0x6C2 DUP5 DUP3 DUP6 ADD PUSH2 0x68C JUMP JUMPDEST SWAP2 POP POP SWAP3 SWAP2 POP POP JUMP JUMPDEST PUSH1 0x2 DUP2 LT PUSH2 0x6D7 JUMPI PUSH0 DUP1 REVERT JUMPDEST POP JUMP JUMPDEST PUSH0 DUP2 CALLDATALOAD SWAP1 POP PUSH2 0x6E8 DUP2 PUSH2 0x6CB JUMP JUMPDEST SWAP3 SWAP2 POP POP JUMP JUMPDEST PUSH0 PUSH1 0x20 DUP3 DUP5 SUB SLT ISZERO PUSH2 0x703 JUMPI PUSH2 0x702 PUSH2 0x679 JUMP JUMPDEST JUMPDEST PUSH0 PUSH2 0x710 DUP5 DUP3 DUP6 ADD PUSH2 0x6DA JUMP JUMPDEST SWAP2 POP POP SWAP3 SWAP2 POP POP JUMP JUMPDEST PUSH32 0x4E487B7100000000000000000000000000000000000000000000000000000000 PUSH0 MSTORE PUSH1 0x21 PUSH1 0x4 MSTORE PUSH1 0x24 PUSH0 REVERT JUMPDEST PUSH0 DUP3 DUP3 MSTORE PUSH1 0x20 DUP3 ADD SWAP1 POP SWAP3 SWAP2 POP POP JUMP JUMPDEST PUSH32 0x596F7520417265204E6F74205468652057696E6E657200000000000000000000 PUSH0 DUP3 ADD MSTORE POP JUMP JUMPDEST PUSH0 PUSH2 0x78A PUSH1 0x16 DUP4 PUSH2 0x746 JUMP JUMPDEST SWAP2 POP PUSH2 0x795 DUP3 PUSH2 0x756 JUMP JUMPDEST PUSH1 0x20 DUP3 ADD SWAP1 POP SWAP2 SWAP1 POP JUMP JUMPDEST PUSH0 PUSH1 0x20 DUP3 ADD SWAP1 POP DUP2 DUP2 SUB PUSH0 DUP4 ADD MSTORE PUSH2 0x7B7 DUP2 PUSH2 0x77E JUMP JUMPDEST SWAP1 POP SWAP2 SWAP1 POP JUMP JUMPDEST PUSH0 PUSH20 0xFFFFFFFFFFFFFFFFFFFFFFFFFFFFFFFFFFFFFFFF DUP3 AND SWAP1 POP SWAP2 SWAP1 POP JUMP JUMPDEST PUSH0 PUSH2 0x7E7 DUP3 PUSH2 0x7BE JUMP JUMPDEST SWAP1 POP SWAP2 SWAP1 POP JUMP JUMPDEST PUSH2 0x7F7 DUP2 PUSH2 0x7DD JUMP JUMPDEST DUP3 MSTORE POP POP JUMP JUMPDEST PUSH0 DUP2 SWAP1 POP SWAP2 SWAP1 POP JUMP JUMPDEST PUSH2 0x80F DUP2 PUSH2 0x7FD JUMP JUMPDEST DUP3 MSTORE POP POP JUMP JUMPDEST PUSH0 PUSH1 0x60 DUP3 ADD SWAP1 POP PUSH2 0x828 PUSH0 DUP4 ADD DUP7 PUSH2 0x7EE JUMP JUMPDEST PUSH2 0x835 PUSH1 0x20 DUP4 ADD DUP6 PUSH2 0x806 JUMP JUMPDEST PUSH2 0x842 PUSH1 0x40 DUP4 ADD DUP5 PUSH2 0x806 JUMP JUMPDEST SWAP5 SWAP4 POP POP POP POP JUMP JUMPDEST PUSH32 0x4F6E6C79204F776E657220697320616C6C6F77656420746F204368616E676520 PUSH0 DUP3 ADD MSTORE PUSH32 0x7468652073746174650000000000000000000000000000000000000000000000 PUSH1 0x20 DUP3 ADD MSTORE POP JUMP JUMPDEST PUSH0 PUSH2 0x8A4 PUSH1 0x29 DUP4 PUSH2 0x746 JUMP JUMPDEST SWAP2 POP PUSH2 0x8AF DUP3 PUSH2 0x84A JUMP JUMPDEST PUSH1 0x40 DUP3 ADD SWAP1 POP SWAP2 SWAP1 POP JUMP JUMPDEST PUSH0 PUSH1 0x20 DUP3 ADD SWAP1 POP DUP2 DUP2 SUB PUSH0 DUP4 ADD MSTORE PUSH2 0x8D1 DUP2 PUSH2 0x898 JUMP JUMPDEST SWAP1 POP SWAP2 SWAP1 POP JUMP JUMPDEST PUSH32 0x53656C656374656420616E20756E646566696E65642053746174650000000000 PUSH0 DUP3 ADD MSTORE POP JUMP JUMPDEST PUSH0 PUSH2 0x90C PUSH1 0x1B DUP4 PUSH2 0x746 JUMP JUMPDEST SWAP2 POP PUSH2 0x917 DUP3 PUSH2 0x8D8 JUMP JUMPDEST PUSH1 0x20 DUP3 ADD SWAP1 POP SWAP2 SWAP1 POP JUMP JUMPDEST PUSH0 PUSH1 0x20 DUP3 ADD SWAP1 POP DUP2 DUP2 SUB PUSH0 DUP4 ADD MSTORE PUSH2 0x939 DUP2 PUSH2 0x900 JUMP JUMPDEST SWAP1 POP SWAP2 SWAP1 POP JUMP JUMPDEST PUSH32 0x42617474696E6720697320436C6F736564000000000000000000000000000000 PUSH0 DUP3 ADD MSTORE POP JUMP JUMPDEST PUSH0 PUSH2 0x974 PUSH1 0x11 DUP4 PUSH2 0x746 JUMP JUMPDEST SWAP2 POP PUSH2 0x97F DUP3 PUSH2 0x940 JUMP JUMPDEST PUSH1 0x20 DUP3 ADD SWAP1 POP SWAP2 SWAP1 POP JUMP JUMPDEST PUSH0 PUSH1 0x20 DUP3 ADD SWAP1 POP DUP2 DUP2 SUB PUSH0 DUP4 ADD MSTORE PUSH2 0x9A1 DUP2 PUSH2 0x968 JUMP JUMPDEST SWAP1 POP SWAP2 SWAP1 POP JUMP JUMPDEST PUSH32 0x53656C656374656420616E20556E646566696E6564205465616D000000000000 PUSH0 DUP3 ADD MSTORE POP JUMP JUMPDEST PUSH0 PUSH2 0x9DC PUSH1 0x1A DUP4 PUSH2 0x746 JUMP JUMPDEST SWAP2 POP PUSH2 0x9E7 DUP3 PUSH2 0x9A8 JUMP JUMPDEST PUSH1 0x20 DUP3 ADD SWAP1 POP SWAP2 SWAP1 POP JUMP JUMPDEST PUSH0 PUSH1 0x20 DUP3 ADD SWAP1 POP DUP2 DUP2 SUB PUSH0 DUP4 ADD MSTORE PUSH2 0xA09 DUP2 PUSH2 0x9D0 JUMP JUMPDEST SWAP1 POP SWAP2 SWAP1 POP JUMP JUMPDEST PUSH32 0x736F72727920204F776E6572206973206E6F7420616C6C6F77656420746F2062 PUSH0 DUP3 ADD MSTORE PUSH32 0x6574000000000000000000000000000000000000000000000000000000000000 PUSH1 0x20 DUP3 ADD MSTORE POP JUMP JUMPDEST PUSH0 PUSH2 0xA6A PUSH1 0x22 DUP4 PUSH2 0x746 JUMP JUMPDEST SWAP2 POP PUSH2 0xA75 DUP3 PUSH2 0xA10 JUMP JUMPDEST PUSH1 0x40 DUP3 ADD SWAP1 POP SWAP2 SWAP1 POP JUMP JUMPDEST PUSH0 PUSH1 0x20 DUP3 ADD SWAP1 POP DUP2 DUP2 SUB PUSH0 DUP4 ADD MSTORE PUSH2 0xA97 DUP2 PUSH2 0xA5E JUMP JUMPDEST SWAP1 POP SWAP2 SWAP1 POP JUMP JUMPDEST PUSH32 0x4E487B7100000000000000000000000000000000000000000000000000000000 PUSH0 MSTORE PUSH1 0x11 PUSH1 0x4 MSTORE PUSH1 0x24 PUSH0 REVERT JUMPDEST PUSH0 PUSH2 0xAD5 DUP3 PUSH2 0x7FD JUMP JUMPDEST SWAP2 POP PUSH2 0xAE0 DUP4 PUSH2 0x7FD JUMP JUMPDEST SWAP3 POP DUP3 DUP3 ADD SWAP1 POP DUP1 DUP3 GT ISZERO PUSH2 0xAF8 JUMPI PUSH2 0xAF7 PUSH2 0xA9E JUMP JUMPDEST JUMPDEST SWAP3 SWAP2 POP POP JUMP JUMPDEST PUSH1 0x2 DUP2 LT PUSH2 0xB0F JUMPI PUSH2 0xB0E PUSH2 0x719 JUMP JUMPDEST JUMPDEST POP JUMP JUMPDEST PUSH0 DUP2 SWAP1 POP PUSH2 0xB1F DUP3 PUSH2 0xAFE JUMP JUMPDEST SWAP2 SWAP1 POP JUMP JUMPDEST PUSH0 PUSH2 0xB2E DUP3 PUSH2 0xB12 JUMP JUMPDEST SWAP1 POP SWAP2 SWAP1 POP JUMP JUMPDEST PUSH2 0xB3E DUP2 PUSH2 0xB24 JUMP JUMPDEST DUP3 MSTORE POP POP JUMP JUMPDEST PUSH0 PUSH1 0x60 DUP3 ADD SWAP1 POP PUSH2 0xB57 PUSH0 DUP4 ADD DUP7 PUSH2 0x7EE JUMP JUMPDEST PUSH2 0xB64 PUSH1 0x20 DUP4 ADD DUP6 PUSH2 0x806 JUMP JUMPDEST PUSH2 0xB71 PUSH1 0x40 DUP4 ADD DUP5 PUSH2 0xB35 JUMP JUMPDEST SWAP5 SWAP4 POP POP POP POP JUMP INVALID LOG2 PUSH5 0x6970667358 0x22 SLT KECCAK256 CALLER 0xE4 SMOD SWAP16 GAS ADDRESS 0x4C PUSH7 0x85D466911E81E7 GASPRICE DUP8 DUP16 PUSH11 0x5E0AF33457BC6CE72EFA74 0x2B 0xD7 PUSH5 0x736F6C6343 STOP ADDMOD BYTE STOP CALLER "
				},
				"gasEstimates": {
					"creation": {
						"codeDepositCost": "598200",
						"executionCost": "24895",
						"totalCost": "623095"
					},
					"external": {
						"Change_Status(uint8)": "27095",
						"Place_Bet(uint8)": "infinite",
						"Withdraw()": "infinite"
					}
				},
				"methodIdentifiers": {
					"Change_Status(uint8)": "77de0793",
					"Place_Bet(uint8)": "c12cbab9",
					"Withdraw()": "57ea89b6"
				}
			},
			"storageLayout": {
				"storage": [
					{
						"astId": 3,
						"contract": "SmartContract/BettingA.sol:BettingSite",
						"label": "Owner",
						"offset": 0,
						"slot": "0",
						"type": "t_address"
					},
					{
						"astId": 10,
						"contract": "SmartContract/BettingA.sol:BettingSite",
						"label": "status",
						"offset": 20,
						"slot": "0",
						"type": "t_enum(Status)7"
					},
					{
						"astId": 24,
						"contract": "SmartContract/BettingA.sol:BettingSite",
						"label": "User_Data",
						"offset": 0,
						"slot": "1",
						"type": "t_mapping(t_address,t_struct(Data)19_storage)"
					}
				],
				"types": {
					"t_address": {
						"encoding": "inplace",
						"label": "address",
						"numberOfBytes": "20"
					},
					"t_enum(Status)7": {
						"encoding": "inplace",
						"label": "enum BettingSite.Status",
						"numberOfBytes": "1"
					},
					"t_enum(Teams)13": {
						"encoding": "inplace",
						"label": "enum BettingSite.Teams",
						"numberOfBytes": "1"
					},
					"t_mapping(t_address,t_struct(Data)19_storage)": {
						"encoding": "mapping",
						"key": "t_address",
						"label": "mapping(address => struct BettingSite.Data)",
						"numberOfBytes": "32",
						"value": "t_struct(Data)19_storage"
					},
					"t_struct(Data)19_storage": {
						"encoding": "inplace",
						"label": "struct BettingSite.Data",
						"members": [
							{
								"astId": 15,
								"contract": "SmartContract/BettingA.sol:BettingSite",
								"label": "Amount",
								"offset": 0,
								"slot": "0",
								"type": "t_uint256"
							},
							{
								"astId": 18,
								"contract": "SmartContract/BettingA.sol:BettingSite",
								"label": "Selected_Team",
								"offset": 0,
								"slot": "1",
								"type": "t_enum(Teams)13"
							}
						],
						"numberOfBytes": "64"
					},
					"t_uint256": {
						"encoding": "inplace",
						"label": "uint256",
						"numberOfBytes": "32"
					}
				}
			},
			"userdoc": {
				"kind": "user",
				"methods": {},
				"version": 1
			}
		}
	}
}