{
	"SmartContract/Betting.sol": {
		"BettingContract": {
			"abi": [
				{
					"inputs": [],
					"stateMutability": "nonpayable",
					"type": "constructor"
				},
				{
					"anonymous": false,
					"inputs": [
						{
							"indexed": true,
							"internalType": "address",
							"name": "user",
							"type": "address"
						},
						{
							"indexed": true,
							"internalType": "enum BettingContract.Team",
							"name": "team",
							"type": "uint8"
						},
						{
							"indexed": false,
							"internalType": "uint256",
							"name": "amount",
							"type": "uint256"
						}
					],
					"name": "BetPlaced",
					"type": "event"
				},
				{
					"anonymous": false,
					"inputs": [
						{
							"indexed": false,
							"internalType": "enum BettingContract.Team",
							"name": "winningTeam",
							"type": "uint8"
						}
					],
					"name": "BetResolved",
					"type": "event"
				},
				{
					"anonymous": false,
					"inputs": [
						{
							"indexed": true,
							"internalType": "address",
							"name": "user",
							"type": "address"
						},
						{
							"indexed": false,
							"internalType": "uint256",
							"name": "amount",
							"type": "uint256"
						}
					],
					"name": "WinningsWithdrawn",
					"type": "event"
				},
				{
					"inputs": [
						{
							"internalType": "address",
							"name": "",
							"type": "address"
						}
					],
					"name": "bets",
					"outputs": [
						{
							"internalType": "uint256",
							"name": "amount",
							"type": "uint256"
						},
						{
							"internalType": "enum BettingContract.Team",
							"name": "selectedTeam",
							"type": "uint8"
						},
						{
							"internalType": "bool",
							"name": "withdrawn",
							"type": "bool"
						}
					],
					"stateMutability": "view",
					"type": "function"
				},
				{
					"inputs": [],
					"name": "checkBetState",
					"outputs": [],
					"stateMutability": "view",
					"type": "function"
				},
				{
					"inputs": [],
					"name": "closeBetting",
					"outputs": [],
					"stateMutability": "nonpayable",
					"type": "function"
				},
				{
					"inputs": [],
					"name": "owner",
					"outputs": [
						{
							"internalType": "address",
							"name": "",
							"type": "address"
						}
					],
					"stateMutability": "view",
					"type": "function"
				},
				{
					"inputs": [
						{
							"internalType": "enum BettingContract.Team",
							"name": "_team",
							"type": "uint8"
						}
					],
					"name": "placeBet",
					"outputs": [],
					"stateMutability": "payable",
					"type": "function"
				},
				{
					"inputs": [
						{
							"internalType": "enum BettingContract.Team",
							"name": "_winningTeam",
							"type": "uint8"
						}
					],
					"name": "resolveBet",
					"outputs": [],
					"stateMutability": "nonpayable",
					"type": "function"
				},
				{
					"inputs": [],
					"name": "state",
					"outputs": [
						{
							"internalType": "enum BettingContract.BettingState",
							"name": "",
							"type": "uint8"
						}
					],
					"stateMutability": "view",
					"type": "function"
				},
				{
					"inputs": [],
					"name": "totalBetAmountTeamA",
					"outputs": [
						{
							"internalType": "uint256",
							"name": "",
							"type": "uint256"
						}
					],
					"stateMutability": "view",
					"type": "function"
				},
				{
					"inputs": [],
					"name": "totalBetAmountTeamB",
					"outputs": [
						{
							"internalType": "uint256",
							"name": "",
							"type": "uint256"
						}
					],
					"stateMutability": "view",
					"type": "function"
				},
				{
					"inputs": [],
					"name": "winningTeam",
					"outputs": [
						{
							"internalType": "enum BettingContract.Team",
							"name": "",
							"type": "uint8"
						}
					],
					"stateMutability": "view",
					"type": "function"
				},
				{
					"inputs": [],
					"name": "withdrawWinnings",
					"outputs": [],
					"stateMutability": "nonpayable",
					"type": "function"
				},
				{
					"stateMutability": "payable",
					"type": "receive"
				}
			],
			"devdoc": {
				"kind": "dev",
				"methods": {},
				"version": 1
			},
			"evm": {
				"assembly": "    /* \"SmartContract/Betting.sol\":60:4146  contract BettingContract {... */\n  mstore(0x40, 0x80)\n    /* \"SmartContract/Betting.sol\":1054:1141  constructor() {... */\n  callvalue\n  dup1\n  iszero\n  tag_1\n  jumpi\n  0x00\n  dup1\n  revert\ntag_1:\n  pop\n    /* \"SmartContract/Betting.sol\":1087:1097  msg.sender */\n  caller\n    /* \"SmartContract/Betting.sol\":1079:1084  owner */\n  0x04\n  0x00\n    /* \"SmartContract/Betting.sol\":1079:1097  owner = msg.sender */\n  0x0100\n  exp\n  dup2\n  sload\n  dup2\n  0xffffffffffffffffffffffffffffffffffffffff\n  mul\n  not\n  and\n  swap1\n  dup4\n  0xffffffffffffffffffffffffffffffffffffffff\n  and\n  mul\n  or\n  swap1\n  sstore\n  pop\n    /* \"SmartContract/Betting.sol\":1116:1133  BettingState.Open */\n  0x00\n    /* \"SmartContract/Betting.sol\":1108:1113  state */\n  dup1\n  0x00\n    /* \"SmartContract/Betting.sol\":1108:1133  state = BettingState.Open */\n  0x0100\n  exp\n  dup2\n  sload\n  dup2\n  0xff\n  mul\n  not\n  and\n  swap1\n  dup4\n  0x02\n  dup2\n  gt\n  iszero\n  tag_4\n  jumpi\n  tag_5\n  tag_6\n  jump\t// in\ntag_5:\ntag_4:\n  mul\n  or\n  swap1\n  sstore\n  pop\n    /* \"SmartContract/Betting.sol\":60:4146  contract BettingContract {... */\n  jump(tag_7)\n    /* \"#utility.yul\":7:187   */\ntag_6:\n    /* \"#utility.yul\":55:132   */\n  0x4e487b7100000000000000000000000000000000000000000000000000000000\n    /* \"#utility.yul\":52:53   */\n  0x00\n    /* \"#utility.yul\":45:133   */\n  mstore\n    /* \"#utility.yul\":152:156   */\n  0x21\n    /* \"#utility.yul\":149:150   */\n  0x04\n    /* \"#utility.yul\":142:157   */\n  mstore\n    /* \"#utility.yul\":176:180   */\n  0x24\n    /* \"#utility.yul\":173:174   */\n  0x00\n    /* \"#utility.yul\":166:181   */\n  revert\n    /* \"SmartContract/Betting.sol\":60:4146  contract BettingContract {... */\ntag_7:\n  dataSize(sub_0)\n  dup1\n  dataOffset(sub_0)\n  0x00\n  codecopy\n  0x00\n  return\nstop\n\nsub_0: assembly {\n        /* \"SmartContract/Betting.sol\":60:4146  contract BettingContract {... */\n      mstore(0x40, 0x80)\n      jumpi(tag_1, lt(calldatasize, 0x04))\n      shr(0xe0, calldataload(0x00))\n      dup1\n      0x8da5cb5b\n      gt\n      tag_14\n      jumpi\n      dup1\n      0x8da5cb5b\n      eq\n      tag_8\n      jumpi\n      dup1\n      0xa179acdb\n      eq\n      tag_9\n      jumpi\n      dup1\n      0xc19d93fb\n      eq\n      tag_10\n      jumpi\n      dup1\n      0xcc42e83a\n      eq\n      tag_11\n      jumpi\n      dup1\n      0xde3f18e2\n      eq\n      tag_12\n      jumpi\n      dup1\n      0xfdd746be\n      eq\n      tag_13\n      jumpi\n      jump(tag_2)\n    tag_14:\n      dup1\n      0x15ac534d\n      eq\n      tag_3\n      jumpi\n      dup1\n      0x2313313f\n      eq\n      tag_4\n      jumpi\n      dup1\n      0x43046844\n      eq\n      tag_5\n      jumpi\n      dup1\n      0x55587b8e\n      eq\n      tag_6\n      jumpi\n      dup1\n      0x89a78f1a\n      eq\n      tag_7\n      jumpi\n      jump(tag_2)\n    tag_1:\n      jumpi(tag_2, calldatasize)\n        /* \"SmartContract/Betting.sol\":4097:4135  revert(\"Direct transfers not allowed\") */\n      mload(0x40)\n      0x08c379a000000000000000000000000000000000000000000000000000000000\n      dup2\n      mstore\n      0x04\n      add\n      tag_17\n      swap1\n      tag_18\n      jump\t// in\n    tag_17:\n      mload(0x40)\n      dup1\n      swap2\n      sub\n      swap1\n      revert\n        /* \"SmartContract/Betting.sol\":60:4146  contract BettingContract {... */\n    tag_2:\n      0x00\n      dup1\n      revert\n        /* \"SmartContract/Betting.sol\":2618:2896  function closeBetting() external {... */\n    tag_3:\n      callvalue\n      dup1\n      iszero\n      tag_19\n      jumpi\n      0x00\n      dup1\n      revert\n    tag_19:\n      pop\n      tag_20\n      tag_21\n      jump\t// in\n    tag_20:\n      stop\n        /* \"SmartContract/Betting.sol\":3875:3989  function checkBetState() public view {... */\n    tag_4:\n      callvalue\n      dup1\n      iszero\n      tag_22\n      jumpi\n      0x00\n      dup1\n      revert\n    tag_22:\n      pop\n      tag_23\n      tag_24\n      jump\t// in\n    tag_23:\n      stop\n        /* \"SmartContract/Betting.sol\":1203:2005  function placeBet(Team _team) external payable {... */\n    tag_5:\n      tag_25\n      0x04\n      dup1\n      calldatasize\n      sub\n      dup2\n      add\n      swap1\n      tag_26\n      swap2\n      swap1\n      tag_27\n      jump\t// in\n    tag_26:\n      tag_28\n      jump\t// in\n    tag_25:\n      stop\n        /* \"SmartContract/Betting.sol\":599:630  uint public totalBetAmountTeamB */\n    tag_6:\n      callvalue\n      dup1\n      iszero\n      tag_29\n      jumpi\n      0x00\n      dup1\n      revert\n    tag_29:\n      pop\n      tag_30\n      tag_31\n      jump\t// in\n    tag_30:\n      mload(0x40)\n      tag_32\n      swap2\n      swap1\n      tag_33\n      jump\t// in\n    tag_32:\n      mload(0x40)\n      dup1\n      swap2\n      sub\n      swap1\n      return\n        /* \"SmartContract/Betting.sol\":471:506  mapping(address => Bet) public bets */\n    tag_7:\n      callvalue\n      dup1\n      iszero\n      tag_34\n      jumpi\n      0x00\n      dup1\n      revert\n    tag_34:\n      pop\n      tag_35\n      0x04\n      dup1\n      calldatasize\n      sub\n      dup2\n      add\n      swap1\n      tag_36\n      swap2\n      swap1\n      tag_37\n      jump\t// in\n    tag_36:\n      tag_38\n      jump\t// in\n    tag_35:\n      mload(0x40)\n      tag_39\n      swap4\n      swap3\n      swap2\n      swap1\n      tag_40\n      jump\t// in\n    tag_39:\n      mload(0x40)\n      dup1\n      swap2\n      sub\n      swap1\n      return\n        /* \"SmartContract/Betting.sol\":669:689  address public owner */\n    tag_8:\n      callvalue\n      dup1\n      iszero\n      tag_41\n      jumpi\n      0x00\n      dup1\n      revert\n    tag_41:\n      pop\n      tag_42\n      tag_43\n      jump\t// in\n    tag_42:\n      mload(0x40)\n      tag_44\n      swap2\n      swap1\n      tag_45\n      jump\t// in\n    tag_44:\n      mload(0x40)\n      dup1\n      swap2\n      sub\n      swap1\n      return\n        /* \"SmartContract/Betting.sol\":2092:2563  function resolveBet(Team _winningTeam) external {... */\n    tag_9:\n      callvalue\n      dup1\n      iszero\n      tag_46\n      jumpi\n      0x00\n      dup1\n      revert\n    tag_46:\n      pop\n      tag_47\n      0x04\n      dup1\n      calldatasize\n      sub\n      dup2\n      add\n      swap1\n      tag_48\n      swap2\n      swap1\n      tag_27\n      jump\t// in\n    tag_48:\n      tag_49\n      jump\t// in\n    tag_47:\n      stop\n        /* \"SmartContract/Betting.sol\":186:211  BettingState public state */\n    tag_10:\n      callvalue\n      dup1\n      iszero\n      tag_50\n      jumpi\n      0x00\n      dup1\n      revert\n    tag_50:\n      pop\n      tag_51\n      tag_52\n      jump\t// in\n    tag_51:\n      mload(0x40)\n      tag_53\n      swap2\n      swap1\n      tag_54\n      jump\t// in\n    tag_53:\n      mload(0x40)\n      dup1\n      swap2\n      sub\n      swap1\n      return\n        /* \"SmartContract/Betting.sol\":2952:3798  function withdrawWinnings() external {... */\n    tag_11:\n      callvalue\n      dup1\n      iszero\n      tag_55\n      jumpi\n      0x00\n      dup1\n      revert\n    tag_55:\n      pop\n      tag_56\n      tag_57\n      jump\t// in\n    tag_56:\n      stop\n        /* \"SmartContract/Betting.sol\":741:764  Team public winningTeam */\n    tag_12:\n      callvalue\n      dup1\n      iszero\n      tag_58\n      jumpi\n      0x00\n      dup1\n      revert\n    tag_58:\n      pop\n      tag_59\n      tag_60\n      jump\t// in\n    tag_59:\n      mload(0x40)\n      tag_61\n      swap2\n      swap1\n      tag_62\n      jump\t// in\n    tag_61:\n      mload(0x40)\n      dup1\n      swap2\n      sub\n      swap1\n      return\n        /* \"SmartContract/Betting.sol\":561:592  uint public totalBetAmountTeamA */\n    tag_13:\n      callvalue\n      dup1\n      iszero\n      tag_63\n      jumpi\n      0x00\n      dup1\n      revert\n    tag_63:\n      pop\n      tag_64\n      tag_65\n      jump\t// in\n    tag_64:\n      mload(0x40)\n      tag_66\n      swap2\n      swap1\n      tag_33\n      jump\t// in\n    tag_66:\n      mload(0x40)\n      dup1\n      swap2\n      sub\n      swap1\n      return\n        /* \"SmartContract/Betting.sol\":2618:2896  function closeBetting() external {... */\n    tag_21:\n        /* \"SmartContract/Betting.sol\":2684:2689  owner */\n      0x04\n      0x00\n      swap1\n      sload\n      swap1\n      0x0100\n      exp\n      swap1\n      div\n      0xffffffffffffffffffffffffffffffffffffffff\n      and\n        /* \"SmartContract/Betting.sol\":2670:2689  msg.sender == owner */\n      0xffffffffffffffffffffffffffffffffffffffff\n      and\n        /* \"SmartContract/Betting.sol\":2670:2680  msg.sender */\n      caller\n        /* \"SmartContract/Betting.sol\":2670:2689  msg.sender == owner */\n      0xffffffffffffffffffffffffffffffffffffffff\n      and\n      eq\n        /* \"SmartContract/Betting.sol\":2662:2731  require(msg.sender == owner, \"Only the owner can call this function\") */\n      tag_68\n      jumpi\n      mload(0x40)\n      0x08c379a000000000000000000000000000000000000000000000000000000000\n      dup2\n      mstore\n      0x04\n      add\n      tag_69\n      swap1\n      tag_70\n      jump\t// in\n    tag_69:\n      mload(0x40)\n      dup1\n      swap2\n      sub\n      swap1\n      revert\n    tag_68:\n        /* \"SmartContract/Betting.sol\":2791:2808  BettingState.Open */\n      0x00\n        /* \"SmartContract/Betting.sol\":2782:2808  state == BettingState.Open */\n      0x02\n      dup2\n      gt\n      iszero\n      tag_71\n      jumpi\n      tag_72\n      tag_73\n      jump\t// in\n    tag_72:\n    tag_71:\n        /* \"SmartContract/Betting.sol\":2782:2787  state */\n      0x00\n      dup1\n      sload\n      swap1\n      0x0100\n      exp\n      swap1\n      div\n      0xff\n      and\n        /* \"SmartContract/Betting.sol\":2782:2808  state == BettingState.Open */\n      0x02\n      dup2\n      gt\n      iszero\n      tag_74\n      jumpi\n      tag_75\n      tag_73\n      jump\t// in\n    tag_75:\n    tag_74:\n      eq\n        /* \"SmartContract/Betting.sol\":2774:2850  require(state == BettingState.Open, \"Betting is already closed or resolved\") */\n      tag_76\n      jumpi\n      mload(0x40)\n      0x08c379a000000000000000000000000000000000000000000000000000000000\n      dup2\n      mstore\n      0x04\n      add\n      tag_77\n      swap1\n      tag_78\n      jump\t// in\n    tag_77:\n      mload(0x40)\n      dup1\n      swap2\n      sub\n      swap1\n      revert\n    tag_76:\n        /* \"SmartContract/Betting.sol\":2869:2888  BettingState.Closed */\n      0x01\n        /* \"SmartContract/Betting.sol\":2861:2866  state */\n      0x00\n      dup1\n        /* \"SmartContract/Betting.sol\":2861:2888  state = BettingState.Closed */\n      0x0100\n      exp\n      dup2\n      sload\n      dup2\n      0xff\n      mul\n      not\n      and\n      swap1\n      dup4\n      0x02\n      dup2\n      gt\n      iszero\n      tag_79\n      jumpi\n      tag_80\n      tag_73\n      jump\t// in\n    tag_80:\n    tag_79:\n      mul\n      or\n      swap1\n      sstore\n      pop\n        /* \"SmartContract/Betting.sol\":2618:2896  function closeBetting() external {... */\n      jump\t// out\n        /* \"SmartContract/Betting.sol\":3875:3989  function checkBetState() public view {... */\n    tag_24:\n        /* \"SmartContract/Betting.sol\":3940:3957  BettingState.Open */\n      0x00\n        /* \"SmartContract/Betting.sol\":3931:3957  state == BettingState.Open */\n      0x02\n      dup2\n      gt\n      iszero\n      tag_82\n      jumpi\n      tag_83\n      tag_73\n      jump\t// in\n    tag_83:\n    tag_82:\n        /* \"SmartContract/Betting.sol\":3931:3936  state */\n      0x00\n      dup1\n      sload\n      swap1\n      0x0100\n      exp\n      swap1\n      div\n      0xff\n      and\n        /* \"SmartContract/Betting.sol\":3931:3957  state == BettingState.Open */\n      0x02\n      dup2\n      gt\n      iszero\n      tag_84\n      jumpi\n      tag_85\n      tag_73\n      jump\t// in\n    tag_85:\n    tag_84:\n      eq\n        /* \"SmartContract/Betting.sol\":3923:3981  require(state == BettingState.Open, \"Betting is not open\") */\n      tag_86\n      jumpi\n      mload(0x40)\n      0x08c379a000000000000000000000000000000000000000000000000000000000\n      dup2\n      mstore\n      0x04\n      add\n      tag_87\n      swap1\n      tag_88\n      jump\t// in\n    tag_87:\n      mload(0x40)\n      dup1\n      swap2\n      sub\n      swap1\n      revert\n    tag_86:\n        /* \"SmartContract/Betting.sol\":3875:3989  function checkBetState() public view {... */\n      jump\t// out\n        /* \"SmartContract/Betting.sol\":1203:2005  function placeBet(Team _team) external payable {... */\n    tag_28:\n        /* \"SmartContract/Betting.sol\":1278:1295  BettingState.Open */\n      0x00\n        /* \"SmartContract/Betting.sol\":1269:1295  state == BettingState.Open */\n      0x02\n      dup2\n      gt\n      iszero\n      tag_90\n      jumpi\n      tag_91\n      tag_73\n      jump\t// in\n    tag_91:\n    tag_90:\n        /* \"SmartContract/Betting.sol\":1269:1274  state */\n      0x00\n      dup1\n      sload\n      swap1\n      0x0100\n      exp\n      swap1\n      div\n      0xff\n      and\n        /* \"SmartContract/Betting.sol\":1269:1295  state == BettingState.Open */\n      0x02\n      dup2\n      gt\n      iszero\n      tag_92\n      jumpi\n      tag_93\n      tag_73\n      jump\t// in\n    tag_93:\n    tag_92:\n      eq\n        /* \"SmartContract/Betting.sol\":1261:1319  require(state == BettingState.Open, \"Betting is not open\") */\n      tag_94\n      jumpi\n      mload(0x40)\n      0x08c379a000000000000000000000000000000000000000000000000000000000\n      dup2\n      mstore\n      0x04\n      add\n      tag_95\n      swap1\n      tag_88\n      jump\t// in\n    tag_95:\n      mload(0x40)\n      dup1\n      swap2\n      sub\n      swap1\n      revert\n    tag_94:\n        /* \"SmartContract/Betting.sol\":1365:1366  0 */\n      0x00\n        /* \"SmartContract/Betting.sol\":1338:1342  bets */\n      0x01\n        /* \"SmartContract/Betting.sol\":1338:1354  bets[msg.sender] */\n      0x00\n        /* \"SmartContract/Betting.sol\":1343:1353  msg.sender */\n      caller\n        /* \"SmartContract/Betting.sol\":1338:1354  bets[msg.sender] */\n      0xffffffffffffffffffffffffffffffffffffffff\n      and\n      0xffffffffffffffffffffffffffffffffffffffff\n      and\n      dup2\n      mstore\n      0x20\n      add\n      swap1\n      dup2\n      mstore\n      0x20\n      add\n      0x00\n      keccak256\n        /* \"SmartContract/Betting.sol\":1338:1361  bets[msg.sender].amount */\n      0x00\n      add\n      sload\n        /* \"SmartContract/Betting.sol\":1338:1366  bets[msg.sender].amount == 0 */\n      eq\n        /* \"SmartContract/Betting.sol\":1330:1400  require(bets[msg.sender].amount == 0, \"You have already placed a bet\") */\n      tag_96\n      jumpi\n      mload(0x40)\n      0x08c379a000000000000000000000000000000000000000000000000000000000\n      dup2\n      mstore\n      0x04\n      add\n      tag_97\n      swap1\n      tag_98\n      jump\t// in\n    tag_97:\n      mload(0x40)\n      dup1\n      swap2\n      sub\n      swap1\n      revert\n    tag_96:\n        /* \"SmartContract/Betting.sol\":1431:1432  0 */\n      0x00\n        /* \"SmartContract/Betting.sol\":1419:1428  msg.value */\n      callvalue\n        /* \"SmartContract/Betting.sol\":1419:1432  msg.value > 0 */\n      gt\n        /* \"SmartContract/Betting.sol\":1411:1470  require(msg.value > 0, \"Bet amount must be greater than 0\") */\n      tag_99\n      jumpi\n      mload(0x40)\n      0x08c379a000000000000000000000000000000000000000000000000000000000\n      dup2\n      mstore\n      0x04\n      add\n      tag_100\n      swap1\n      tag_101\n      jump\t// in\n    tag_100:\n      mload(0x40)\n      dup1\n      swap2\n      sub\n      swap1\n      revert\n    tag_99:\n        /* \"SmartContract/Betting.sol\":1498:1508  Team.TeamA */\n      0x01\n        /* \"SmartContract/Betting.sol\":1489:1508  _team == Team.TeamA */\n      0x02\n      dup2\n      gt\n      iszero\n      tag_102\n      jumpi\n      tag_103\n      tag_73\n      jump\t// in\n    tag_103:\n    tag_102:\n        /* \"SmartContract/Betting.sol\":1489:1494  _team */\n      dup2\n        /* \"SmartContract/Betting.sol\":1489:1508  _team == Team.TeamA */\n      0x02\n      dup2\n      gt\n      iszero\n      tag_104\n      jumpi\n      tag_105\n      tag_73\n      jump\t// in\n    tag_105:\n    tag_104:\n      eq\n        /* \"SmartContract/Betting.sol\":1489:1531  _team == Team.TeamA || _team == Team.TeamB */\n      dup1\n      tag_106\n      jumpi\n      pop\n        /* \"SmartContract/Betting.sol\":1521:1531  Team.TeamB */\n      0x02\n        /* \"SmartContract/Betting.sol\":1512:1531  _team == Team.TeamB */\n      dup1\n      dup2\n      gt\n      iszero\n      tag_107\n      jumpi\n      tag_108\n      tag_73\n      jump\t// in\n    tag_108:\n    tag_107:\n        /* \"SmartContract/Betting.sol\":1512:1517  _team */\n      dup2\n        /* \"SmartContract/Betting.sol\":1512:1531  _team == Team.TeamB */\n      0x02\n      dup2\n      gt\n      iszero\n      tag_109\n      jumpi\n      tag_110\n      tag_73\n      jump\t// in\n    tag_110:\n    tag_109:\n      eq\n        /* \"SmartContract/Betting.sol\":1489:1531  _team == Team.TeamA || _team == Team.TeamB */\n    tag_106:\n        /* \"SmartContract/Betting.sol\":1481:1557  require(_team == Team.TeamA || _team == Team.TeamB, \"Invalid team selected\") */\n      tag_111\n      jumpi\n      mload(0x40)\n      0x08c379a000000000000000000000000000000000000000000000000000000000\n      dup2\n      mstore\n      0x04\n      add\n      tag_112\n      swap1\n      tag_113\n      jump\t// in\n    tag_112:\n      mload(0x40)\n      dup1\n      swap2\n      sub\n      swap1\n      revert\n    tag_111:\n        /* \"SmartContract/Betting.sol\":1616:1729  Bet({... */\n      mload(0x40)\n      dup1\n      0x60\n      add\n      0x40\n      mstore\n      dup1\n        /* \"SmartContract/Betting.sol\":1643:1652  msg.value */\n      callvalue\n        /* \"SmartContract/Betting.sol\":1616:1729  Bet({... */\n      dup2\n      mstore\n      0x20\n      add\n        /* \"SmartContract/Betting.sol\":1681:1686  _team */\n      dup3\n        /* \"SmartContract/Betting.sol\":1616:1729  Bet({... */\n      0x02\n      dup2\n      gt\n      iszero\n      tag_114\n      jumpi\n      tag_115\n      tag_73\n      jump\t// in\n    tag_115:\n    tag_114:\n      dup2\n      mstore\n      0x20\n      add\n        /* \"SmartContract/Betting.sol\":1712:1717  false */\n      0x00\n        /* \"SmartContract/Betting.sol\":1616:1729  Bet({... */\n      iszero\n      iszero\n      dup2\n      mstore\n      pop\n        /* \"SmartContract/Betting.sol\":1597:1601  bets */\n      0x01\n        /* \"SmartContract/Betting.sol\":1597:1613  bets[msg.sender] */\n      0x00\n        /* \"SmartContract/Betting.sol\":1602:1612  msg.sender */\n      caller\n        /* \"SmartContract/Betting.sol\":1597:1613  bets[msg.sender] */\n      0xffffffffffffffffffffffffffffffffffffffff\n      and\n      0xffffffffffffffffffffffffffffffffffffffff\n      and\n      dup2\n      mstore\n      0x20\n      add\n      swap1\n      dup2\n      mstore\n      0x20\n      add\n      0x00\n      keccak256\n        /* \"SmartContract/Betting.sol\":1597:1729  bets[msg.sender] = Bet({... */\n      0x00\n      dup3\n      add\n      mload\n      dup2\n      0x00\n      add\n      sstore\n      0x20\n      dup3\n      add\n      mload\n      dup2\n      0x01\n      add\n      exp(0x0100, 0x00)\n      dup2\n      sload\n      dup2\n      0xff\n      mul\n      not\n      and\n      swap1\n      dup4\n      0x02\n      dup2\n      gt\n      iszero\n      tag_116\n      jumpi\n      tag_117\n      tag_73\n      jump\t// in\n    tag_117:\n    tag_116:\n      mul\n      or\n      swap1\n      sstore\n      pop\n      0x40\n      dup3\n      add\n      mload\n      dup2\n      0x01\n      add\n      exp(0x0100, 0x01)\n      dup2\n      sload\n      dup2\n      0xff\n      mul\n      not\n      and\n      swap1\n      dup4\n      iszero\n      iszero\n      mul\n      or\n      swap1\n      sstore\n      pop\n      swap1\n      pop\n      pop\n        /* \"SmartContract/Betting.sol\":1805:1815  Team.TeamA */\n      0x01\n        /* \"SmartContract/Betting.sol\":1796:1815  _team == Team.TeamA */\n      0x02\n      dup2\n      gt\n      iszero\n      tag_118\n      jumpi\n      tag_119\n      tag_73\n      jump\t// in\n    tag_119:\n    tag_118:\n        /* \"SmartContract/Betting.sol\":1796:1801  _team */\n      dup2\n        /* \"SmartContract/Betting.sol\":1796:1815  _team == Team.TeamA */\n      0x02\n      dup2\n      gt\n      iszero\n      tag_120\n      jumpi\n      tag_121\n      tag_73\n      jump\t// in\n    tag_121:\n    tag_120:\n      sub\n        /* \"SmartContract/Betting.sol\":1792:1941  if (_team == Team.TeamA) {... */\n      tag_122\n      jumpi\n        /* \"SmartContract/Betting.sol\":1855:1864  msg.value */\n      callvalue\n        /* \"SmartContract/Betting.sol\":1832:1851  totalBetAmountTeamA */\n      0x02\n      0x00\n        /* \"SmartContract/Betting.sol\":1832:1864  totalBetAmountTeamA += msg.value */\n      dup3\n      dup3\n      sload\n      tag_123\n      swap2\n      swap1\n      tag_124\n      jump\t// in\n    tag_123:\n      swap3\n      pop\n      pop\n      dup2\n      swap1\n      sstore\n      pop\n        /* \"SmartContract/Betting.sol\":1792:1941  if (_team == Team.TeamA) {... */\n      jump(tag_125)\n    tag_122:\n        /* \"SmartContract/Betting.sol\":1920:1929  msg.value */\n      callvalue\n        /* \"SmartContract/Betting.sol\":1897:1916  totalBetAmountTeamB */\n      0x03\n      0x00\n        /* \"SmartContract/Betting.sol\":1897:1929  totalBetAmountTeamB += msg.value */\n      dup3\n      dup3\n      sload\n      tag_126\n      swap2\n      swap1\n      tag_124\n      jump\t// in\n    tag_126:\n      swap3\n      pop\n      pop\n      dup2\n      swap1\n      sstore\n      pop\n        /* \"SmartContract/Betting.sol\":1792:1941  if (_team == Team.TeamA) {... */\n    tag_125:\n        /* \"SmartContract/Betting.sol\":1980:1985  _team */\n      dup1\n        /* \"SmartContract/Betting.sol\":1958:1997  BetPlaced(msg.sender, _team, msg.value) */\n      0x02\n      dup2\n      gt\n      iszero\n      tag_127\n      jumpi\n      tag_128\n      tag_73\n      jump\t// in\n    tag_128:\n    tag_127:\n        /* \"SmartContract/Betting.sol\":1968:1978  msg.sender */\n      caller\n        /* \"SmartContract/Betting.sol\":1958:1997  BetPlaced(msg.sender, _team, msg.value) */\n      0xffffffffffffffffffffffffffffffffffffffff\n      and\n      0x9f6b4cced64244a64465098f682029975b1614400b96bc6bd12c668083719166\n        /* \"SmartContract/Betting.sol\":1987:1996  msg.value */\n      callvalue\n        /* \"SmartContract/Betting.sol\":1958:1997  BetPlaced(msg.sender, _team, msg.value) */\n      mload(0x40)\n      tag_129\n      swap2\n      swap1\n      tag_33\n      jump\t// in\n    tag_129:\n      mload(0x40)\n      dup1\n      swap2\n      sub\n      swap1\n      log3\n        /* \"SmartContract/Betting.sol\":1203:2005  function placeBet(Team _team) external payable {... */\n      pop\n      jump\t// out\n        /* \"SmartContract/Betting.sol\":599:630  uint public totalBetAmountTeamB */\n    tag_31:\n      sload(0x03)\n      dup2\n      jump\t// out\n        /* \"SmartContract/Betting.sol\":471:506  mapping(address => Bet) public bets */\n    tag_38:\n      mstore(0x20, 0x01)\n      dup1\n      0x00\n      mstore\n      keccak256(0x00, 0x40)\n      0x00\n      swap2\n      pop\n      swap1\n      pop\n      dup1\n      0x00\n      add\n      sload\n      swap1\n      dup1\n      0x01\n      add\n      0x00\n      swap1\n      sload\n      swap1\n      0x0100\n      exp\n      swap1\n      div\n      0xff\n      and\n      swap1\n      dup1\n      0x01\n      add\n      0x01\n      swap1\n      sload\n      swap1\n      0x0100\n      exp\n      swap1\n      div\n      0xff\n      and\n      swap1\n      pop\n      dup4\n      jump\t// out\n        /* \"SmartContract/Betting.sol\":669:689  address public owner */\n    tag_43:\n      0x04\n      0x00\n      swap1\n      sload\n      swap1\n      0x0100\n      exp\n      swap1\n      div\n      0xffffffffffffffffffffffffffffffffffffffff\n      and\n      dup2\n      jump\t// out\n        /* \"SmartContract/Betting.sol\":2092:2563  function resolveBet(Team _winningTeam) external {... */\n    tag_49:\n        /* \"SmartContract/Betting.sol\":2173:2178  owner */\n      0x04\n      0x00\n      swap1\n      sload\n      swap1\n      0x0100\n      exp\n      swap1\n      div\n      0xffffffffffffffffffffffffffffffffffffffff\n      and\n        /* \"SmartContract/Betting.sol\":2159:2178  msg.sender == owner */\n      0xffffffffffffffffffffffffffffffffffffffff\n      and\n        /* \"SmartContract/Betting.sol\":2159:2169  msg.sender */\n      caller\n        /* \"SmartContract/Betting.sol\":2159:2178  msg.sender == owner */\n      0xffffffffffffffffffffffffffffffffffffffff\n      and\n      eq\n        /* \"SmartContract/Betting.sol\":2151:2220  require(msg.sender == owner, \"Only the owner can call this function\") */\n      tag_131\n      jumpi\n      mload(0x40)\n      0x08c379a000000000000000000000000000000000000000000000000000000000\n      dup2\n      mstore\n      0x04\n      add\n      tag_132\n      swap1\n      tag_70\n      jump\t// in\n    tag_132:\n      mload(0x40)\n      dup1\n      swap2\n      sub\n      swap1\n      revert\n    tag_131:\n        /* \"SmartContract/Betting.sol\":2280:2299  BettingState.Closed */\n      0x01\n        /* \"SmartContract/Betting.sol\":2271:2299  state == BettingState.Closed */\n      0x02\n      dup2\n      gt\n      iszero\n      tag_133\n      jumpi\n      tag_134\n      tag_73\n      jump\t// in\n    tag_134:\n    tag_133:\n        /* \"SmartContract/Betting.sol\":2271:2276  state */\n      0x00\n      dup1\n      sload\n      swap1\n      0x0100\n      exp\n      swap1\n      div\n      0xff\n      and\n        /* \"SmartContract/Betting.sol\":2271:2299  state == BettingState.Closed */\n      0x02\n      dup2\n      gt\n      iszero\n      tag_135\n      jumpi\n      tag_136\n      tag_73\n      jump\t// in\n    tag_136:\n    tag_135:\n      eq\n        /* \"SmartContract/Betting.sol\":2263:2337  require(state == BettingState.Closed, \"Betting must be closed to resolve\") */\n      tag_137\n      jumpi\n      mload(0x40)\n      0x08c379a000000000000000000000000000000000000000000000000000000000\n      dup2\n      mstore\n      0x04\n      add\n      tag_138\n      swap1\n      tag_139\n      jump\t// in\n    tag_138:\n      mload(0x40)\n      dup1\n      swap2\n      sub\n      swap1\n      revert\n    tag_137:\n        /* \"SmartContract/Betting.sol\":2372:2382  Team.TeamA */\n      0x01\n        /* \"SmartContract/Betting.sol\":2356:2382  _winningTeam == Team.TeamA */\n      0x02\n      dup2\n      gt\n      iszero\n      tag_140\n      jumpi\n      tag_141\n      tag_73\n      jump\t// in\n    tag_141:\n    tag_140:\n        /* \"SmartContract/Betting.sol\":2356:2368  _winningTeam */\n      dup2\n        /* \"SmartContract/Betting.sol\":2356:2382  _winningTeam == Team.TeamA */\n      0x02\n      dup2\n      gt\n      iszero\n      tag_142\n      jumpi\n      tag_143\n      tag_73\n      jump\t// in\n    tag_143:\n    tag_142:\n      eq\n        /* \"SmartContract/Betting.sol\":2356:2412  _winningTeam == Team.TeamA || _winningTeam == Team.TeamB */\n      dup1\n      tag_144\n      jumpi\n      pop\n        /* \"SmartContract/Betting.sol\":2402:2412  Team.TeamB */\n      0x02\n        /* \"SmartContract/Betting.sol\":2386:2412  _winningTeam == Team.TeamB */\n      dup1\n      dup2\n      gt\n      iszero\n      tag_145\n      jumpi\n      tag_146\n      tag_73\n      jump\t// in\n    tag_146:\n    tag_145:\n        /* \"SmartContract/Betting.sol\":2386:2398  _winningTeam */\n      dup2\n        /* \"SmartContract/Betting.sol\":2386:2412  _winningTeam == Team.TeamB */\n      0x02\n      dup2\n      gt\n      iszero\n      tag_147\n      jumpi\n      tag_148\n      tag_73\n      jump\t// in\n    tag_148:\n    tag_147:\n      eq\n        /* \"SmartContract/Betting.sol\":2356:2412  _winningTeam == Team.TeamA || _winningTeam == Team.TeamB */\n    tag_144:\n        /* \"SmartContract/Betting.sol\":2348:2437  require(_winningTeam == Team.TeamA || _winningTeam == Team.TeamB, \"Invalid winning team\") */\n      tag_149\n      jumpi\n      mload(0x40)\n      0x08c379a000000000000000000000000000000000000000000000000000000000\n      dup2\n      mstore\n      0x04\n      add\n      tag_150\n      swap1\n      tag_151\n      jump\t// in\n    tag_150:\n      mload(0x40)\n      dup1\n      swap2\n      sub\n      swap1\n      revert\n    tag_149:\n        /* \"SmartContract/Betting.sol\":2456:2477  BettingState.Resolved */\n      0x02\n        /* \"SmartContract/Betting.sol\":2448:2453  state */\n      0x00\n      dup1\n        /* \"SmartContract/Betting.sol\":2448:2477  state = BettingState.Resolved */\n      0x0100\n      exp\n      dup2\n      sload\n      dup2\n      0xff\n      mul\n      not\n      and\n      swap1\n      dup4\n      0x02\n      dup2\n      gt\n      iszero\n      tag_152\n      jumpi\n      tag_153\n      tag_73\n      jump\t// in\n    tag_153:\n    tag_152:\n      mul\n      or\n      swap1\n      sstore\n      pop\n        /* \"SmartContract/Betting.sol\":2502:2514  _winningTeam */\n      dup1\n        /* \"SmartContract/Betting.sol\":2488:2499  winningTeam */\n      0x04\n      0x14\n        /* \"SmartContract/Betting.sol\":2488:2514  winningTeam = _winningTeam */\n      0x0100\n      exp\n      dup2\n      sload\n      dup2\n      0xff\n      mul\n      not\n      and\n      swap1\n      dup4\n      0x02\n      dup2\n      gt\n      iszero\n      tag_154\n      jumpi\n      tag_155\n      tag_73\n      jump\t// in\n    tag_155:\n    tag_154:\n      mul\n      or\n      swap1\n      sstore\n      pop\n        /* \"SmartContract/Betting.sol\":2530:2555  BetResolved(_winningTeam) */\n      0xd6bcd4b6873d691163f1aff2d5585378623aef08e17513a5253eabe39c65dc50\n        /* \"SmartContract/Betting.sol\":2542:2554  _winningTeam */\n      dup2\n        /* \"SmartContract/Betting.sol\":2530:2555  BetResolved(_winningTeam) */\n      mload(0x40)\n      tag_156\n      swap2\n      swap1\n      tag_62\n      jump\t// in\n    tag_156:\n      mload(0x40)\n      dup1\n      swap2\n      sub\n      swap1\n      log1\n        /* \"SmartContract/Betting.sol\":2092:2563  function resolveBet(Team _winningTeam) external {... */\n      pop\n      jump\t// out\n        /* \"SmartContract/Betting.sol\":186:211  BettingState public state */\n    tag_52:\n      0x00\n      dup1\n      sload\n      swap1\n      0x0100\n      exp\n      swap1\n      div\n      0xff\n      and\n      dup2\n      jump\t// out\n        /* \"SmartContract/Betting.sol\":2952:3798  function withdrawWinnings() external {... */\n    tag_57:\n        /* \"SmartContract/Betting.sol\":3017:3038  BettingState.Resolved */\n      0x02\n        /* \"SmartContract/Betting.sol\":3008:3038  state == BettingState.Resolved */\n      dup1\n      dup2\n      gt\n      iszero\n      tag_158\n      jumpi\n      tag_159\n      tag_73\n      jump\t// in\n    tag_159:\n    tag_158:\n        /* \"SmartContract/Betting.sol\":3008:3013  state */\n      0x00\n      dup1\n      sload\n      swap1\n      0x0100\n      exp\n      swap1\n      div\n      0xff\n      and\n        /* \"SmartContract/Betting.sol\":3008:3038  state == BettingState.Resolved */\n      0x02\n      dup2\n      gt\n      iszero\n      tag_160\n      jumpi\n      tag_161\n      tag_73\n      jump\t// in\n    tag_161:\n    tag_160:\n      eq\n        /* \"SmartContract/Betting.sol\":3000:3076  require(state == BettingState.Resolved, \"Betting has not been resolved yet\") */\n      tag_162\n      jumpi\n      mload(0x40)\n      0x08c379a000000000000000000000000000000000000000000000000000000000\n      dup2\n      mstore\n      0x04\n      add\n      tag_163\n      swap1\n      tag_164\n      jump\t// in\n    tag_163:\n      mload(0x40)\n      dup1\n      swap2\n      sub\n      swap1\n      revert\n    tag_162:\n        /* \"SmartContract/Betting.sol\":3087:3106  Bet storage userBet */\n      0x00\n        /* \"SmartContract/Betting.sol\":3109:3113  bets */\n      0x01\n        /* \"SmartContract/Betting.sol\":3109:3125  bets[msg.sender] */\n      0x00\n        /* \"SmartContract/Betting.sol\":3114:3124  msg.sender */\n      caller\n        /* \"SmartContract/Betting.sol\":3109:3125  bets[msg.sender] */\n      0xffffffffffffffffffffffffffffffffffffffff\n      and\n      0xffffffffffffffffffffffffffffffffffffffff\n      and\n      dup2\n      mstore\n      0x20\n      add\n      swap1\n      dup2\n      mstore\n      0x20\n      add\n      0x00\n      keccak256\n        /* \"SmartContract/Betting.sol\":3087:3125  Bet storage userBet = bets[msg.sender] */\n      swap1\n      pop\n        /* \"SmartContract/Betting.sol\":3161:3162  0 */\n      0x00\n        /* \"SmartContract/Betting.sol\":3144:3151  userBet */\n      dup2\n        /* \"SmartContract/Betting.sol\":3144:3158  userBet.amount */\n      0x00\n      add\n      sload\n        /* \"SmartContract/Betting.sol\":3144:3162  userBet.amount > 0 */\n      gt\n        /* \"SmartContract/Betting.sol\":3136:3180  require(userBet.amount > 0, \"No bet placed\") */\n      tag_165\n      jumpi\n      mload(0x40)\n      0x08c379a000000000000000000000000000000000000000000000000000000000\n      dup2\n      mstore\n      0x04\n      add\n      tag_166\n      swap1\n      tag_167\n      jump\t// in\n    tag_166:\n      mload(0x40)\n      dup1\n      swap2\n      sub\n      swap1\n      revert\n    tag_165:\n        /* \"SmartContract/Betting.sol\":3200:3207  userBet */\n      dup1\n        /* \"SmartContract/Betting.sol\":3200:3217  userBet.withdrawn */\n      0x01\n      add\n      0x01\n      swap1\n      sload\n      swap1\n      0x0100\n      exp\n      swap1\n      div\n      0xff\n      and\n        /* \"SmartContract/Betting.sol\":3199:3217  !userBet.withdrawn */\n      iszero\n        /* \"SmartContract/Betting.sol\":3191:3248  require(!userBet.withdrawn, \"Winnings already withdrawn\") */\n      tag_168\n      jumpi\n      mload(0x40)\n      0x08c379a000000000000000000000000000000000000000000000000000000000\n      dup2\n      mstore\n      0x04\n      add\n      tag_169\n      swap1\n      tag_170\n      jump\t// in\n    tag_169:\n      mload(0x40)\n      dup1\n      swap2\n      sub\n      swap1\n      revert\n    tag_168:\n        /* \"SmartContract/Betting.sol\":3291:3302  winningTeam */\n      0x04\n      0x14\n      swap1\n      sload\n      swap1\n      0x0100\n      exp\n      swap1\n      div\n      0xff\n      and\n        /* \"SmartContract/Betting.sol\":3267:3302  userBet.selectedTeam == winningTeam */\n      0x02\n      dup2\n      gt\n      iszero\n      tag_171\n      jumpi\n      tag_172\n      tag_73\n      jump\t// in\n    tag_172:\n    tag_171:\n        /* \"SmartContract/Betting.sol\":3267:3274  userBet */\n      dup2\n        /* \"SmartContract/Betting.sol\":3267:3287  userBet.selectedTeam */\n      0x01\n      add\n      0x00\n      swap1\n      sload\n      swap1\n      0x0100\n      exp\n      swap1\n      div\n      0xff\n      and\n        /* \"SmartContract/Betting.sol\":3267:3302  userBet.selectedTeam == winningTeam */\n      0x02\n      dup2\n      gt\n      iszero\n      tag_173\n      jumpi\n      tag_174\n      tag_73\n      jump\t// in\n    tag_174:\n    tag_173:\n      eq\n        /* \"SmartContract/Betting.sol\":3259:3342  require(userBet.selectedTeam == winningTeam, \"You did not bet on the winning team\") */\n      tag_175\n      jumpi\n      mload(0x40)\n      0x08c379a000000000000000000000000000000000000000000000000000000000\n      dup2\n      mstore\n      0x04\n      add\n      tag_176\n      swap1\n      tag_177\n      jump\t// in\n    tag_176:\n      mload(0x40)\n      dup1\n      swap2\n      sub\n      swap1\n      revert\n    tag_175:\n        /* \"SmartContract/Betting.sol\":3355:3366  uint payout */\n      0x00\n        /* \"SmartContract/Betting.sol\":3396:3406  Team.TeamA */\n      0x01\n        /* \"SmartContract/Betting.sol\":3381:3406  winningTeam == Team.TeamA */\n      0x02\n      dup2\n      gt\n      iszero\n      tag_178\n      jumpi\n      tag_179\n      tag_73\n      jump\t// in\n    tag_179:\n    tag_178:\n        /* \"SmartContract/Betting.sol\":3381:3392  winningTeam */\n      0x04\n      0x14\n      swap1\n      sload\n      swap1\n      0x0100\n      exp\n      swap1\n      div\n      0xff\n      and\n        /* \"SmartContract/Betting.sol\":3381:3406  winningTeam == Team.TeamA */\n      0x02\n      dup2\n      gt\n      iszero\n      tag_180\n      jumpi\n      tag_181\n      tag_73\n      jump\t// in\n    tag_181:\n    tag_180:\n      sub\n        /* \"SmartContract/Betting.sol\":3377:3654  if (winningTeam == Team.TeamA) {... */\n      tag_182\n      jumpi\n        /* \"SmartContract/Betting.sol\":3497:3516  totalBetAmountTeamA */\n      sload(0x02)\n        /* \"SmartContract/Betting.sol\":3473:3492  totalBetAmountTeamB */\n      sload(0x03)\n        /* \"SmartContract/Betting.sol\":3451:3470  totalBetAmountTeamA */\n      sload(0x02)\n        /* \"SmartContract/Betting.sol\":3451:3492  totalBetAmountTeamA + totalBetAmountTeamB */\n      tag_183\n      swap2\n      swap1\n      tag_124\n      jump\t// in\n    tag_183:\n        /* \"SmartContract/Betting.sol\":3433:3440  userBet */\n      dup4\n        /* \"SmartContract/Betting.sol\":3433:3447  userBet.amount */\n      0x00\n      add\n      sload\n        /* \"SmartContract/Betting.sol\":3433:3493  userBet.amount * (totalBetAmountTeamA + totalBetAmountTeamB) */\n      tag_184\n      swap2\n      swap1\n      tag_185\n      jump\t// in\n    tag_184:\n        /* \"SmartContract/Betting.sol\":3432:3516  (userBet.amount * (totalBetAmountTeamA + totalBetAmountTeamB)) / totalBetAmountTeamA */\n      tag_186\n      swap2\n      swap1\n      tag_187\n      jump\t// in\n    tag_186:\n        /* \"SmartContract/Betting.sol\":3423:3516  payout = (userBet.amount * (totalBetAmountTeamA + totalBetAmountTeamB)) / totalBetAmountTeamA */\n      swap1\n      pop\n        /* \"SmartContract/Betting.sol\":3377:3654  if (winningTeam == Team.TeamA) {... */\n      jump(tag_188)\n    tag_182:\n        /* \"SmartContract/Betting.sol\":3623:3642  totalBetAmountTeamB */\n      sload(0x03)\n        /* \"SmartContract/Betting.sol\":3599:3618  totalBetAmountTeamB */\n      sload(0x03)\n        /* \"SmartContract/Betting.sol\":3577:3596  totalBetAmountTeamA */\n      sload(0x02)\n        /* \"SmartContract/Betting.sol\":3577:3618  totalBetAmountTeamA + totalBetAmountTeamB */\n      tag_189\n      swap2\n      swap1\n      tag_124\n      jump\t// in\n    tag_189:\n        /* \"SmartContract/Betting.sol\":3559:3566  userBet */\n      dup4\n        /* \"SmartContract/Betting.sol\":3559:3573  userBet.amount */\n      0x00\n      add\n      sload\n        /* \"SmartContract/Betting.sol\":3559:3619  userBet.amount * (totalBetAmountTeamA + totalBetAmountTeamB) */\n      tag_190\n      swap2\n      swap1\n      tag_185\n      jump\t// in\n    tag_190:\n        /* \"SmartContract/Betting.sol\":3558:3642  (userBet.amount * (totalBetAmountTeamA + totalBetAmountTeamB)) / totalBetAmountTeamB */\n      tag_191\n      swap2\n      swap1\n      tag_187\n      jump\t// in\n    tag_191:\n        /* \"SmartContract/Betting.sol\":3549:3642  payout = (userBet.amount * (totalBetAmountTeamA + totalBetAmountTeamB)) / totalBetAmountTeamB */\n      swap1\n      pop\n        /* \"SmartContract/Betting.sol\":3377:3654  if (winningTeam == Team.TeamA) {... */\n    tag_188:\n        /* \"SmartContract/Betting.sol\":3686:3690  true */\n      0x01\n        /* \"SmartContract/Betting.sol\":3666:3673  userBet */\n      dup3\n        /* \"SmartContract/Betting.sol\":3666:3683  userBet.withdrawn */\n      0x01\n      add\n      0x01\n        /* \"SmartContract/Betting.sol\":3666:3690  userBet.withdrawn = true */\n      0x0100\n      exp\n      dup2\n      sload\n      dup2\n      0xff\n      mul\n      not\n      and\n      swap1\n      dup4\n      iszero\n      iszero\n      mul\n      or\n      swap1\n      sstore\n      pop\n        /* \"SmartContract/Betting.sol\":3709:3719  msg.sender */\n      caller\n        /* \"SmartContract/Betting.sol\":3701:3729  payable(msg.sender).transfer */\n      0xffffffffffffffffffffffffffffffffffffffff\n      and\n        /* \"SmartContract/Betting.sol\":3701:3737  payable(msg.sender).transfer(payout) */\n      0x08fc\n        /* \"SmartContract/Betting.sol\":3730:3736  payout */\n      dup3\n        /* \"SmartContract/Betting.sol\":3701:3737  payable(msg.sender).transfer(payout) */\n      swap1\n      dup2\n      iszero\n      mul\n      swap1\n      mload(0x40)\n      0x00\n      mload(0x40)\n      dup1\n      dup4\n      sub\n      dup2\n      dup6\n      dup9\n      dup9\n      call\n      swap4\n      pop\n      pop\n      pop\n      pop\n      iszero\n      dup1\n      iszero\n      tag_193\n      jumpi\n      returndatasize\n      0x00\n      dup1\n      returndatacopy\n      revert(0x00, returndatasize)\n    tag_193:\n      pop\n        /* \"SmartContract/Betting.sol\":3771:3781  msg.sender */\n      caller\n        /* \"SmartContract/Betting.sol\":3753:3790  WinningsWithdrawn(msg.sender, payout) */\n      0xffffffffffffffffffffffffffffffffffffffff\n      and\n      0x24215bbaf0832fa4d6ffef16dee3971d8b714921fef3ad63f793d578983c6dc2\n        /* \"SmartContract/Betting.sol\":3783:3789  payout */\n      dup3\n        /* \"SmartContract/Betting.sol\":3753:3790  WinningsWithdrawn(msg.sender, payout) */\n      mload(0x40)\n      tag_194\n      swap2\n      swap1\n      tag_33\n      jump\t// in\n    tag_194:\n      mload(0x40)\n      dup1\n      swap2\n      sub\n      swap1\n      log2\n        /* \"SmartContract/Betting.sol\":2989:3798  {... */\n      pop\n      pop\n        /* \"SmartContract/Betting.sol\":2952:3798  function withdrawWinnings() external {... */\n      jump\t// out\n        /* \"SmartContract/Betting.sol\":741:764  Team public winningTeam */\n    tag_60:\n      0x04\n      0x14\n      swap1\n      sload\n      swap1\n      0x0100\n      exp\n      swap1\n      div\n      0xff\n      and\n      dup2\n      jump\t// out\n        /* \"SmartContract/Betting.sol\":561:592  uint public totalBetAmountTeamA */\n    tag_65:\n      sload(0x02)\n      dup2\n      jump\t// out\n        /* \"#utility.yul\":7:176   */\n    tag_195:\n        /* \"#utility.yul\":91:102   */\n      0x00\n        /* \"#utility.yul\":125:131   */\n      dup3\n        /* \"#utility.yul\":120:123   */\n      dup3\n        /* \"#utility.yul\":113:132   */\n      mstore\n        /* \"#utility.yul\":165:169   */\n      0x20\n        /* \"#utility.yul\":160:163   */\n      dup3\n        /* \"#utility.yul\":156:170   */\n      add\n        /* \"#utility.yul\":141:170   */\n      swap1\n      pop\n        /* \"#utility.yul\":7:176   */\n      swap3\n      swap2\n      pop\n      pop\n      jump\t// out\n        /* \"#utility.yul\":182:360   */\n    tag_196:\n        /* \"#utility.yul\":322:352   */\n      0x446972656374207472616e7366657273206e6f7420616c6c6f77656400000000\n        /* \"#utility.yul\":318:319   */\n      0x00\n        /* \"#utility.yul\":310:316   */\n      dup3\n        /* \"#utility.yul\":306:320   */\n      add\n        /* \"#utility.yul\":299:353   */\n      mstore\n        /* \"#utility.yul\":182:360   */\n      pop\n      jump\t// out\n        /* \"#utility.yul\":366:732   */\n    tag_197:\n        /* \"#utility.yul\":508:511   */\n      0x00\n        /* \"#utility.yul\":529:596   */\n      tag_250\n        /* \"#utility.yul\":593:595   */\n      0x1c\n        /* \"#utility.yul\":588:591   */\n      dup4\n        /* \"#utility.yul\":529:596   */\n      tag_195\n      jump\t// in\n    tag_250:\n        /* \"#utility.yul\":522:596   */\n      swap2\n      pop\n        /* \"#utility.yul\":605:698   */\n      tag_251\n        /* \"#utility.yul\":694:697   */\n      dup3\n        /* \"#utility.yul\":605:698   */\n      tag_196\n      jump\t// in\n    tag_251:\n        /* \"#utility.yul\":723:725   */\n      0x20\n        /* \"#utility.yul\":718:721   */\n      dup3\n        /* \"#utility.yul\":714:726   */\n      add\n        /* \"#utility.yul\":707:726   */\n      swap1\n      pop\n        /* \"#utility.yul\":366:732   */\n      swap2\n      swap1\n      pop\n      jump\t// out\n        /* \"#utility.yul\":738:1157   */\n    tag_18:\n        /* \"#utility.yul\":904:908   */\n      0x00\n        /* \"#utility.yul\":942:944   */\n      0x20\n        /* \"#utility.yul\":931:940   */\n      dup3\n        /* \"#utility.yul\":927:945   */\n      add\n        /* \"#utility.yul\":919:945   */\n      swap1\n      pop\n        /* \"#utility.yul\":991:1000   */\n      dup2\n        /* \"#utility.yul\":985:989   */\n      dup2\n        /* \"#utility.yul\":981:1001   */\n      sub\n        /* \"#utility.yul\":977:978   */\n      0x00\n        /* \"#utility.yul\":966:975   */\n      dup4\n        /* \"#utility.yul\":962:979   */\n      add\n        /* \"#utility.yul\":955:1002   */\n      mstore\n        /* \"#utility.yul\":1019:1150   */\n      tag_253\n        /* \"#utility.yul\":1145:1149   */\n      dup2\n        /* \"#utility.yul\":1019:1150   */\n      tag_197\n      jump\t// in\n    tag_253:\n        /* \"#utility.yul\":1011:1150   */\n      swap1\n      pop\n        /* \"#utility.yul\":738:1157   */\n      swap2\n      swap1\n      pop\n      jump\t// out\n        /* \"#utility.yul\":1244:1361   */\n    tag_199:\n        /* \"#utility.yul\":1353:1354   */\n      0x00\n        /* \"#utility.yul\":1350:1351   */\n      dup1\n        /* \"#utility.yul\":1343:1355   */\n      revert\n        /* \"#utility.yul\":1490:1596   */\n    tag_201:\n        /* \"#utility.yul\":1570:1571   */\n      0x03\n        /* \"#utility.yul\":1563:1568   */\n      dup2\n        /* \"#utility.yul\":1560:1572   */\n      lt\n        /* \"#utility.yul\":1550:1590   */\n      tag_258\n      jumpi\n        /* \"#utility.yul\":1586:1587   */\n      0x00\n        /* \"#utility.yul\":1583:1584   */\n      dup1\n        /* \"#utility.yul\":1576:1588   */\n      revert\n        /* \"#utility.yul\":1550:1590   */\n    tag_258:\n        /* \"#utility.yul\":1490:1596   */\n      pop\n      jump\t// out\n        /* \"#utility.yul\":1602:1755   */\n    tag_202:\n        /* \"#utility.yul\":1655:1660   */\n      0x00\n        /* \"#utility.yul\":1693:1699   */\n      dup2\n        /* \"#utility.yul\":1680:1700   */\n      calldataload\n        /* \"#utility.yul\":1671:1700   */\n      swap1\n      pop\n        /* \"#utility.yul\":1709:1749   */\n      tag_260\n        /* \"#utility.yul\":1743:1748   */\n      dup2\n        /* \"#utility.yul\":1709:1749   */\n      tag_201\n      jump\t// in\n    tag_260:\n        /* \"#utility.yul\":1602:1755   */\n      swap3\n      swap2\n      pop\n      pop\n      jump\t// out\n        /* \"#utility.yul\":1761:2104   */\n    tag_27:\n        /* \"#utility.yul\":1827:1833   */\n      0x00\n        /* \"#utility.yul\":1876:1878   */\n      0x20\n        /* \"#utility.yul\":1864:1873   */\n      dup3\n        /* \"#utility.yul\":1855:1862   */\n      dup5\n        /* \"#utility.yul\":1851:1874   */\n      sub\n        /* \"#utility.yul\":1847:1879   */\n      slt\n        /* \"#utility.yul\":1844:1963   */\n      iszero\n      tag_262\n      jumpi\n        /* \"#utility.yul\":1882:1961   */\n      tag_263\n      tag_199\n      jump\t// in\n    tag_263:\n        /* \"#utility.yul\":1844:1963   */\n    tag_262:\n        /* \"#utility.yul\":2002:2003   */\n      0x00\n        /* \"#utility.yul\":2027:2087   */\n      tag_264\n        /* \"#utility.yul\":2079:2086   */\n      dup5\n        /* \"#utility.yul\":2070:2076   */\n      dup3\n        /* \"#utility.yul\":2059:2068   */\n      dup6\n        /* \"#utility.yul\":2055:2077   */\n      add\n        /* \"#utility.yul\":2027:2087   */\n      tag_202\n      jump\t// in\n    tag_264:\n        /* \"#utility.yul\":2017:2087   */\n      swap2\n      pop\n        /* \"#utility.yul\":1973:2097   */\n      pop\n        /* \"#utility.yul\":1761:2104   */\n      swap3\n      swap2\n      pop\n      pop\n      jump\t// out\n        /* \"#utility.yul\":2110:2187   */\n    tag_203:\n        /* \"#utility.yul\":2147:2154   */\n      0x00\n        /* \"#utility.yul\":2176:2181   */\n      dup2\n        /* \"#utility.yul\":2165:2181   */\n      swap1\n      pop\n        /* \"#utility.yul\":2110:2187   */\n      swap2\n      swap1\n      pop\n      jump\t// out\n        /* \"#utility.yul\":2193:2311   */\n    tag_204:\n        /* \"#utility.yul\":2280:2304   */\n      tag_267\n        /* \"#utility.yul\":2298:2303   */\n      dup2\n        /* \"#utility.yul\":2280:2304   */\n      tag_203\n      jump\t// in\n    tag_267:\n        /* \"#utility.yul\":2275:2278   */\n      dup3\n        /* \"#utility.yul\":2268:2305   */\n      mstore\n        /* \"#utility.yul\":2193:2311   */\n      pop\n      pop\n      jump\t// out\n        /* \"#utility.yul\":2317:2539   */\n    tag_33:\n        /* \"#utility.yul\":2410:2414   */\n      0x00\n        /* \"#utility.yul\":2448:2450   */\n      0x20\n        /* \"#utility.yul\":2437:2446   */\n      dup3\n        /* \"#utility.yul\":2433:2451   */\n      add\n        /* \"#utility.yul\":2425:2451   */\n      swap1\n      pop\n        /* \"#utility.yul\":2461:2532   */\n      tag_269\n        /* \"#utility.yul\":2529:2530   */\n      0x00\n        /* \"#utility.yul\":2518:2527   */\n      dup4\n        /* \"#utility.yul\":2514:2531   */\n      add\n        /* \"#utility.yul\":2505:2511   */\n      dup5\n        /* \"#utility.yul\":2461:2532   */\n      tag_204\n      jump\t// in\n    tag_269:\n        /* \"#utility.yul\":2317:2539   */\n      swap3\n      swap2\n      pop\n      pop\n      jump\t// out\n        /* \"#utility.yul\":2545:2671   */\n    tag_205:\n        /* \"#utility.yul\":2582:2589   */\n      0x00\n        /* \"#utility.yul\":2622:2664   */\n      0xffffffffffffffffffffffffffffffffffffffff\n        /* \"#utility.yul\":2615:2620   */\n      dup3\n        /* \"#utility.yul\":2611:2665   */\n      and\n        /* \"#utility.yul\":2600:2665   */\n      swap1\n      pop\n        /* \"#utility.yul\":2545:2671   */\n      swap2\n      swap1\n      pop\n      jump\t// out\n        /* \"#utility.yul\":2677:2773   */\n    tag_206:\n        /* \"#utility.yul\":2714:2721   */\n      0x00\n        /* \"#utility.yul\":2743:2767   */\n      tag_272\n        /* \"#utility.yul\":2761:2766   */\n      dup3\n        /* \"#utility.yul\":2743:2767   */\n      tag_205\n      jump\t// in\n    tag_272:\n        /* \"#utility.yul\":2732:2767   */\n      swap1\n      pop\n        /* \"#utility.yul\":2677:2773   */\n      swap2\n      swap1\n      pop\n      jump\t// out\n        /* \"#utility.yul\":2779:2901   */\n    tag_207:\n        /* \"#utility.yul\":2852:2876   */\n      tag_274\n        /* \"#utility.yul\":2870:2875   */\n      dup2\n        /* \"#utility.yul\":2852:2876   */\n      tag_206\n      jump\t// in\n    tag_274:\n        /* \"#utility.yul\":2845:2850   */\n      dup2\n        /* \"#utility.yul\":2842:2877   */\n      eq\n        /* \"#utility.yul\":2832:2895   */\n      tag_275\n      jumpi\n        /* \"#utility.yul\":2891:2892   */\n      0x00\n        /* \"#utility.yul\":2888:2889   */\n      dup1\n        /* \"#utility.yul\":2881:2893   */\n      revert\n        /* \"#utility.yul\":2832:2895   */\n    tag_275:\n        /* \"#utility.yul\":2779:2901   */\n      pop\n      jump\t// out\n        /* \"#utility.yul\":2907:3046   */\n    tag_208:\n        /* \"#utility.yul\":2953:2958   */\n      0x00\n        /* \"#utility.yul\":2991:2997   */\n      dup2\n        /* \"#utility.yul\":2978:2998   */\n      calldataload\n        /* \"#utility.yul\":2969:2998   */\n      swap1\n      pop\n        /* \"#utility.yul\":3007:3040   */\n      tag_277\n        /* \"#utility.yul\":3034:3039   */\n      dup2\n        /* \"#utility.yul\":3007:3040   */\n      tag_207\n      jump\t// in\n    tag_277:\n        /* \"#utility.yul\":2907:3046   */\n      swap3\n      swap2\n      pop\n      pop\n      jump\t// out\n        /* \"#utility.yul\":3052:3381   */\n    tag_37:\n        /* \"#utility.yul\":3111:3117   */\n      0x00\n        /* \"#utility.yul\":3160:3162   */\n      0x20\n        /* \"#utility.yul\":3148:3157   */\n      dup3\n        /* \"#utility.yul\":3139:3146   */\n      dup5\n        /* \"#utility.yul\":3135:3158   */\n      sub\n        /* \"#utility.yul\":3131:3163   */\n      slt\n        /* \"#utility.yul\":3128:3247   */\n      iszero\n      tag_279\n      jumpi\n        /* \"#utility.yul\":3166:3245   */\n      tag_280\n      tag_199\n      jump\t// in\n    tag_280:\n        /* \"#utility.yul\":3128:3247   */\n    tag_279:\n        /* \"#utility.yul\":3286:3287   */\n      0x00\n        /* \"#utility.yul\":3311:3364   */\n      tag_281\n        /* \"#utility.yul\":3356:3363   */\n      dup5\n        /* \"#utility.yul\":3347:3353   */\n      dup3\n        /* \"#utility.yul\":3336:3345   */\n      dup6\n        /* \"#utility.yul\":3332:3354   */\n      add\n        /* \"#utility.yul\":3311:3364   */\n      tag_208\n      jump\t// in\n    tag_281:\n        /* \"#utility.yul\":3301:3364   */\n      swap2\n      pop\n        /* \"#utility.yul\":3257:3374   */\n      pop\n        /* \"#utility.yul\":3052:3381   */\n      swap3\n      swap2\n      pop\n      pop\n      jump\t// out\n        /* \"#utility.yul\":3387:3567   */\n    tag_73:\n        /* \"#utility.yul\":3435:3512   */\n      0x4e487b7100000000000000000000000000000000000000000000000000000000\n        /* \"#utility.yul\":3432:3433   */\n      0x00\n        /* \"#utility.yul\":3425:3513   */\n      mstore\n        /* \"#utility.yul\":3532:3536   */\n      0x21\n        /* \"#utility.yul\":3529:3530   */\n      0x04\n        /* \"#utility.yul\":3522:3537   */\n      mstore\n        /* \"#utility.yul\":3556:3560   */\n      0x24\n        /* \"#utility.yul\":3553:3554   */\n      0x00\n        /* \"#utility.yul\":3546:3561   */\n      revert\n        /* \"#utility.yul\":3573:3685   */\n    tag_209:\n        /* \"#utility.yul\":3653:3654   */\n      0x03\n        /* \"#utility.yul\":3646:3651   */\n      dup2\n        /* \"#utility.yul\":3643:3655   */\n      lt\n        /* \"#utility.yul\":3633:3679   */\n      tag_284\n      jumpi\n        /* \"#utility.yul\":3659:3677   */\n      tag_285\n      tag_73\n      jump\t// in\n    tag_285:\n        /* \"#utility.yul\":3633:3679   */\n    tag_284:\n        /* \"#utility.yul\":3573:3685   */\n      pop\n      jump\t// out\n        /* \"#utility.yul\":3691:3816   */\n    tag_210:\n        /* \"#utility.yul\":3735:3742   */\n      0x00\n        /* \"#utility.yul\":3764:3769   */\n      dup2\n        /* \"#utility.yul\":3753:3769   */\n      swap1\n      pop\n        /* \"#utility.yul\":3770:3810   */\n      tag_287\n        /* \"#utility.yul\":3804:3809   */\n      dup3\n        /* \"#utility.yul\":3770:3810   */\n      tag_209\n      jump\t// in\n    tag_287:\n        /* \"#utility.yul\":3691:3816   */\n      swap2\n      swap1\n      pop\n      jump\t// out\n        /* \"#utility.yul\":3822:3947   */\n    tag_211:\n        /* \"#utility.yul\":3877:3886   */\n      0x00\n        /* \"#utility.yul\":3910:3941   */\n      tag_289\n        /* \"#utility.yul\":3935:3940   */\n      dup3\n        /* \"#utility.yul\":3910:3941   */\n      tag_210\n      jump\t// in\n    tag_289:\n        /* \"#utility.yul\":3897:3941   */\n      swap1\n      pop\n        /* \"#utility.yul\":3822:3947   */\n      swap2\n      swap1\n      pop\n      jump\t// out\n        /* \"#utility.yul\":3953:4094   */\n    tag_212:\n        /* \"#utility.yul\":4045:4087   */\n      tag_291\n        /* \"#utility.yul\":4081:4086   */\n      dup2\n        /* \"#utility.yul\":4045:4087   */\n      tag_211\n      jump\t// in\n    tag_291:\n        /* \"#utility.yul\":4040:4043   */\n      dup3\n        /* \"#utility.yul\":4033:4088   */\n      mstore\n        /* \"#utility.yul\":3953:4094   */\n      pop\n      pop\n      jump\t// out\n        /* \"#utility.yul\":4100:4190   */\n    tag_213:\n        /* \"#utility.yul\":4134:4141   */\n      0x00\n        /* \"#utility.yul\":4177:4182   */\n      dup2\n        /* \"#utility.yul\":4170:4183   */\n      iszero\n        /* \"#utility.yul\":4163:4184   */\n      iszero\n        /* \"#utility.yul\":4152:4184   */\n      swap1\n      pop\n        /* \"#utility.yul\":4100:4190   */\n      swap2\n      swap1\n      pop\n      jump\t// out\n        /* \"#utility.yul\":4196:4305   */\n    tag_214:\n        /* \"#utility.yul\":4277:4298   */\n      tag_294\n        /* \"#utility.yul\":4292:4297   */\n      dup2\n        /* \"#utility.yul\":4277:4298   */\n      tag_213\n      jump\t// in\n    tag_294:\n        /* \"#utility.yul\":4272:4275   */\n      dup3\n        /* \"#utility.yul\":4265:4299   */\n      mstore\n        /* \"#utility.yul\":4196:4305   */\n      pop\n      pop\n      jump\t// out\n        /* \"#utility.yul\":4311:4751   */\n    tag_40:\n        /* \"#utility.yul\":4459:4463   */\n      0x00\n        /* \"#utility.yul\":4497:4499   */\n      0x60\n        /* \"#utility.yul\":4486:4495   */\n      dup3\n        /* \"#utility.yul\":4482:4500   */\n      add\n        /* \"#utility.yul\":4474:4500   */\n      swap1\n      pop\n        /* \"#utility.yul\":4510:4581   */\n      tag_296\n        /* \"#utility.yul\":4578:4579   */\n      0x00\n        /* \"#utility.yul\":4567:4576   */\n      dup4\n        /* \"#utility.yul\":4563:4580   */\n      add\n        /* \"#utility.yul\":4554:4560   */\n      dup7\n        /* \"#utility.yul\":4510:4581   */\n      tag_204\n      jump\t// in\n    tag_296:\n        /* \"#utility.yul\":4591:4668   */\n      tag_297\n        /* \"#utility.yul\":4664:4666   */\n      0x20\n        /* \"#utility.yul\":4653:4662   */\n      dup4\n        /* \"#utility.yul\":4649:4667   */\n      add\n        /* \"#utility.yul\":4640:4646   */\n      dup6\n        /* \"#utility.yul\":4591:4668   */\n      tag_212\n      jump\t// in\n    tag_297:\n        /* \"#utility.yul\":4678:4744   */\n      tag_298\n        /* \"#utility.yul\":4740:4742   */\n      0x40\n        /* \"#utility.yul\":4729:4738   */\n      dup4\n        /* \"#utility.yul\":4725:4743   */\n      add\n        /* \"#utility.yul\":4716:4722   */\n      dup5\n        /* \"#utility.yul\":4678:4744   */\n      tag_214\n      jump\t// in\n    tag_298:\n        /* \"#utility.yul\":4311:4751   */\n      swap5\n      swap4\n      pop\n      pop\n      pop\n      pop\n      jump\t// out\n        /* \"#utility.yul\":4757:4875   */\n    tag_215:\n        /* \"#utility.yul\":4844:4868   */\n      tag_300\n        /* \"#utility.yul\":4862:4867   */\n      dup2\n        /* \"#utility.yul\":4844:4868   */\n      tag_206\n      jump\t// in\n    tag_300:\n        /* \"#utility.yul\":4839:4842   */\n      dup3\n        /* \"#utility.yul\":4832:4869   */\n      mstore\n        /* \"#utility.yul\":4757:4875   */\n      pop\n      pop\n      jump\t// out\n        /* \"#utility.yul\":4881:5103   */\n    tag_45:\n        /* \"#utility.yul\":4974:4978   */\n      0x00\n        /* \"#utility.yul\":5012:5014   */\n      0x20\n        /* \"#utility.yul\":5001:5010   */\n      dup3\n        /* \"#utility.yul\":4997:5015   */\n      add\n        /* \"#utility.yul\":4989:5015   */\n      swap1\n      pop\n        /* \"#utility.yul\":5025:5096   */\n      tag_302\n        /* \"#utility.yul\":5093:5094   */\n      0x00\n        /* \"#utility.yul\":5082:5091   */\n      dup4\n        /* \"#utility.yul\":5078:5095   */\n      add\n        /* \"#utility.yul\":5069:5075   */\n      dup5\n        /* \"#utility.yul\":5025:5096   */\n      tag_215\n      jump\t// in\n    tag_302:\n        /* \"#utility.yul\":4881:5103   */\n      swap3\n      swap2\n      pop\n      pop\n      jump\t// out\n        /* \"#utility.yul\":5109:5228   */\n    tag_216:\n        /* \"#utility.yul\":5196:5197   */\n      0x03\n        /* \"#utility.yul\":5189:5194   */\n      dup2\n        /* \"#utility.yul\":5186:5198   */\n      lt\n        /* \"#utility.yul\":5176:5222   */\n      tag_304\n      jumpi\n        /* \"#utility.yul\":5202:5220   */\n      tag_305\n      tag_73\n      jump\t// in\n    tag_305:\n        /* \"#utility.yul\":5176:5222   */\n    tag_304:\n        /* \"#utility.yul\":5109:5228   */\n      pop\n      jump\t// out\n        /* \"#utility.yul\":5234:5373   */\n    tag_217:\n        /* \"#utility.yul\":5285:5292   */\n      0x00\n        /* \"#utility.yul\":5314:5319   */\n      dup2\n        /* \"#utility.yul\":5303:5319   */\n      swap1\n      pop\n        /* \"#utility.yul\":5320:5367   */\n      tag_307\n        /* \"#utility.yul\":5361:5366   */\n      dup3\n        /* \"#utility.yul\":5320:5367   */\n      tag_216\n      jump\t// in\n    tag_307:\n        /* \"#utility.yul\":5234:5373   */\n      swap2\n      swap1\n      pop\n      jump\t// out\n        /* \"#utility.yul\":5379:5518   */\n    tag_218:\n        /* \"#utility.yul\":5441:5450   */\n      0x00\n        /* \"#utility.yul\":5474:5512   */\n      tag_309\n        /* \"#utility.yul\":5506:5511   */\n      dup3\n        /* \"#utility.yul\":5474:5512   */\n      tag_217\n      jump\t// in\n    tag_309:\n        /* \"#utility.yul\":5461:5512   */\n      swap1\n      pop\n        /* \"#utility.yul\":5379:5518   */\n      swap2\n      swap1\n      pop\n      jump\t// out\n        /* \"#utility.yul\":5524:5679   */\n    tag_219:\n        /* \"#utility.yul\":5623:5672   */\n      tag_311\n        /* \"#utility.yul\":5666:5671   */\n      dup2\n        /* \"#utility.yul\":5623:5672   */\n      tag_218\n      jump\t// in\n    tag_311:\n        /* \"#utility.yul\":5618:5621   */\n      dup3\n        /* \"#utility.yul\":5611:5673   */\n      mstore\n        /* \"#utility.yul\":5524:5679   */\n      pop\n      pop\n      jump\t// out\n        /* \"#utility.yul\":5685:5931   */\n    tag_54:\n        /* \"#utility.yul\":5790:5794   */\n      0x00\n        /* \"#utility.yul\":5828:5830   */\n      0x20\n        /* \"#utility.yul\":5817:5826   */\n      dup3\n        /* \"#utility.yul\":5813:5831   */\n      add\n        /* \"#utility.yul\":5805:5831   */\n      swap1\n      pop\n        /* \"#utility.yul\":5841:5924   */\n      tag_313\n        /* \"#utility.yul\":5921:5922   */\n      0x00\n        /* \"#utility.yul\":5910:5919   */\n      dup4\n        /* \"#utility.yul\":5906:5923   */\n      add\n        /* \"#utility.yul\":5897:5903   */\n      dup5\n        /* \"#utility.yul\":5841:5924   */\n      tag_219\n      jump\t// in\n    tag_313:\n        /* \"#utility.yul\":5685:5931   */\n      swap3\n      swap2\n      pop\n      pop\n      jump\t// out\n        /* \"#utility.yul\":5937:6169   */\n    tag_62:\n        /* \"#utility.yul\":6035:6039   */\n      0x00\n        /* \"#utility.yul\":6073:6075   */\n      0x20\n        /* \"#utility.yul\":6062:6071   */\n      dup3\n        /* \"#utility.yul\":6058:6076   */\n      add\n        /* \"#utility.yul\":6050:6076   */\n      swap1\n      pop\n        /* \"#utility.yul\":6086:6162   */\n      tag_315\n        /* \"#utility.yul\":6159:6160   */\n      0x00\n        /* \"#utility.yul\":6148:6157   */\n      dup4\n        /* \"#utility.yul\":6144:6161   */\n      add\n        /* \"#utility.yul\":6135:6141   */\n      dup5\n        /* \"#utility.yul\":6086:6162   */\n      tag_212\n      jump\t// in\n    tag_315:\n        /* \"#utility.yul\":5937:6169   */\n      swap3\n      swap2\n      pop\n      pop\n      jump\t// out\n        /* \"#utility.yul\":6175:6399   */\n    tag_220:\n        /* \"#utility.yul\":6315:6349   */\n      0x4f6e6c7920746865206f776e65722063616e2063616c6c20746869732066756e\n        /* \"#utility.yul\":6311:6312   */\n      0x00\n        /* \"#utility.yul\":6303:6309   */\n      dup3\n        /* \"#utility.yul\":6299:6313   */\n      add\n        /* \"#utility.yul\":6292:6350   */\n      mstore\n        /* \"#utility.yul\":6384:6391   */\n      0x6374696f6e000000000000000000000000000000000000000000000000000000\n        /* \"#utility.yul\":6379:6381   */\n      0x20\n        /* \"#utility.yul\":6371:6377   */\n      dup3\n        /* \"#utility.yul\":6367:6382   */\n      add\n        /* \"#utility.yul\":6360:6392   */\n      mstore\n        /* \"#utility.yul\":6175:6399   */\n      pop\n      jump\t// out\n        /* \"#utility.yul\":6405:6771   */\n    tag_221:\n        /* \"#utility.yul\":6547:6550   */\n      0x00\n        /* \"#utility.yul\":6568:6635   */\n      tag_318\n        /* \"#utility.yul\":6632:6634   */\n      0x25\n        /* \"#utility.yul\":6627:6630   */\n      dup4\n        /* \"#utility.yul\":6568:6635   */\n      tag_195\n      jump\t// in\n    tag_318:\n        /* \"#utility.yul\":6561:6635   */\n      swap2\n      pop\n        /* \"#utility.yul\":6644:6737   */\n      tag_319\n        /* \"#utility.yul\":6733:6736   */\n      dup3\n        /* \"#utility.yul\":6644:6737   */\n      tag_220\n      jump\t// in\n    tag_319:\n        /* \"#utility.yul\":6762:6764   */\n      0x40\n        /* \"#utility.yul\":6757:6760   */\n      dup3\n        /* \"#utility.yul\":6753:6765   */\n      add\n        /* \"#utility.yul\":6746:6765   */\n      swap1\n      pop\n        /* \"#utility.yul\":6405:6771   */\n      swap2\n      swap1\n      pop\n      jump\t// out\n        /* \"#utility.yul\":6777:7196   */\n    tag_70:\n        /* \"#utility.yul\":6943:6947   */\n      0x00\n        /* \"#utility.yul\":6981:6983   */\n      0x20\n        /* \"#utility.yul\":6970:6979   */\n      dup3\n        /* \"#utility.yul\":6966:6984   */\n      add\n        /* \"#utility.yul\":6958:6984   */\n      swap1\n      pop\n        /* \"#utility.yul\":7030:7039   */\n      dup2\n        /* \"#utility.yul\":7024:7028   */\n      dup2\n        /* \"#utility.yul\":7020:7040   */\n      sub\n        /* \"#utility.yul\":7016:7017   */\n      0x00\n        /* \"#utility.yul\":7005:7014   */\n      dup4\n        /* \"#utility.yul\":7001:7018   */\n      add\n        /* \"#utility.yul\":6994:7041   */\n      mstore\n        /* \"#utility.yul\":7058:7189   */\n      tag_321\n        /* \"#utility.yul\":7184:7188   */\n      dup2\n        /* \"#utility.yul\":7058:7189   */\n      tag_221\n      jump\t// in\n    tag_321:\n        /* \"#utility.yul\":7050:7189   */\n      swap1\n      pop\n        /* \"#utility.yul\":6777:7196   */\n      swap2\n      swap1\n      pop\n      jump\t// out\n        /* \"#utility.yul\":7202:7426   */\n    tag_222:\n        /* \"#utility.yul\":7342:7376   */\n      0x42657474696e6720697320616c726561647920636c6f736564206f7220726573\n        /* \"#utility.yul\":7338:7339   */\n      0x00\n        /* \"#utility.yul\":7330:7336   */\n      dup3\n        /* \"#utility.yul\":7326:7340   */\n      add\n        /* \"#utility.yul\":7319:7377   */\n      mstore\n        /* \"#utility.yul\":7411:7418   */\n      0x6f6c766564000000000000000000000000000000000000000000000000000000\n        /* \"#utility.yul\":7406:7408   */\n      0x20\n        /* \"#utility.yul\":7398:7404   */\n      dup3\n        /* \"#utility.yul\":7394:7409   */\n      add\n        /* \"#utility.yul\":7387:7419   */\n      mstore\n        /* \"#utility.yul\":7202:7426   */\n      pop\n      jump\t// out\n        /* \"#utility.yul\":7432:7798   */\n    tag_223:\n        /* \"#utility.yul\":7574:7577   */\n      0x00\n        /* \"#utility.yul\":7595:7662   */\n      tag_324\n        /* \"#utility.yul\":7659:7661   */\n      0x25\n        /* \"#utility.yul\":7654:7657   */\n      dup4\n        /* \"#utility.yul\":7595:7662   */\n      tag_195\n      jump\t// in\n    tag_324:\n        /* \"#utility.yul\":7588:7662   */\n      swap2\n      pop\n        /* \"#utility.yul\":7671:7764   */\n      tag_325\n        /* \"#utility.yul\":7760:7763   */\n      dup3\n        /* \"#utility.yul\":7671:7764   */\n      tag_222\n      jump\t// in\n    tag_325:\n        /* \"#utility.yul\":7789:7791   */\n      0x40\n        /* \"#utility.yul\":7784:7787   */\n      dup3\n        /* \"#utility.yul\":7780:7792   */\n      add\n        /* \"#utility.yul\":7773:7792   */\n      swap1\n      pop\n        /* \"#utility.yul\":7432:7798   */\n      swap2\n      swap1\n      pop\n      jump\t// out\n        /* \"#utility.yul\":7804:8223   */\n    tag_78:\n        /* \"#utility.yul\":7970:7974   */\n      0x00\n        /* \"#utility.yul\":8008:8010   */\n      0x20\n        /* \"#utility.yul\":7997:8006   */\n      dup3\n        /* \"#utility.yul\":7993:8011   */\n      add\n        /* \"#utility.yul\":7985:8011   */\n      swap1\n      pop\n        /* \"#utility.yul\":8057:8066   */\n      dup2\n        /* \"#utility.yul\":8051:8055   */\n      dup2\n        /* \"#utility.yul\":8047:8067   */\n      sub\n        /* \"#utility.yul\":8043:8044   */\n      0x00\n        /* \"#utility.yul\":8032:8041   */\n      dup4\n        /* \"#utility.yul\":8028:8045   */\n      add\n        /* \"#utility.yul\":8021:8068   */\n      mstore\n        /* \"#utility.yul\":8085:8216   */\n      tag_327\n        /* \"#utility.yul\":8211:8215   */\n      dup2\n        /* \"#utility.yul\":8085:8216   */\n      tag_223\n      jump\t// in\n    tag_327:\n        /* \"#utility.yul\":8077:8216   */\n      swap1\n      pop\n        /* \"#utility.yul\":7804:8223   */\n      swap2\n      swap1\n      pop\n      jump\t// out\n        /* \"#utility.yul\":8229:8398   */\n    tag_224:\n        /* \"#utility.yul\":8369:8390   */\n      0x42657474696e67206973206e6f74206f70656e00000000000000000000000000\n        /* \"#utility.yul\":8365:8366   */\n      0x00\n        /* \"#utility.yul\":8357:8363   */\n      dup3\n        /* \"#utility.yul\":8353:8367   */\n      add\n        /* \"#utility.yul\":8346:8391   */\n      mstore\n        /* \"#utility.yul\":8229:8398   */\n      pop\n      jump\t// out\n        /* \"#utility.yul\":8404:8770   */\n    tag_225:\n        /* \"#utility.yul\":8546:8549   */\n      0x00\n        /* \"#utility.yul\":8567:8634   */\n      tag_330\n        /* \"#utility.yul\":8631:8633   */\n      0x13\n        /* \"#utility.yul\":8626:8629   */\n      dup4\n        /* \"#utility.yul\":8567:8634   */\n      tag_195\n      jump\t// in\n    tag_330:\n        /* \"#utility.yul\":8560:8634   */\n      swap2\n      pop\n        /* \"#utility.yul\":8643:8736   */\n      tag_331\n        /* \"#utility.yul\":8732:8735   */\n      dup3\n        /* \"#utility.yul\":8643:8736   */\n      tag_224\n      jump\t// in\n    tag_331:\n        /* \"#utility.yul\":8761:8763   */\n      0x20\n        /* \"#utility.yul\":8756:8759   */\n      dup3\n        /* \"#utility.yul\":8752:8764   */\n      add\n        /* \"#utility.yul\":8745:8764   */\n      swap1\n      pop\n        /* \"#utility.yul\":8404:8770   */\n      swap2\n      swap1\n      pop\n      jump\t// out\n        /* \"#utility.yul\":8776:9195   */\n    tag_88:\n        /* \"#utility.yul\":8942:8946   */\n      0x00\n        /* \"#utility.yul\":8980:8982   */\n      0x20\n        /* \"#utility.yul\":8969:8978   */\n      dup3\n        /* \"#utility.yul\":8965:8983   */\n      add\n        /* \"#utility.yul\":8957:8983   */\n      swap1\n      pop\n        /* \"#utility.yul\":9029:9038   */\n      dup2\n        /* \"#utility.yul\":9023:9027   */\n      dup2\n        /* \"#utility.yul\":9019:9039   */\n      sub\n        /* \"#utility.yul\":9015:9016   */\n      0x00\n        /* \"#utility.yul\":9004:9013   */\n      dup4\n        /* \"#utility.yul\":9000:9017   */\n      add\n        /* \"#utility.yul\":8993:9040   */\n      mstore\n        /* \"#utility.yul\":9057:9188   */\n      tag_333\n        /* \"#utility.yul\":9183:9187   */\n      dup2\n        /* \"#utility.yul\":9057:9188   */\n      tag_225\n      jump\t// in\n    tag_333:\n        /* \"#utility.yul\":9049:9188   */\n      swap1\n      pop\n        /* \"#utility.yul\":8776:9195   */\n      swap2\n      swap1\n      pop\n      jump\t// out\n        /* \"#utility.yul\":9201:9380   */\n    tag_226:\n        /* \"#utility.yul\":9341:9372   */\n      0x596f75206861766520616c726561647920706c61636564206120626574000000\n        /* \"#utility.yul\":9337:9338   */\n      0x00\n        /* \"#utility.yul\":9329:9335   */\n      dup3\n        /* \"#utility.yul\":9325:9339   */\n      add\n        /* \"#utility.yul\":9318:9373   */\n      mstore\n        /* \"#utility.yul\":9201:9380   */\n      pop\n      jump\t// out\n        /* \"#utility.yul\":9386:9752   */\n    tag_227:\n        /* \"#utility.yul\":9528:9531   */\n      0x00\n        /* \"#utility.yul\":9549:9616   */\n      tag_336\n        /* \"#utility.yul\":9613:9615   */\n      0x1d\n        /* \"#utility.yul\":9608:9611   */\n      dup4\n        /* \"#utility.yul\":9549:9616   */\n      tag_195\n      jump\t// in\n    tag_336:\n        /* \"#utility.yul\":9542:9616   */\n      swap2\n      pop\n        /* \"#utility.yul\":9625:9718   */\n      tag_337\n        /* \"#utility.yul\":9714:9717   */\n      dup3\n        /* \"#utility.yul\":9625:9718   */\n      tag_226\n      jump\t// in\n    tag_337:\n        /* \"#utility.yul\":9743:9745   */\n      0x20\n        /* \"#utility.yul\":9738:9741   */\n      dup3\n        /* \"#utility.yul\":9734:9746   */\n      add\n        /* \"#utility.yul\":9727:9746   */\n      swap1\n      pop\n        /* \"#utility.yul\":9386:9752   */\n      swap2\n      swap1\n      pop\n      jump\t// out\n        /* \"#utility.yul\":9758:10177   */\n    tag_98:\n        /* \"#utility.yul\":9924:9928   */\n      0x00\n        /* \"#utility.yul\":9962:9964   */\n      0x20\n        /* \"#utility.yul\":9951:9960   */\n      dup3\n        /* \"#utility.yul\":9947:9965   */\n      add\n        /* \"#utility.yul\":9939:9965   */\n      swap1\n      pop\n        /* \"#utility.yul\":10011:10020   */\n      dup2\n        /* \"#utility.yul\":10005:10009   */\n      dup2\n        /* \"#utility.yul\":10001:10021   */\n      sub\n        /* \"#utility.yul\":9997:9998   */\n      0x00\n        /* \"#utility.yul\":9986:9995   */\n      dup4\n        /* \"#utility.yul\":9982:9999   */\n      add\n        /* \"#utility.yul\":9975:10022   */\n      mstore\n        /* \"#utility.yul\":10039:10170   */\n      tag_339\n        /* \"#utility.yul\":10165:10169   */\n      dup2\n        /* \"#utility.yul\":10039:10170   */\n      tag_227\n      jump\t// in\n    tag_339:\n        /* \"#utility.yul\":10031:10170   */\n      swap1\n      pop\n        /* \"#utility.yul\":9758:10177   */\n      swap2\n      swap1\n      pop\n      jump\t// out\n        /* \"#utility.yul\":10183:10403   */\n    tag_228:\n        /* \"#utility.yul\":10323:10357   */\n      0x42657420616d6f756e74206d7573742062652067726561746572207468616e20\n        /* \"#utility.yul\":10319:10320   */\n      0x00\n        /* \"#utility.yul\":10311:10317   */\n      dup3\n        /* \"#utility.yul\":10307:10321   */\n      add\n        /* \"#utility.yul\":10300:10358   */\n      mstore\n        /* \"#utility.yul\":10392:10395   */\n      0x3000000000000000000000000000000000000000000000000000000000000000\n        /* \"#utility.yul\":10387:10389   */\n      0x20\n        /* \"#utility.yul\":10379:10385   */\n      dup3\n        /* \"#utility.yul\":10375:10390   */\n      add\n        /* \"#utility.yul\":10368:10396   */\n      mstore\n        /* \"#utility.yul\":10183:10403   */\n      pop\n      jump\t// out\n        /* \"#utility.yul\":10409:10775   */\n    tag_229:\n        /* \"#utility.yul\":10551:10554   */\n      0x00\n        /* \"#utility.yul\":10572:10639   */\n      tag_342\n        /* \"#utility.yul\":10636:10638   */\n      0x21\n        /* \"#utility.yul\":10631:10634   */\n      dup4\n        /* \"#utility.yul\":10572:10639   */\n      tag_195\n      jump\t// in\n    tag_342:\n        /* \"#utility.yul\":10565:10639   */\n      swap2\n      pop\n        /* \"#utility.yul\":10648:10741   */\n      tag_343\n        /* \"#utility.yul\":10737:10740   */\n      dup3\n        /* \"#utility.yul\":10648:10741   */\n      tag_228\n      jump\t// in\n    tag_343:\n        /* \"#utility.yul\":10766:10768   */\n      0x40\n        /* \"#utility.yul\":10761:10764   */\n      dup3\n        /* \"#utility.yul\":10757:10769   */\n      add\n        /* \"#utility.yul\":10750:10769   */\n      swap1\n      pop\n        /* \"#utility.yul\":10409:10775   */\n      swap2\n      swap1\n      pop\n      jump\t// out\n        /* \"#utility.yul\":10781:11200   */\n    tag_101:\n        /* \"#utility.yul\":10947:10951   */\n      0x00\n        /* \"#utility.yul\":10985:10987   */\n      0x20\n        /* \"#utility.yul\":10974:10983   */\n      dup3\n        /* \"#utility.yul\":10970:10988   */\n      add\n        /* \"#utility.yul\":10962:10988   */\n      swap1\n      pop\n        /* \"#utility.yul\":11034:11043   */\n      dup2\n        /* \"#utility.yul\":11028:11032   */\n      dup2\n        /* \"#utility.yul\":11024:11044   */\n      sub\n        /* \"#utility.yul\":11020:11021   */\n      0x00\n        /* \"#utility.yul\":11009:11018   */\n      dup4\n        /* \"#utility.yul\":11005:11022   */\n      add\n        /* \"#utility.yul\":10998:11045   */\n      mstore\n        /* \"#utility.yul\":11062:11193   */\n      tag_345\n        /* \"#utility.yul\":11188:11192   */\n      dup2\n        /* \"#utility.yul\":11062:11193   */\n      tag_229\n      jump\t// in\n    tag_345:\n        /* \"#utility.yul\":11054:11193   */\n      swap1\n      pop\n        /* \"#utility.yul\":10781:11200   */\n      swap2\n      swap1\n      pop\n      jump\t// out\n        /* \"#utility.yul\":11206:11377   */\n    tag_230:\n        /* \"#utility.yul\":11346:11369   */\n      0x496e76616c6964207465616d2073656c65637465640000000000000000000000\n        /* \"#utility.yul\":11342:11343   */\n      0x00\n        /* \"#utility.yul\":11334:11340   */\n      dup3\n        /* \"#utility.yul\":11330:11344   */\n      add\n        /* \"#utility.yul\":11323:11370   */\n      mstore\n        /* \"#utility.yul\":11206:11377   */\n      pop\n      jump\t// out\n        /* \"#utility.yul\":11383:11749   */\n    tag_231:\n        /* \"#utility.yul\":11525:11528   */\n      0x00\n        /* \"#utility.yul\":11546:11613   */\n      tag_348\n        /* \"#utility.yul\":11610:11612   */\n      0x15\n        /* \"#utility.yul\":11605:11608   */\n      dup4\n        /* \"#utility.yul\":11546:11613   */\n      tag_195\n      jump\t// in\n    tag_348:\n        /* \"#utility.yul\":11539:11613   */\n      swap2\n      pop\n        /* \"#utility.yul\":11622:11715   */\n      tag_349\n        /* \"#utility.yul\":11711:11714   */\n      dup3\n        /* \"#utility.yul\":11622:11715   */\n      tag_230\n      jump\t// in\n    tag_349:\n        /* \"#utility.yul\":11740:11742   */\n      0x20\n        /* \"#utility.yul\":11735:11738   */\n      dup3\n        /* \"#utility.yul\":11731:11743   */\n      add\n        /* \"#utility.yul\":11724:11743   */\n      swap1\n      pop\n        /* \"#utility.yul\":11383:11749   */\n      swap2\n      swap1\n      pop\n      jump\t// out\n        /* \"#utility.yul\":11755:12174   */\n    tag_113:\n        /* \"#utility.yul\":11921:11925   */\n      0x00\n        /* \"#utility.yul\":11959:11961   */\n      0x20\n        /* \"#utility.yul\":11948:11957   */\n      dup3\n        /* \"#utility.yul\":11944:11962   */\n      add\n        /* \"#utility.yul\":11936:11962   */\n      swap1\n      pop\n        /* \"#utility.yul\":12008:12017   */\n      dup2\n        /* \"#utility.yul\":12002:12006   */\n      dup2\n        /* \"#utility.yul\":11998:12018   */\n      sub\n        /* \"#utility.yul\":11994:11995   */\n      0x00\n        /* \"#utility.yul\":11983:11992   */\n      dup4\n        /* \"#utility.yul\":11979:11996   */\n      add\n        /* \"#utility.yul\":11972:12019   */\n      mstore\n        /* \"#utility.yul\":12036:12167   */\n      tag_351\n        /* \"#utility.yul\":12162:12166   */\n      dup2\n        /* \"#utility.yul\":12036:12167   */\n      tag_231\n      jump\t// in\n    tag_351:\n        /* \"#utility.yul\":12028:12167   */\n      swap1\n      pop\n        /* \"#utility.yul\":11755:12174   */\n      swap2\n      swap1\n      pop\n      jump\t// out\n        /* \"#utility.yul\":12180:12360   */\n    tag_232:\n        /* \"#utility.yul\":12228:12305   */\n      0x4e487b7100000000000000000000000000000000000000000000000000000000\n        /* \"#utility.yul\":12225:12226   */\n      0x00\n        /* \"#utility.yul\":12218:12306   */\n      mstore\n        /* \"#utility.yul\":12325:12329   */\n      0x11\n        /* \"#utility.yul\":12322:12323   */\n      0x04\n        /* \"#utility.yul\":12315:12330   */\n      mstore\n        /* \"#utility.yul\":12349:12353   */\n      0x24\n        /* \"#utility.yul\":12346:12347   */\n      0x00\n        /* \"#utility.yul\":12339:12354   */\n      revert\n        /* \"#utility.yul\":12366:12557   */\n    tag_124:\n        /* \"#utility.yul\":12406:12409   */\n      0x00\n        /* \"#utility.yul\":12425:12445   */\n      tag_354\n        /* \"#utility.yul\":12443:12444   */\n      dup3\n        /* \"#utility.yul\":12425:12445   */\n      tag_203\n      jump\t// in\n    tag_354:\n        /* \"#utility.yul\":12420:12445   */\n      swap2\n      pop\n        /* \"#utility.yul\":12459:12479   */\n      tag_355\n        /* \"#utility.yul\":12477:12478   */\n      dup4\n        /* \"#utility.yul\":12459:12479   */\n      tag_203\n      jump\t// in\n    tag_355:\n        /* \"#utility.yul\":12454:12479   */\n      swap3\n      pop\n        /* \"#utility.yul\":12502:12503   */\n      dup3\n        /* \"#utility.yul\":12499:12500   */\n      dup3\n        /* \"#utility.yul\":12495:12504   */\n      add\n        /* \"#utility.yul\":12488:12504   */\n      swap1\n      pop\n        /* \"#utility.yul\":12523:12526   */\n      dup1\n        /* \"#utility.yul\":12520:12521   */\n      dup3\n        /* \"#utility.yul\":12517:12527   */\n      gt\n        /* \"#utility.yul\":12514:12550   */\n      iszero\n      tag_356\n      jumpi\n        /* \"#utility.yul\":12530:12548   */\n      tag_357\n      tag_232\n      jump\t// in\n    tag_357:\n        /* \"#utility.yul\":12514:12550   */\n    tag_356:\n        /* \"#utility.yul\":12366:12557   */\n      swap3\n      swap2\n      pop\n      pop\n      jump\t// out\n        /* \"#utility.yul\":12563:12783   */\n    tag_233:\n        /* \"#utility.yul\":12703:12737   */\n      0x42657474696e67206d75737420626520636c6f73656420746f207265736f6c76\n        /* \"#utility.yul\":12699:12700   */\n      0x00\n        /* \"#utility.yul\":12691:12697   */\n      dup3\n        /* \"#utility.yul\":12687:12701   */\n      add\n        /* \"#utility.yul\":12680:12738   */\n      mstore\n        /* \"#utility.yul\":12772:12775   */\n      0x6500000000000000000000000000000000000000000000000000000000000000\n        /* \"#utility.yul\":12767:12769   */\n      0x20\n        /* \"#utility.yul\":12759:12765   */\n      dup3\n        /* \"#utility.yul\":12755:12770   */\n      add\n        /* \"#utility.yul\":12748:12776   */\n      mstore\n        /* \"#utility.yul\":12563:12783   */\n      pop\n      jump\t// out\n        /* \"#utility.yul\":12789:13155   */\n    tag_234:\n        /* \"#utility.yul\":12931:12934   */\n      0x00\n        /* \"#utility.yul\":12952:13019   */\n      tag_360\n        /* \"#utility.yul\":13016:13018   */\n      0x21\n        /* \"#utility.yul\":13011:13014   */\n      dup4\n        /* \"#utility.yul\":12952:13019   */\n      tag_195\n      jump\t// in\n    tag_360:\n        /* \"#utility.yul\":12945:13019   */\n      swap2\n      pop\n        /* \"#utility.yul\":13028:13121   */\n      tag_361\n        /* \"#utility.yul\":13117:13120   */\n      dup3\n        /* \"#utility.yul\":13028:13121   */\n      tag_233\n      jump\t// in\n    tag_361:\n        /* \"#utility.yul\":13146:13148   */\n      0x40\n        /* \"#utility.yul\":13141:13144   */\n      dup3\n        /* \"#utility.yul\":13137:13149   */\n      add\n        /* \"#utility.yul\":13130:13149   */\n      swap1\n      pop\n        /* \"#utility.yul\":12789:13155   */\n      swap2\n      swap1\n      pop\n      jump\t// out\n        /* \"#utility.yul\":13161:13580   */\n    tag_139:\n        /* \"#utility.yul\":13327:13331   */\n      0x00\n        /* \"#utility.yul\":13365:13367   */\n      0x20\n        /* \"#utility.yul\":13354:13363   */\n      dup3\n        /* \"#utility.yul\":13350:13368   */\n      add\n        /* \"#utility.yul\":13342:13368   */\n      swap1\n      pop\n        /* \"#utility.yul\":13414:13423   */\n      dup2\n        /* \"#utility.yul\":13408:13412   */\n      dup2\n        /* \"#utility.yul\":13404:13424   */\n      sub\n        /* \"#utility.yul\":13400:13401   */\n      0x00\n        /* \"#utility.yul\":13389:13398   */\n      dup4\n        /* \"#utility.yul\":13385:13402   */\n      add\n        /* \"#utility.yul\":13378:13425   */\n      mstore\n        /* \"#utility.yul\":13442:13573   */\n      tag_363\n        /* \"#utility.yul\":13568:13572   */\n      dup2\n        /* \"#utility.yul\":13442:13573   */\n      tag_234\n      jump\t// in\n    tag_363:\n        /* \"#utility.yul\":13434:13573   */\n      swap1\n      pop\n        /* \"#utility.yul\":13161:13580   */\n      swap2\n      swap1\n      pop\n      jump\t// out\n        /* \"#utility.yul\":13586:13756   */\n    tag_235:\n        /* \"#utility.yul\":13726:13748   */\n      0x496e76616c69642077696e6e696e67207465616d000000000000000000000000\n        /* \"#utility.yul\":13722:13723   */\n      0x00\n        /* \"#utility.yul\":13714:13720   */\n      dup3\n        /* \"#utility.yul\":13710:13724   */\n      add\n        /* \"#utility.yul\":13703:13749   */\n      mstore\n        /* \"#utility.yul\":13586:13756   */\n      pop\n      jump\t// out\n        /* \"#utility.yul\":13762:14128   */\n    tag_236:\n        /* \"#utility.yul\":13904:13907   */\n      0x00\n        /* \"#utility.yul\":13925:13992   */\n      tag_366\n        /* \"#utility.yul\":13989:13991   */\n      0x14\n        /* \"#utility.yul\":13984:13987   */\n      dup4\n        /* \"#utility.yul\":13925:13992   */\n      tag_195\n      jump\t// in\n    tag_366:\n        /* \"#utility.yul\":13918:13992   */\n      swap2\n      pop\n        /* \"#utility.yul\":14001:14094   */\n      tag_367\n        /* \"#utility.yul\":14090:14093   */\n      dup3\n        /* \"#utility.yul\":14001:14094   */\n      tag_235\n      jump\t// in\n    tag_367:\n        /* \"#utility.yul\":14119:14121   */\n      0x20\n        /* \"#utility.yul\":14114:14117   */\n      dup3\n        /* \"#utility.yul\":14110:14122   */\n      add\n        /* \"#utility.yul\":14103:14122   */\n      swap1\n      pop\n        /* \"#utility.yul\":13762:14128   */\n      swap2\n      swap1\n      pop\n      jump\t// out\n        /* \"#utility.yul\":14134:14553   */\n    tag_151:\n        /* \"#utility.yul\":14300:14304   */\n      0x00\n        /* \"#utility.yul\":14338:14340   */\n      0x20\n        /* \"#utility.yul\":14327:14336   */\n      dup3\n        /* \"#utility.yul\":14323:14341   */\n      add\n        /* \"#utility.yul\":14315:14341   */\n      swap1\n      pop\n        /* \"#utility.yul\":14387:14396   */\n      dup2\n        /* \"#utility.yul\":14381:14385   */\n      dup2\n        /* \"#utility.yul\":14377:14397   */\n      sub\n        /* \"#utility.yul\":14373:14374   */\n      0x00\n        /* \"#utility.yul\":14362:14371   */\n      dup4\n        /* \"#utility.yul\":14358:14375   */\n      add\n        /* \"#utility.yul\":14351:14398   */\n      mstore\n        /* \"#utility.yul\":14415:14546   */\n      tag_369\n        /* \"#utility.yul\":14541:14545   */\n      dup2\n        /* \"#utility.yul\":14415:14546   */\n      tag_236\n      jump\t// in\n    tag_369:\n        /* \"#utility.yul\":14407:14546   */\n      swap1\n      pop\n        /* \"#utility.yul\":14134:14553   */\n      swap2\n      swap1\n      pop\n      jump\t// out\n        /* \"#utility.yul\":14559:14779   */\n    tag_237:\n        /* \"#utility.yul\":14699:14733   */\n      0x42657474696e6720686173206e6f74206265656e207265736f6c766564207965\n        /* \"#utility.yul\":14695:14696   */\n      0x00\n        /* \"#utility.yul\":14687:14693   */\n      dup3\n        /* \"#utility.yul\":14683:14697   */\n      add\n        /* \"#utility.yul\":14676:14734   */\n      mstore\n        /* \"#utility.yul\":14768:14771   */\n      0x7400000000000000000000000000000000000000000000000000000000000000\n        /* \"#utility.yul\":14763:14765   */\n      0x20\n        /* \"#utility.yul\":14755:14761   */\n      dup3\n        /* \"#utility.yul\":14751:14766   */\n      add\n        /* \"#utility.yul\":14744:14772   */\n      mstore\n        /* \"#utility.yul\":14559:14779   */\n      pop\n      jump\t// out\n        /* \"#utility.yul\":14785:15151   */\n    tag_238:\n        /* \"#utility.yul\":14927:14930   */\n      0x00\n        /* \"#utility.yul\":14948:15015   */\n      tag_372\n        /* \"#utility.yul\":15012:15014   */\n      0x21\n        /* \"#utility.yul\":15007:15010   */\n      dup4\n        /* \"#utility.yul\":14948:15015   */\n      tag_195\n      jump\t// in\n    tag_372:\n        /* \"#utility.yul\":14941:15015   */\n      swap2\n      pop\n        /* \"#utility.yul\":15024:15117   */\n      tag_373\n        /* \"#utility.yul\":15113:15116   */\n      dup3\n        /* \"#utility.yul\":15024:15117   */\n      tag_237\n      jump\t// in\n    tag_373:\n        /* \"#utility.yul\":15142:15144   */\n      0x40\n        /* \"#utility.yul\":15137:15140   */\n      dup3\n        /* \"#utility.yul\":15133:15145   */\n      add\n        /* \"#utility.yul\":15126:15145   */\n      swap1\n      pop\n        /* \"#utility.yul\":14785:15151   */\n      swap2\n      swap1\n      pop\n      jump\t// out\n        /* \"#utility.yul\":15157:15576   */\n    tag_164:\n        /* \"#utility.yul\":15323:15327   */\n      0x00\n        /* \"#utility.yul\":15361:15363   */\n      0x20\n        /* \"#utility.yul\":15350:15359   */\n      dup3\n        /* \"#utility.yul\":15346:15364   */\n      add\n        /* \"#utility.yul\":15338:15364   */\n      swap1\n      pop\n        /* \"#utility.yul\":15410:15419   */\n      dup2\n        /* \"#utility.yul\":15404:15408   */\n      dup2\n        /* \"#utility.yul\":15400:15420   */\n      sub\n        /* \"#utility.yul\":15396:15397   */\n      0x00\n        /* \"#utility.yul\":15385:15394   */\n      dup4\n        /* \"#utility.yul\":15381:15398   */\n      add\n        /* \"#utility.yul\":15374:15421   */\n      mstore\n        /* \"#utility.yul\":15438:15569   */\n      tag_375\n        /* \"#utility.yul\":15564:15568   */\n      dup2\n        /* \"#utility.yul\":15438:15569   */\n      tag_238\n      jump\t// in\n    tag_375:\n        /* \"#utility.yul\":15430:15569   */\n      swap1\n      pop\n        /* \"#utility.yul\":15157:15576   */\n      swap2\n      swap1\n      pop\n      jump\t// out\n        /* \"#utility.yul\":15582:15745   */\n    tag_239:\n        /* \"#utility.yul\":15722:15737   */\n      0x4e6f2062657420706c6163656400000000000000000000000000000000000000\n        /* \"#utility.yul\":15718:15719   */\n      0x00\n        /* \"#utility.yul\":15710:15716   */\n      dup3\n        /* \"#utility.yul\":15706:15720   */\n      add\n        /* \"#utility.yul\":15699:15738   */\n      mstore\n        /* \"#utility.yul\":15582:15745   */\n      pop\n      jump\t// out\n        /* \"#utility.yul\":15751:16117   */\n    tag_240:\n        /* \"#utility.yul\":15893:15896   */\n      0x00\n        /* \"#utility.yul\":15914:15981   */\n      tag_378\n        /* \"#utility.yul\":15978:15980   */\n      0x0d\n        /* \"#utility.yul\":15973:15976   */\n      dup4\n        /* \"#utility.yul\":15914:15981   */\n      tag_195\n      jump\t// in\n    tag_378:\n        /* \"#utility.yul\":15907:15981   */\n      swap2\n      pop\n        /* \"#utility.yul\":15990:16083   */\n      tag_379\n        /* \"#utility.yul\":16079:16082   */\n      dup3\n        /* \"#utility.yul\":15990:16083   */\n      tag_239\n      jump\t// in\n    tag_379:\n        /* \"#utility.yul\":16108:16110   */\n      0x20\n        /* \"#utility.yul\":16103:16106   */\n      dup3\n        /* \"#utility.yul\":16099:16111   */\n      add\n        /* \"#utility.yul\":16092:16111   */\n      swap1\n      pop\n        /* \"#utility.yul\":15751:16117   */\n      swap2\n      swap1\n      pop\n      jump\t// out\n        /* \"#utility.yul\":16123:16542   */\n    tag_167:\n        /* \"#utility.yul\":16289:16293   */\n      0x00\n        /* \"#utility.yul\":16327:16329   */\n      0x20\n        /* \"#utility.yul\":16316:16325   */\n      dup3\n        /* \"#utility.yul\":16312:16330   */\n      add\n        /* \"#utility.yul\":16304:16330   */\n      swap1\n      pop\n        /* \"#utility.yul\":16376:16385   */\n      dup2\n        /* \"#utility.yul\":16370:16374   */\n      dup2\n        /* \"#utility.yul\":16366:16386   */\n      sub\n        /* \"#utility.yul\":16362:16363   */\n      0x00\n        /* \"#utility.yul\":16351:16360   */\n      dup4\n        /* \"#utility.yul\":16347:16364   */\n      add\n        /* \"#utility.yul\":16340:16387   */\n      mstore\n        /* \"#utility.yul\":16404:16535   */\n      tag_381\n        /* \"#utility.yul\":16530:16534   */\n      dup2\n        /* \"#utility.yul\":16404:16535   */\n      tag_240\n      jump\t// in\n    tag_381:\n        /* \"#utility.yul\":16396:16535   */\n      swap1\n      pop\n        /* \"#utility.yul\":16123:16542   */\n      swap2\n      swap1\n      pop\n      jump\t// out\n        /* \"#utility.yul\":16548:16724   */\n    tag_241:\n        /* \"#utility.yul\":16688:16716   */\n      0x57696e6e696e677320616c72656164792077697468647261776e000000000000\n        /* \"#utility.yul\":16684:16685   */\n      0x00\n        /* \"#utility.yul\":16676:16682   */\n      dup3\n        /* \"#utility.yul\":16672:16686   */\n      add\n        /* \"#utility.yul\":16665:16717   */\n      mstore\n        /* \"#utility.yul\":16548:16724   */\n      pop\n      jump\t// out\n        /* \"#utility.yul\":16730:17096   */\n    tag_242:\n        /* \"#utility.yul\":16872:16875   */\n      0x00\n        /* \"#utility.yul\":16893:16960   */\n      tag_384\n        /* \"#utility.yul\":16957:16959   */\n      0x1a\n        /* \"#utility.yul\":16952:16955   */\n      dup4\n        /* \"#utility.yul\":16893:16960   */\n      tag_195\n      jump\t// in\n    tag_384:\n        /* \"#utility.yul\":16886:16960   */\n      swap2\n      pop\n        /* \"#utility.yul\":16969:17062   */\n      tag_385\n        /* \"#utility.yul\":17058:17061   */\n      dup3\n        /* \"#utility.yul\":16969:17062   */\n      tag_241\n      jump\t// in\n    tag_385:\n        /* \"#utility.yul\":17087:17089   */\n      0x20\n        /* \"#utility.yul\":17082:17085   */\n      dup3\n        /* \"#utility.yul\":17078:17090   */\n      add\n        /* \"#utility.yul\":17071:17090   */\n      swap1\n      pop\n        /* \"#utility.yul\":16730:17096   */\n      swap2\n      swap1\n      pop\n      jump\t// out\n        /* \"#utility.yul\":17102:17521   */\n    tag_170:\n        /* \"#utility.yul\":17268:17272   */\n      0x00\n        /* \"#utility.yul\":17306:17308   */\n      0x20\n        /* \"#utility.yul\":17295:17304   */\n      dup3\n        /* \"#utility.yul\":17291:17309   */\n      add\n        /* \"#utility.yul\":17283:17309   */\n      swap1\n      pop\n        /* \"#utility.yul\":17355:17364   */\n      dup2\n        /* \"#utility.yul\":17349:17353   */\n      dup2\n        /* \"#utility.yul\":17345:17365   */\n      sub\n        /* \"#utility.yul\":17341:17342   */\n      0x00\n        /* \"#utility.yul\":17330:17339   */\n      dup4\n        /* \"#utility.yul\":17326:17343   */\n      add\n        /* \"#utility.yul\":17319:17366   */\n      mstore\n        /* \"#utility.yul\":17383:17514   */\n      tag_387\n        /* \"#utility.yul\":17509:17513   */\n      dup2\n        /* \"#utility.yul\":17383:17514   */\n      tag_242\n      jump\t// in\n    tag_387:\n        /* \"#utility.yul\":17375:17514   */\n      swap1\n      pop\n        /* \"#utility.yul\":17102:17521   */\n      swap2\n      swap1\n      pop\n      jump\t// out\n        /* \"#utility.yul\":17527:17749   */\n    tag_243:\n        /* \"#utility.yul\":17667:17701   */\n      0x596f7520646964206e6f7420626574206f6e207468652077696e6e696e672074\n        /* \"#utility.yul\":17663:17664   */\n      0x00\n        /* \"#utility.yul\":17655:17661   */\n      dup3\n        /* \"#utility.yul\":17651:17665   */\n      add\n        /* \"#utility.yul\":17644:17702   */\n      mstore\n        /* \"#utility.yul\":17736:17741   */\n      0x65616d0000000000000000000000000000000000000000000000000000000000\n        /* \"#utility.yul\":17731:17733   */\n      0x20\n        /* \"#utility.yul\":17723:17729   */\n      dup3\n        /* \"#utility.yul\":17719:17734   */\n      add\n        /* \"#utility.yul\":17712:17742   */\n      mstore\n        /* \"#utility.yul\":17527:17749   */\n      pop\n      jump\t// out\n        /* \"#utility.yul\":17755:18121   */\n    tag_244:\n        /* \"#utility.yul\":17897:17900   */\n      0x00\n        /* \"#utility.yul\":17918:17985   */\n      tag_390\n        /* \"#utility.yul\":17982:17984   */\n      0x23\n        /* \"#utility.yul\":17977:17980   */\n      dup4\n        /* \"#utility.yul\":17918:17985   */\n      tag_195\n      jump\t// in\n    tag_390:\n        /* \"#utility.yul\":17911:17985   */\n      swap2\n      pop\n        /* \"#utility.yul\":17994:18087   */\n      tag_391\n        /* \"#utility.yul\":18083:18086   */\n      dup3\n        /* \"#utility.yul\":17994:18087   */\n      tag_243\n      jump\t// in\n    tag_391:\n        /* \"#utility.yul\":18112:18114   */\n      0x40\n        /* \"#utility.yul\":18107:18110   */\n      dup3\n        /* \"#utility.yul\":18103:18115   */\n      add\n        /* \"#utility.yul\":18096:18115   */\n      swap1\n      pop\n        /* \"#utility.yul\":17755:18121   */\n      swap2\n      swap1\n      pop\n      jump\t// out\n        /* \"#utility.yul\":18127:18546   */\n    tag_177:\n        /* \"#utility.yul\":18293:18297   */\n      0x00\n        /* \"#utility.yul\":18331:18333   */\n      0x20\n        /* \"#utility.yul\":18320:18329   */\n      dup3\n        /* \"#utility.yul\":18316:18334   */\n      add\n        /* \"#utility.yul\":18308:18334   */\n      swap1\n      pop\n        /* \"#utility.yul\":18380:18389   */\n      dup2\n        /* \"#utility.yul\":18374:18378   */\n      dup2\n        /* \"#utility.yul\":18370:18390   */\n      sub\n        /* \"#utility.yul\":18366:18367   */\n      0x00\n        /* \"#utility.yul\":18355:18364   */\n      dup4\n        /* \"#utility.yul\":18351:18368   */\n      add\n        /* \"#utility.yul\":18344:18391   */\n      mstore\n        /* \"#utility.yul\":18408:18539   */\n      tag_393\n        /* \"#utility.yul\":18534:18538   */\n      dup2\n        /* \"#utility.yul\":18408:18539   */\n      tag_244\n      jump\t// in\n    tag_393:\n        /* \"#utility.yul\":18400:18539   */\n      swap1\n      pop\n        /* \"#utility.yul\":18127:18546   */\n      swap2\n      swap1\n      pop\n      jump\t// out\n        /* \"#utility.yul\":18552:18962   */\n    tag_185:\n        /* \"#utility.yul\":18592:18599   */\n      0x00\n        /* \"#utility.yul\":18615:18635   */\n      tag_395\n        /* \"#utility.yul\":18633:18634   */\n      dup3\n        /* \"#utility.yul\":18615:18635   */\n      tag_203\n      jump\t// in\n    tag_395:\n        /* \"#utility.yul\":18610:18635   */\n      swap2\n      pop\n        /* \"#utility.yul\":18649:18669   */\n      tag_396\n        /* \"#utility.yul\":18667:18668   */\n      dup4\n        /* \"#utility.yul\":18649:18669   */\n      tag_203\n      jump\t// in\n    tag_396:\n        /* \"#utility.yul\":18644:18669   */\n      swap3\n      pop\n        /* \"#utility.yul\":18704:18705   */\n      dup3\n        /* \"#utility.yul\":18701:18702   */\n      dup3\n        /* \"#utility.yul\":18697:18706   */\n      mul\n        /* \"#utility.yul\":18726:18756   */\n      tag_397\n        /* \"#utility.yul\":18744:18755   */\n      dup2\n        /* \"#utility.yul\":18726:18756   */\n      tag_203\n      jump\t// in\n    tag_397:\n        /* \"#utility.yul\":18715:18756   */\n      swap2\n      pop\n        /* \"#utility.yul\":18905:18906   */\n      dup3\n        /* \"#utility.yul\":18896:18903   */\n      dup3\n        /* \"#utility.yul\":18892:18907   */\n      div\n        /* \"#utility.yul\":18889:18890   */\n      dup5\n        /* \"#utility.yul\":18886:18908   */\n      eq\n        /* \"#utility.yul\":18866:18867   */\n      dup4\n        /* \"#utility.yul\":18859:18868   */\n      iszero\n        /* \"#utility.yul\":18839:18922   */\n      or\n        /* \"#utility.yul\":18816:18955   */\n      tag_398\n      jumpi\n        /* \"#utility.yul\":18935:18953   */\n      tag_399\n      tag_232\n      jump\t// in\n    tag_399:\n        /* \"#utility.yul\":18816:18955   */\n    tag_398:\n        /* \"#utility.yul\":18600:18962   */\n      pop\n        /* \"#utility.yul\":18552:18962   */\n      swap3\n      swap2\n      pop\n      pop\n      jump\t// out\n        /* \"#utility.yul\":18968:19148   */\n    tag_245:\n        /* \"#utility.yul\":19016:19093   */\n      0x4e487b7100000000000000000000000000000000000000000000000000000000\n        /* \"#utility.yul\":19013:19014   */\n      0x00\n        /* \"#utility.yul\":19006:19094   */\n      mstore\n        /* \"#utility.yul\":19113:19117   */\n      0x12\n        /* \"#utility.yul\":19110:19111   */\n      0x04\n        /* \"#utility.yul\":19103:19118   */\n      mstore\n        /* \"#utility.yul\":19137:19141   */\n      0x24\n        /* \"#utility.yul\":19134:19135   */\n      0x00\n        /* \"#utility.yul\":19127:19142   */\n      revert\n        /* \"#utility.yul\":19154:19339   */\n    tag_187:\n        /* \"#utility.yul\":19194:19195   */\n      0x00\n        /* \"#utility.yul\":19211:19231   */\n      tag_402\n        /* \"#utility.yul\":19229:19230   */\n      dup3\n        /* \"#utility.yul\":19211:19231   */\n      tag_203\n      jump\t// in\n    tag_402:\n        /* \"#utility.yul\":19206:19231   */\n      swap2\n      pop\n        /* \"#utility.yul\":19245:19265   */\n      tag_403\n        /* \"#utility.yul\":19263:19264   */\n      dup4\n        /* \"#utility.yul\":19245:19265   */\n      tag_203\n      jump\t// in\n    tag_403:\n        /* \"#utility.yul\":19240:19265   */\n      swap3\n      pop\n        /* \"#utility.yul\":19284:19285   */\n      dup3\n        /* \"#utility.yul\":19274:19309   */\n      tag_404\n      jumpi\n        /* \"#utility.yul\":19289:19307   */\n      tag_405\n      tag_245\n      jump\t// in\n    tag_405:\n        /* \"#utility.yul\":19274:19309   */\n    tag_404:\n        /* \"#utility.yul\":19331:19332   */\n      dup3\n        /* \"#utility.yul\":19328:19329   */\n      dup3\n        /* \"#utility.yul\":19324:19333   */\n      div\n        /* \"#utility.yul\":19319:19333   */\n      swap1\n      pop\n        /* \"#utility.yul\":19154:19339   */\n      swap3\n      swap2\n      pop\n      pop\n      jump\t// out\n\n    auxdata: 0xa2646970667358221220c19161596fa9c028f647b7580a6a426b11243bbeb33339108382989c5162e9eb64736f6c634300081a0033\n}\n",
				"bytecode": {
					"linkReferences": {},
					"object": "6080604052348015600e575f80fd5b503360045f6101000a81548173ffffffffffffffffffffffffffffffffffffffff021916908373ffffffffffffffffffffffffffffffffffffffff1602179055505f805f6101000a81548160ff02191690836002811115606f57606e6078565b5b021790555060a5565b7f4e487b71000000000000000000000000000000000000000000000000000000005f52602160045260245ffd5b61171d806100b25f395ff3fe60806040526004361061009f575f3560e01c80638da5cb5b116100635780638da5cb5b14610193578063a179acdb146101bd578063c19d93fb146101e5578063cc42e83a1461020f578063de3f18e214610225578063fdd746be1461024f576100df565b806315ac534d146100e35780632313313f146100f9578063430468441461010f57806355587b8e1461012b57806389a78f1a14610155576100df565b366100df576040517f08c379a00000000000000000000000000000000000000000000000000000000081526004016100d690610d9d565b60405180910390fd5b5f80fd5b3480156100ee575f80fd5b506100f7610279565b005b348015610104575f80fd5b5061010d6103a5565b005b61012960048036038101906101249190610de2565b610419565b005b348015610136575f80fd5b5061013f61076f565b60405161014c9190610e25565b60405180910390f35b348015610160575f80fd5b5061017b60048036038101906101769190610e98565b610775565b60405161018a93929190610f50565b60405180910390f35b34801561019e575f80fd5b506101a76107b4565b6040516101b49190610f94565b60405180910390f35b3480156101c8575f80fd5b506101e360048036038101906101de9190610de2565b6107d9565b005b3480156101f0575f80fd5b506101f96109fd565b6040516102069190610ff3565b60405180910390f35b34801561021a575f80fd5b50610223610a0d565b005b348015610230575f80fd5b50610239610d2a565b604051610246919061100c565b60405180910390f35b34801561025a575f80fd5b50610263610d3d565b6040516102709190610e25565b60405180910390f35b60045f9054906101000a900473ffffffffffffffffffffffffffffffffffffffff1673ffffffffffffffffffffffffffffffffffffffff163373ffffffffffffffffffffffffffffffffffffffff1614610308576040517f08c379a00000000000000000000000000000000000000000000000000000000081526004016102ff90611095565b60405180910390fd5b5f600281111561031b5761031a610ec3565b5b5f8054906101000a900460ff16600281111561033a57610339610ec3565b5b1461037a576040517f08c379a000000000000000000000000000000000000000000000000000000000815260040161037190611123565b60405180910390fd5b60015f806101000a81548160ff0219169083600281111561039e5761039d610ec3565b5b0217905550565b5f60028111156103b8576103b7610ec3565b5b5f8054906101000a900460ff1660028111156103d7576103d6610ec3565b5b14610417576040517f08c379a000000000000000000000000000000000000000000000000000000000815260040161040e9061118b565b60405180910390fd5b565b5f600281111561042c5761042b610ec3565b5b5f8054906101000a900460ff16600281111561044b5761044a610ec3565b5b1461048b576040517f08c379a00000000000000000000000000000000000000000000000000000000081526004016104829061118b565b60405180910390fd5b5f60015f3373ffffffffffffffffffffffffffffffffffffffff1673ffffffffffffffffffffffffffffffffffffffff1681526020019081526020015f205f01541461050c576040517f08c379a0000000000000000000000000000000000000000000000000000000008152600401610503906111f3565b60405180910390fd5b5f341161054e576040517f08c379a000000000000000000000000000000000000000000000000000000000815260040161054590611281565b60405180910390fd5b6001600281111561056257610561610ec3565b5b81600281111561057557610574610ec3565b5b14806105a4575060028081111561058f5761058e610ec3565b5b8160028111156105a2576105a1610ec3565b5b145b6105e3576040517f08c379a00000000000000000000000000000000000000000000000000000000081526004016105da906112e9565b60405180910390fd5b604051806060016040528034815260200182600281111561060757610606610ec3565b5b81526020015f151581525060015f3373ffffffffffffffffffffffffffffffffffffffff1673ffffffffffffffffffffffffffffffffffffffff1681526020019081526020015f205f820151815f01556020820151816001015f6101000a81548160ff0219169083600281111561068157610680610ec3565b5b021790555060408201518160010160016101000a81548160ff021916908315150217905550905050600160028111156106bd576106bc610ec3565b5b8160028111156106d0576106cf610ec3565b5b036106f2573460025f8282546106e69190611334565b9250508190555061070b565b3460035f8282546107039190611334565b925050819055505b80600281111561071e5761071d610ec3565b5b3373ffffffffffffffffffffffffffffffffffffffff167f9f6b4cced64244a64465098f682029975b1614400b96bc6bd12c668083719166346040516107649190610e25565b60405180910390a350565b60035481565b6001602052805f5260405f205f91509050805f015490806001015f9054906101000a900460ff16908060010160019054906101000a900460ff16905083565b60045f9054906101000a900473ffffffffffffffffffffffffffffffffffffffff1681565b60045f9054906101000a900473ffffffffffffffffffffffffffffffffffffffff1673ffffffffffffffffffffffffffffffffffffffff163373ffffffffffffffffffffffffffffffffffffffff1614610868576040517f08c379a000000000000000000000000000000000000000000000000000000000815260040161085f90611095565b60405180910390fd5b6001600281111561087c5761087b610ec3565b5b5f8054906101000a900460ff16600281111561089b5761089a610ec3565b5b146108db576040517f08c379a00000000000000000000000000000000000000000000000000000000081526004016108d2906113d7565b60405180910390fd5b600160028111156108ef576108ee610ec3565b5b81600281111561090257610901610ec3565b5b1480610931575060028081111561091c5761091b610ec3565b5b81600281111561092f5761092e610ec3565b5b145b610970576040517f08c379a00000000000000000000000000000000000000000000000000000000081526004016109679061143f565b60405180910390fd5b60025f806101000a81548160ff0219169083600281111561099457610993610ec3565b5b021790555080600460146101000a81548160ff021916908360028111156109be576109bd610ec3565b5b02179055507fd6bcd4b6873d691163f1aff2d5585378623aef08e17513a5253eabe39c65dc50816040516109f2919061100c565b60405180910390a150565b5f8054906101000a900460ff1681565b600280811115610a2057610a1f610ec3565b5b5f8054906101000a900460ff166002811115610a3f57610a3e610ec3565b5b14610a7f576040517f08c379a0000000000000000000000000000000000000000000000000000000008152600401610a76906114cd565b60405180910390fd5b5f60015f3373ffffffffffffffffffffffffffffffffffffffff1673ffffffffffffffffffffffffffffffffffffffff1681526020019081526020015f2090505f815f015411610b04576040517f08c379a0000000000000000000000000000000000000000000000000000000008152600401610afb90611535565b60405180910390fd5b8060010160019054906101000a900460ff1615610b56576040517f08c379a0000000000000000000000000000000000000000000000000000000008152600401610b4d9061159d565b60405180910390fd5b600460149054906101000a900460ff166002811115610b7857610b77610ec3565b5b816001015f9054906101000a900460ff166002811115610b9b57610b9a610ec3565b5b14610bdb576040517f08c379a0000000000000000000000000000000000000000000000000000000008152600401610bd29061162b565b60405180910390fd5b5f60016002811115610bf057610bef610ec3565b5b600460149054906101000a900460ff166002811115610c1257610c11610ec3565b5b03610c4957600254600354600254610c2a9190611334565b835f0154610c389190611649565b610c4291906116b7565b9050610c77565b600354600354600254610c5c9190611334565b835f0154610c6a9190611649565b610c7491906116b7565b90505b60018260010160016101000a81548160ff0219169083151502179055503373ffffffffffffffffffffffffffffffffffffffff166108fc8290811502906040515f60405180830381858888f19350505050158015610cd7573d5f803e3d5ffd5b503373ffffffffffffffffffffffffffffffffffffffff167f24215bbaf0832fa4d6ffef16dee3971d8b714921fef3ad63f793d578983c6dc282604051610d1e9190610e25565b60405180910390a25050565b600460149054906101000a900460ff1681565b60025481565b5f82825260208201905092915050565b7f446972656374207472616e7366657273206e6f7420616c6c6f776564000000005f82015250565b5f610d87601c83610d43565b9150610d9282610d53565b602082019050919050565b5f6020820190508181035f830152610db481610d7b565b9050919050565b5f80fd5b60038110610dcb575f80fd5b50565b5f81359050610ddc81610dbf565b92915050565b5f60208284031215610df757610df6610dbb565b5b5f610e0484828501610dce565b91505092915050565b5f819050919050565b610e1f81610e0d565b82525050565b5f602082019050610e385f830184610e16565b92915050565b5f73ffffffffffffffffffffffffffffffffffffffff82169050919050565b5f610e6782610e3e565b9050919050565b610e7781610e5d565b8114610e81575f80fd5b50565b5f81359050610e9281610e6e565b92915050565b5f60208284031215610ead57610eac610dbb565b5b5f610eba84828501610e84565b91505092915050565b7f4e487b71000000000000000000000000000000000000000000000000000000005f52602160045260245ffd5b60038110610f0157610f00610ec3565b5b50565b5f819050610f1182610ef0565b919050565b5f610f2082610f04565b9050919050565b610f3081610f16565b82525050565b5f8115159050919050565b610f4a81610f36565b82525050565b5f606082019050610f635f830186610e16565b610f706020830185610f27565b610f7d6040830184610f41565b949350505050565b610f8e81610e5d565b82525050565b5f602082019050610fa75f830184610f85565b92915050565b60038110610fbe57610fbd610ec3565b5b50565b5f819050610fce82610fad565b919050565b5f610fdd82610fc1565b9050919050565b610fed81610fd3565b82525050565b5f6020820190506110065f830184610fe4565b92915050565b5f60208201905061101f5f830184610f27565b92915050565b7f4f6e6c7920746865206f776e65722063616e2063616c6c20746869732066756e5f8201527f6374696f6e000000000000000000000000000000000000000000000000000000602082015250565b5f61107f602583610d43565b915061108a82611025565b604082019050919050565b5f6020820190508181035f8301526110ac81611073565b9050919050565b7f42657474696e6720697320616c726561647920636c6f736564206f72207265735f8201527f6f6c766564000000000000000000000000000000000000000000000000000000602082015250565b5f61110d602583610d43565b9150611118826110b3565b604082019050919050565b5f6020820190508181035f83015261113a81611101565b9050919050565b7f42657474696e67206973206e6f74206f70656e000000000000000000000000005f82015250565b5f611175601383610d43565b915061118082611141565b602082019050919050565b5f6020820190508181035f8301526111a281611169565b9050919050565b7f596f75206861766520616c726561647920706c616365642061206265740000005f82015250565b5f6111dd601d83610d43565b91506111e8826111a9565b602082019050919050565b5f6020820190508181035f83015261120a816111d1565b9050919050565b7f42657420616d6f756e74206d7573742062652067726561746572207468616e205f8201527f3000000000000000000000000000000000000000000000000000000000000000602082015250565b5f61126b602183610d43565b915061127682611211565b604082019050919050565b5f6020820190508181035f8301526112988161125f565b9050919050565b7f496e76616c6964207465616d2073656c656374656400000000000000000000005f82015250565b5f6112d3601583610d43565b91506112de8261129f565b602082019050919050565b5f6020820190508181035f830152611300816112c7565b9050919050565b7f4e487b71000000000000000000000000000000000000000000000000000000005f52601160045260245ffd5b5f61133e82610e0d565b915061134983610e0d565b925082820190508082111561136157611360611307565b5b92915050565b7f42657474696e67206d75737420626520636c6f73656420746f207265736f6c765f8201527f6500000000000000000000000000000000000000000000000000000000000000602082015250565b5f6113c1602183610d43565b91506113cc82611367565b604082019050919050565b5f6020820190508181035f8301526113ee816113b5565b9050919050565b7f496e76616c69642077696e6e696e67207465616d0000000000000000000000005f82015250565b5f611429601483610d43565b9150611434826113f5565b602082019050919050565b5f6020820190508181035f8301526114568161141d565b9050919050565b7f42657474696e6720686173206e6f74206265656e207265736f6c7665642079655f8201527f7400000000000000000000000000000000000000000000000000000000000000602082015250565b5f6114b7602183610d43565b91506114c28261145d565b604082019050919050565b5f6020820190508181035f8301526114e4816114ab565b9050919050565b7f4e6f2062657420706c61636564000000000000000000000000000000000000005f82015250565b5f61151f600d83610d43565b915061152a826114eb565b602082019050919050565b5f6020820190508181035f83015261154c81611513565b9050919050565b7f57696e6e696e677320616c72656164792077697468647261776e0000000000005f82015250565b5f611587601a83610d43565b915061159282611553565b602082019050919050565b5f6020820190508181035f8301526115b48161157b565b9050919050565b7f596f7520646964206e6f7420626574206f6e207468652077696e6e696e6720745f8201527f65616d0000000000000000000000000000000000000000000000000000000000602082015250565b5f611615602383610d43565b9150611620826115bb565b604082019050919050565b5f6020820190508181035f83015261164281611609565b9050919050565b5f61165382610e0d565b915061165e83610e0d565b925082820261166c81610e0d565b9150828204841483151761168357611682611307565b5b5092915050565b7f4e487b71000000000000000000000000000000000000000000000000000000005f52601260045260245ffd5b5f6116c182610e0d565b91506116cc83610e0d565b9250826116dc576116db61168a565b5b82820490509291505056fea2646970667358221220c19161596fa9c028f647b7580a6a426b11243bbeb33339108382989c5162e9eb64736f6c634300081a0033",
					"opcodes": "PUSH1 0x80 PUSH1 0x40 MSTORE CALLVALUE DUP1 ISZERO PUSH1 0xE JUMPI PUSH0 DUP1 REVERT JUMPDEST POP CALLER PUSH1 0x4 PUSH0 PUSH2 0x100 EXP DUP2 SLOAD DUP2 PUSH20 0xFFFFFFFFFFFFFFFFFFFFFFFFFFFFFFFFFFFFFFFF MUL NOT AND SWAP1 DUP4 PUSH20 0xFFFFFFFFFFFFFFFFFFFFFFFFFFFFFFFFFFFFFFFF AND MUL OR SWAP1 SSTORE POP PUSH0 DUP1 PUSH0 PUSH2 0x100 EXP DUP2 SLOAD DUP2 PUSH1 0xFF MUL NOT AND SWAP1 DUP4 PUSH1 0x2 DUP2 GT ISZERO PUSH1 0x6F JUMPI PUSH1 0x6E PUSH1 0x78 JUMP JUMPDEST JUMPDEST MUL OR SWAP1 SSTORE POP PUSH1 0xA5 JUMP JUMPDEST PUSH32 0x4E487B7100000000000000000000000000000000000000000000000000000000 PUSH0 MSTORE PUSH1 0x21 PUSH1 0x4 MSTORE PUSH1 0x24 PUSH0 REVERT JUMPDEST PUSH2 0x171D DUP1 PUSH2 0xB2 PUSH0 CODECOPY PUSH0 RETURN INVALID PUSH1 0x80 PUSH1 0x40 MSTORE PUSH1 0x4 CALLDATASIZE LT PUSH2 0x9F JUMPI PUSH0 CALLDATALOAD PUSH1 0xE0 SHR DUP1 PUSH4 0x8DA5CB5B GT PUSH2 0x63 JUMPI DUP1 PUSH4 0x8DA5CB5B EQ PUSH2 0x193 JUMPI DUP1 PUSH4 0xA179ACDB EQ PUSH2 0x1BD JUMPI DUP1 PUSH4 0xC19D93FB EQ PUSH2 0x1E5 JUMPI DUP1 PUSH4 0xCC42E83A EQ PUSH2 0x20F JUMPI DUP1 PUSH4 0xDE3F18E2 EQ PUSH2 0x225 JUMPI DUP1 PUSH4 0xFDD746BE EQ PUSH2 0x24F JUMPI PUSH2 0xDF JUMP JUMPDEST DUP1 PUSH4 0x15AC534D EQ PUSH2 0xE3 JUMPI DUP1 PUSH4 0x2313313F EQ PUSH2 0xF9 JUMPI DUP1 PUSH4 0x43046844 EQ PUSH2 0x10F JUMPI DUP1 PUSH4 0x55587B8E EQ PUSH2 0x12B JUMPI DUP1 PUSH4 0x89A78F1A EQ PUSH2 0x155 JUMPI PUSH2 0xDF JUMP JUMPDEST CALLDATASIZE PUSH2 0xDF JUMPI PUSH1 0x40 MLOAD PUSH32 0x8C379A000000000000000000000000000000000000000000000000000000000 DUP2 MSTORE PUSH1 0x4 ADD PUSH2 0xD6 SWAP1 PUSH2 0xD9D JUMP JUMPDEST PUSH1 0x40 MLOAD DUP1 SWAP2 SUB SWAP1 REVERT JUMPDEST PUSH0 DUP1 REVERT JUMPDEST CALLVALUE DUP1 ISZERO PUSH2 0xEE JUMPI PUSH0 DUP1 REVERT JUMPDEST POP PUSH2 0xF7 PUSH2 0x279 JUMP JUMPDEST STOP JUMPDEST CALLVALUE DUP1 ISZERO PUSH2 0x104 JUMPI PUSH0 DUP1 REVERT JUMPDEST POP PUSH2 0x10D PUSH2 0x3A5 JUMP JUMPDEST STOP JUMPDEST PUSH2 0x129 PUSH1 0x4 DUP1 CALLDATASIZE SUB DUP2 ADD SWAP1 PUSH2 0x124 SWAP2 SWAP1 PUSH2 0xDE2 JUMP JUMPDEST PUSH2 0x419 JUMP JUMPDEST STOP JUMPDEST CALLVALUE DUP1 ISZERO PUSH2 0x136 JUMPI PUSH0 DUP1 REVERT JUMPDEST POP PUSH2 0x13F PUSH2 0x76F JUMP JUMPDEST PUSH1 0x40 MLOAD PUSH2 0x14C SWAP2 SWAP1 PUSH2 0xE25 JUMP JUMPDEST PUSH1 0x40 MLOAD DUP1 SWAP2 SUB SWAP1 RETURN JUMPDEST CALLVALUE DUP1 ISZERO PUSH2 0x160 JUMPI PUSH0 DUP1 REVERT JUMPDEST POP PUSH2 0x17B PUSH1 0x4 DUP1 CALLDATASIZE SUB DUP2 ADD SWAP1 PUSH2 0x176 SWAP2 SWAP1 PUSH2 0xE98 JUMP JUMPDEST PUSH2 0x775 JUMP JUMPDEST PUSH1 0x40 MLOAD PUSH2 0x18A SWAP4 SWAP3 SWAP2 SWAP1 PUSH2 0xF50 JUMP JUMPDEST PUSH1 0x40 MLOAD DUP1 SWAP2 SUB SWAP1 RETURN JUMPDEST CALLVALUE DUP1 ISZERO PUSH2 0x19E JUMPI PUSH0 DUP1 REVERT JUMPDEST POP PUSH2 0x1A7 PUSH2 0x7B4 JUMP JUMPDEST PUSH1 0x40 MLOAD PUSH2 0x1B4 SWAP2 SWAP1 PUSH2 0xF94 JUMP JUMPDEST PUSH1 0x40 MLOAD DUP1 SWAP2 SUB SWAP1 RETURN JUMPDEST CALLVALUE DUP1 ISZERO PUSH2 0x1C8 JUMPI PUSH0 DUP1 REVERT JUMPDEST POP PUSH2 0x1E3 PUSH1 0x4 DUP1 CALLDATASIZE SUB DUP2 ADD SWAP1 PUSH2 0x1DE SWAP2 SWAP1 PUSH2 0xDE2 JUMP JUMPDEST PUSH2 0x7D9 JUMP JUMPDEST STOP JUMPDEST CALLVALUE DUP1 ISZERO PUSH2 0x1F0 JUMPI PUSH0 DUP1 REVERT JUMPDEST POP PUSH2 0x1F9 PUSH2 0x9FD JUMP JUMPDEST PUSH1 0x40 MLOAD PUSH2 0x206 SWAP2 SWAP1 PUSH2 0xFF3 JUMP JUMPDEST PUSH1 0x40 MLOAD DUP1 SWAP2 SUB SWAP1 RETURN JUMPDEST CALLVALUE DUP1 ISZERO PUSH2 0x21A JUMPI PUSH0 DUP1 REVERT JUMPDEST POP PUSH2 0x223 PUSH2 0xA0D JUMP JUMPDEST STOP JUMPDEST CALLVALUE DUP1 ISZERO PUSH2 0x230 JUMPI PUSH0 DUP1 REVERT JUMPDEST POP PUSH2 0x239 PUSH2 0xD2A JUMP JUMPDEST PUSH1 0x40 MLOAD PUSH2 0x246 SWAP2 SWAP1 PUSH2 0x100C JUMP JUMPDEST PUSH1 0x40 MLOAD DUP1 SWAP2 SUB SWAP1 RETURN JUMPDEST CALLVALUE DUP1 ISZERO PUSH2 0x25A JUMPI PUSH0 DUP1 REVERT JUMPDEST POP PUSH2 0x263 PUSH2 0xD3D JUMP JUMPDEST PUSH1 0x40 MLOAD PUSH2 0x270 SWAP2 SWAP1 PUSH2 0xE25 JUMP JUMPDEST PUSH1 0x40 MLOAD DUP1 SWAP2 SUB SWAP1 RETURN JUMPDEST PUSH1 0x4 PUSH0 SWAP1 SLOAD SWAP1 PUSH2 0x100 EXP SWAP1 DIV PUSH20 0xFFFFFFFFFFFFFFFFFFFFFFFFFFFFFFFFFFFFFFFF AND PUSH20 0xFFFFFFFFFFFFFFFFFFFFFFFFFFFFFFFFFFFFFFFF AND CALLER PUSH20 0xFFFFFFFFFFFFFFFFFFFFFFFFFFFFFFFFFFFFFFFF AND EQ PUSH2 0x308 JUMPI PUSH1 0x40 MLOAD PUSH32 0x8C379A000000000000000000000000000000000000000000000000000000000 DUP2 MSTORE PUSH1 0x4 ADD PUSH2 0x2FF SWAP1 PUSH2 0x1095 JUMP JUMPDEST PUSH1 0x40 MLOAD DUP1 SWAP2 SUB SWAP1 REVERT JUMPDEST PUSH0 PUSH1 0x2 DUP2 GT ISZERO PUSH2 0x31B JUMPI PUSH2 0x31A PUSH2 0xEC3 JUMP JUMPDEST JUMPDEST PUSH0 DUP1 SLOAD SWAP1 PUSH2 0x100 EXP SWAP1 DIV PUSH1 0xFF AND PUSH1 0x2 DUP2 GT ISZERO PUSH2 0x33A JUMPI PUSH2 0x339 PUSH2 0xEC3 JUMP JUMPDEST JUMPDEST EQ PUSH2 0x37A JUMPI PUSH1 0x40 MLOAD PUSH32 0x8C379A000000000000000000000000000000000000000000000000000000000 DUP2 MSTORE PUSH1 0x4 ADD PUSH2 0x371 SWAP1 PUSH2 0x1123 JUMP JUMPDEST PUSH1 0x40 MLOAD DUP1 SWAP2 SUB SWAP1 REVERT JUMPDEST PUSH1 0x1 PUSH0 DUP1 PUSH2 0x100 EXP DUP2 SLOAD DUP2 PUSH1 0xFF MUL NOT AND SWAP1 DUP4 PUSH1 0x2 DUP2 GT ISZERO PUSH2 0x39E JUMPI PUSH2 0x39D PUSH2 0xEC3 JUMP JUMPDEST JUMPDEST MUL OR SWAP1 SSTORE POP JUMP JUMPDEST PUSH0 PUSH1 0x2 DUP2 GT ISZERO PUSH2 0x3B8 JUMPI PUSH2 0x3B7 PUSH2 0xEC3 JUMP JUMPDEST JUMPDEST PUSH0 DUP1 SLOAD SWAP1 PUSH2 0x100 EXP SWAP1 DIV PUSH1 0xFF AND PUSH1 0x2 DUP2 GT ISZERO PUSH2 0x3D7 JUMPI PUSH2 0x3D6 PUSH2 0xEC3 JUMP JUMPDEST JUMPDEST EQ PUSH2 0x417 JUMPI PUSH1 0x40 MLOAD PUSH32 0x8C379A000000000000000000000000000000000000000000000000000000000 DUP2 MSTORE PUSH1 0x4 ADD PUSH2 0x40E SWAP1 PUSH2 0x118B JUMP JUMPDEST PUSH1 0x40 MLOAD DUP1 SWAP2 SUB SWAP1 REVERT JUMPDEST JUMP JUMPDEST PUSH0 PUSH1 0x2 DUP2 GT ISZERO PUSH2 0x42C JUMPI PUSH2 0x42B PUSH2 0xEC3 JUMP JUMPDEST JUMPDEST PUSH0 DUP1 SLOAD SWAP1 PUSH2 0x100 EXP SWAP1 DIV PUSH1 0xFF AND PUSH1 0x2 DUP2 GT ISZERO PUSH2 0x44B JUMPI PUSH2 0x44A PUSH2 0xEC3 JUMP JUMPDEST JUMPDEST EQ PUSH2 0x48B JUMPI PUSH1 0x40 MLOAD PUSH32 0x8C379A000000000000000000000000000000000000000000000000000000000 DUP2 MSTORE PUSH1 0x4 ADD PUSH2 0x482 SWAP1 PUSH2 0x118B JUMP JUMPDEST PUSH1 0x40 MLOAD DUP1 SWAP2 SUB SWAP1 REVERT JUMPDEST PUSH0 PUSH1 0x1 PUSH0 CALLER PUSH20 0xFFFFFFFFFFFFFFFFFFFFFFFFFFFFFFFFFFFFFFFF AND PUSH20 0xFFFFFFFFFFFFFFFFFFFFFFFFFFFFFFFFFFFFFFFF AND DUP2 MSTORE PUSH1 0x20 ADD SWAP1 DUP2 MSTORE PUSH1 0x20 ADD PUSH0 KECCAK256 PUSH0 ADD SLOAD EQ PUSH2 0x50C JUMPI PUSH1 0x40 MLOAD PUSH32 0x8C379A000000000000000000000000000000000000000000000000000000000 DUP2 MSTORE PUSH1 0x4 ADD PUSH2 0x503 SWAP1 PUSH2 0x11F3 JUMP JUMPDEST PUSH1 0x40 MLOAD DUP1 SWAP2 SUB SWAP1 REVERT JUMPDEST PUSH0 CALLVALUE GT PUSH2 0x54E JUMPI PUSH1 0x40 MLOAD PUSH32 0x8C379A000000000000000000000000000000000000000000000000000000000 DUP2 MSTORE PUSH1 0x4 ADD PUSH2 0x545 SWAP1 PUSH2 0x1281 JUMP JUMPDEST PUSH1 0x40 MLOAD DUP1 SWAP2 SUB SWAP1 REVERT JUMPDEST PUSH1 0x1 PUSH1 0x2 DUP2 GT ISZERO PUSH2 0x562 JUMPI PUSH2 0x561 PUSH2 0xEC3 JUMP JUMPDEST JUMPDEST DUP2 PUSH1 0x2 DUP2 GT ISZERO PUSH2 0x575 JUMPI PUSH2 0x574 PUSH2 0xEC3 JUMP JUMPDEST JUMPDEST EQ DUP1 PUSH2 0x5A4 JUMPI POP PUSH1 0x2 DUP1 DUP2 GT ISZERO PUSH2 0x58F JUMPI PUSH2 0x58E PUSH2 0xEC3 JUMP JUMPDEST JUMPDEST DUP2 PUSH1 0x2 DUP2 GT ISZERO PUSH2 0x5A2 JUMPI PUSH2 0x5A1 PUSH2 0xEC3 JUMP JUMPDEST JUMPDEST EQ JUMPDEST PUSH2 0x5E3 JUMPI PUSH1 0x40 MLOAD PUSH32 0x8C379A000000000000000000000000000000000000000000000000000000000 DUP2 MSTORE PUSH1 0x4 ADD PUSH2 0x5DA SWAP1 PUSH2 0x12E9 JUMP JUMPDEST PUSH1 0x40 MLOAD DUP1 SWAP2 SUB SWAP1 REVERT JUMPDEST PUSH1 0x40 MLOAD DUP1 PUSH1 0x60 ADD PUSH1 0x40 MSTORE DUP1 CALLVALUE DUP2 MSTORE PUSH1 0x20 ADD DUP3 PUSH1 0x2 DUP2 GT ISZERO PUSH2 0x607 JUMPI PUSH2 0x606 PUSH2 0xEC3 JUMP JUMPDEST JUMPDEST DUP2 MSTORE PUSH1 0x20 ADD PUSH0 ISZERO ISZERO DUP2 MSTORE POP PUSH1 0x1 PUSH0 CALLER PUSH20 0xFFFFFFFFFFFFFFFFFFFFFFFFFFFFFFFFFFFFFFFF AND PUSH20 0xFFFFFFFFFFFFFFFFFFFFFFFFFFFFFFFFFFFFFFFF AND DUP2 MSTORE PUSH1 0x20 ADD SWAP1 DUP2 MSTORE PUSH1 0x20 ADD PUSH0 KECCAK256 PUSH0 DUP3 ADD MLOAD DUP2 PUSH0 ADD SSTORE PUSH1 0x20 DUP3 ADD MLOAD DUP2 PUSH1 0x1 ADD PUSH0 PUSH2 0x100 EXP DUP2 SLOAD DUP2 PUSH1 0xFF MUL NOT AND SWAP1 DUP4 PUSH1 0x2 DUP2 GT ISZERO PUSH2 0x681 JUMPI PUSH2 0x680 PUSH2 0xEC3 JUMP JUMPDEST JUMPDEST MUL OR SWAP1 SSTORE POP PUSH1 0x40 DUP3 ADD MLOAD DUP2 PUSH1 0x1 ADD PUSH1 0x1 PUSH2 0x100 EXP DUP2 SLOAD DUP2 PUSH1 0xFF MUL NOT AND SWAP1 DUP4 ISZERO ISZERO MUL OR SWAP1 SSTORE POP SWAP1 POP POP PUSH1 0x1 PUSH1 0x2 DUP2 GT ISZERO PUSH2 0x6BD JUMPI PUSH2 0x6BC PUSH2 0xEC3 JUMP JUMPDEST JUMPDEST DUP2 PUSH1 0x2 DUP2 GT ISZERO PUSH2 0x6D0 JUMPI PUSH2 0x6CF PUSH2 0xEC3 JUMP JUMPDEST JUMPDEST SUB PUSH2 0x6F2 JUMPI CALLVALUE PUSH1 0x2 PUSH0 DUP3 DUP3 SLOAD PUSH2 0x6E6 SWAP2 SWAP1 PUSH2 0x1334 JUMP JUMPDEST SWAP3 POP POP DUP2 SWAP1 SSTORE POP PUSH2 0x70B JUMP JUMPDEST CALLVALUE PUSH1 0x3 PUSH0 DUP3 DUP3 SLOAD PUSH2 0x703 SWAP2 SWAP1 PUSH2 0x1334 JUMP JUMPDEST SWAP3 POP POP DUP2 SWAP1 SSTORE POP JUMPDEST DUP1 PUSH1 0x2 DUP2 GT ISZERO PUSH2 0x71E JUMPI PUSH2 0x71D PUSH2 0xEC3 JUMP JUMPDEST JUMPDEST CALLER PUSH20 0xFFFFFFFFFFFFFFFFFFFFFFFFFFFFFFFFFFFFFFFF AND PUSH32 0x9F6B4CCED64244A64465098F682029975B1614400B96BC6BD12C668083719166 CALLVALUE PUSH1 0x40 MLOAD PUSH2 0x764 SWAP2 SWAP1 PUSH2 0xE25 JUMP JUMPDEST PUSH1 0x40 MLOAD DUP1 SWAP2 SUB SWAP1 LOG3 POP JUMP JUMPDEST PUSH1 0x3 SLOAD DUP2 JUMP JUMPDEST PUSH1 0x1 PUSH1 0x20 MSTORE DUP1 PUSH0 MSTORE PUSH1 0x40 PUSH0 KECCAK256 PUSH0 SWAP2 POP SWAP1 POP DUP1 PUSH0 ADD SLOAD SWAP1 DUP1 PUSH1 0x1 ADD PUSH0 SWAP1 SLOAD SWAP1 PUSH2 0x100 EXP SWAP1 DIV PUSH1 0xFF AND SWAP1 DUP1 PUSH1 0x1 ADD PUSH1 0x1 SWAP1 SLOAD SWAP1 PUSH2 0x100 EXP SWAP1 DIV PUSH1 0xFF AND SWAP1 POP DUP4 JUMP JUMPDEST PUSH1 0x4 PUSH0 SWAP1 SLOAD SWAP1 PUSH2 0x100 EXP SWAP1 DIV PUSH20 0xFFFFFFFFFFFFFFFFFFFFFFFFFFFFFFFFFFFFFFFF AND DUP2 JUMP JUMPDEST PUSH1 0x4 PUSH0 SWAP1 SLOAD SWAP1 PUSH2 0x100 EXP SWAP1 DIV PUSH20 0xFFFFFFFFFFFFFFFFFFFFFFFFFFFFFFFFFFFFFFFF AND PUSH20 0xFFFFFFFFFFFFFFFFFFFFFFFFFFFFFFFFFFFFFFFF AND CALLER PUSH20 0xFFFFFFFFFFFFFFFFFFFFFFFFFFFFFFFFFFFFFFFF AND EQ PUSH2 0x868 JUMPI PUSH1 0x40 MLOAD PUSH32 0x8C379A000000000000000000000000000000000000000000000000000000000 DUP2 MSTORE PUSH1 0x4 ADD PUSH2 0x85F SWAP1 PUSH2 0x1095 JUMP JUMPDEST PUSH1 0x40 MLOAD DUP1 SWAP2 SUB SWAP1 REVERT JUMPDEST PUSH1 0x1 PUSH1 0x2 DUP2 GT ISZERO PUSH2 0x87C JUMPI PUSH2 0x87B PUSH2 0xEC3 JUMP JUMPDEST JUMPDEST PUSH0 DUP1 SLOAD SWAP1 PUSH2 0x100 EXP SWAP1 DIV PUSH1 0xFF AND PUSH1 0x2 DUP2 GT ISZERO PUSH2 0x89B JUMPI PUSH2 0x89A PUSH2 0xEC3 JUMP JUMPDEST JUMPDEST EQ PUSH2 0x8DB JUMPI PUSH1 0x40 MLOAD PUSH32 0x8C379A000000000000000000000000000000000000000000000000000000000 DUP2 MSTORE PUSH1 0x4 ADD PUSH2 0x8D2 SWAP1 PUSH2 0x13D7 JUMP JUMPDEST PUSH1 0x40 MLOAD DUP1 SWAP2 SUB SWAP1 REVERT JUMPDEST PUSH1 0x1 PUSH1 0x2 DUP2 GT ISZERO PUSH2 0x8EF JUMPI PUSH2 0x8EE PUSH2 0xEC3 JUMP JUMPDEST JUMPDEST DUP2 PUSH1 0x2 DUP2 GT ISZERO PUSH2 0x902 JUMPI PUSH2 0x901 PUSH2 0xEC3 JUMP JUMPDEST JUMPDEST EQ DUP1 PUSH2 0x931 JUMPI POP PUSH1 0x2 DUP1 DUP2 GT ISZERO PUSH2 0x91C JUMPI PUSH2 0x91B PUSH2 0xEC3 JUMP JUMPDEST JUMPDEST DUP2 PUSH1 0x2 DUP2 GT ISZERO PUSH2 0x92F JUMPI PUSH2 0x92E PUSH2 0xEC3 JUMP JUMPDEST JUMPDEST EQ JUMPDEST PUSH2 0x970 JUMPI PUSH1 0x40 MLOAD PUSH32 0x8C379A000000000000000000000000000000000000000000000000000000000 DUP2 MSTORE PUSH1 0x4 ADD PUSH2 0x967 SWAP1 PUSH2 0x143F JUMP JUMPDEST PUSH1 0x40 MLOAD DUP1 SWAP2 SUB SWAP1 REVERT JUMPDEST PUSH1 0x2 PUSH0 DUP1 PUSH2 0x100 EXP DUP2 SLOAD DUP2 PUSH1 0xFF MUL NOT AND SWAP1 DUP4 PUSH1 0x2 DUP2 GT ISZERO PUSH2 0x994 JUMPI PUSH2 0x993 PUSH2 0xEC3 JUMP JUMPDEST JUMPDEST MUL OR SWAP1 SSTORE POP DUP1 PUSH1 0x4 PUSH1 0x14 PUSH2 0x100 EXP DUP2 SLOAD DUP2 PUSH1 0xFF MUL NOT AND SWAP1 DUP4 PUSH1 0x2 DUP2 GT ISZERO PUSH2 0x9BE JUMPI PUSH2 0x9BD PUSH2 0xEC3 JUMP JUMPDEST JUMPDEST MUL OR SWAP1 SSTORE POP PUSH32 0xD6BCD4B6873D691163F1AFF2D5585378623AEF08E17513A5253EABE39C65DC50 DUP2 PUSH1 0x40 MLOAD PUSH2 0x9F2 SWAP2 SWAP1 PUSH2 0x100C JUMP JUMPDEST PUSH1 0x40 MLOAD DUP1 SWAP2 SUB SWAP1 LOG1 POP JUMP JUMPDEST PUSH0 DUP1 SLOAD SWAP1 PUSH2 0x100 EXP SWAP1 DIV PUSH1 0xFF AND DUP2 JUMP JUMPDEST PUSH1 0x2 DUP1 DUP2 GT ISZERO PUSH2 0xA20 JUMPI PUSH2 0xA1F PUSH2 0xEC3 JUMP JUMPDEST JUMPDEST PUSH0 DUP1 SLOAD SWAP1 PUSH2 0x100 EXP SWAP1 DIV PUSH1 0xFF AND PUSH1 0x2 DUP2 GT ISZERO PUSH2 0xA3F JUMPI PUSH2 0xA3E PUSH2 0xEC3 JUMP JUMPDEST JUMPDEST EQ PUSH2 0xA7F JUMPI PUSH1 0x40 MLOAD PUSH32 0x8C379A000000000000000000000000000000000000000000000000000000000 DUP2 MSTORE PUSH1 0x4 ADD PUSH2 0xA76 SWAP1 PUSH2 0x14CD JUMP JUMPDEST PUSH1 0x40 MLOAD DUP1 SWAP2 SUB SWAP1 REVERT JUMPDEST PUSH0 PUSH1 0x1 PUSH0 CALLER PUSH20 0xFFFFFFFFFFFFFFFFFFFFFFFFFFFFFFFFFFFFFFFF AND PUSH20 0xFFFFFFFFFFFFFFFFFFFFFFFFFFFFFFFFFFFFFFFF AND DUP2 MSTORE PUSH1 0x20 ADD SWAP1 DUP2 MSTORE PUSH1 0x20 ADD PUSH0 KECCAK256 SWAP1 POP PUSH0 DUP2 PUSH0 ADD SLOAD GT PUSH2 0xB04 JUMPI PUSH1 0x40 MLOAD PUSH32 0x8C379A000000000000000000000000000000000000000000000000000000000 DUP2 MSTORE PUSH1 0x4 ADD PUSH2 0xAFB SWAP1 PUSH2 0x1535 JUMP JUMPDEST PUSH1 0x40 MLOAD DUP1 SWAP2 SUB SWAP1 REVERT JUMPDEST DUP1 PUSH1 0x1 ADD PUSH1 0x1 SWAP1 SLOAD SWAP1 PUSH2 0x100 EXP SWAP1 DIV PUSH1 0xFF AND ISZERO PUSH2 0xB56 JUMPI PUSH1 0x40 MLOAD PUSH32 0x8C379A000000000000000000000000000000000000000000000000000000000 DUP2 MSTORE PUSH1 0x4 ADD PUSH2 0xB4D SWAP1 PUSH2 0x159D JUMP JUMPDEST PUSH1 0x40 MLOAD DUP1 SWAP2 SUB SWAP1 REVERT JUMPDEST PUSH1 0x4 PUSH1 0x14 SWAP1 SLOAD SWAP1 PUSH2 0x100 EXP SWAP1 DIV PUSH1 0xFF AND PUSH1 0x2 DUP2 GT ISZERO PUSH2 0xB78 JUMPI PUSH2 0xB77 PUSH2 0xEC3 JUMP JUMPDEST JUMPDEST DUP2 PUSH1 0x1 ADD PUSH0 SWAP1 SLOAD SWAP1 PUSH2 0x100 EXP SWAP1 DIV PUSH1 0xFF AND PUSH1 0x2 DUP2 GT ISZERO PUSH2 0xB9B JUMPI PUSH2 0xB9A PUSH2 0xEC3 JUMP JUMPDEST JUMPDEST EQ PUSH2 0xBDB JUMPI PUSH1 0x40 MLOAD PUSH32 0x8C379A000000000000000000000000000000000000000000000000000000000 DUP2 MSTORE PUSH1 0x4 ADD PUSH2 0xBD2 SWAP1 PUSH2 0x162B JUMP JUMPDEST PUSH1 0x40 MLOAD DUP1 SWAP2 SUB SWAP1 REVERT JUMPDEST PUSH0 PUSH1 0x1 PUSH1 0x2 DUP2 GT ISZERO PUSH2 0xBF0 JUMPI PUSH2 0xBEF PUSH2 0xEC3 JUMP JUMPDEST JUMPDEST PUSH1 0x4 PUSH1 0x14 SWAP1 SLOAD SWAP1 PUSH2 0x100 EXP SWAP1 DIV PUSH1 0xFF AND PUSH1 0x2 DUP2 GT ISZERO PUSH2 0xC12 JUMPI PUSH2 0xC11 PUSH2 0xEC3 JUMP JUMPDEST JUMPDEST SUB PUSH2 0xC49 JUMPI PUSH1 0x2 SLOAD PUSH1 0x3 SLOAD PUSH1 0x2 SLOAD PUSH2 0xC2A SWAP2 SWAP1 PUSH2 0x1334 JUMP JUMPDEST DUP4 PUSH0 ADD SLOAD PUSH2 0xC38 SWAP2 SWAP1 PUSH2 0x1649 JUMP JUMPDEST PUSH2 0xC42 SWAP2 SWAP1 PUSH2 0x16B7 JUMP JUMPDEST SWAP1 POP PUSH2 0xC77 JUMP JUMPDEST PUSH1 0x3 SLOAD PUSH1 0x3 SLOAD PUSH1 0x2 SLOAD PUSH2 0xC5C SWAP2 SWAP1 PUSH2 0x1334 JUMP JUMPDEST DUP4 PUSH0 ADD SLOAD PUSH2 0xC6A SWAP2 SWAP1 PUSH2 0x1649 JUMP JUMPDEST PUSH2 0xC74 SWAP2 SWAP1 PUSH2 0x16B7 JUMP JUMPDEST SWAP1 POP JUMPDEST PUSH1 0x1 DUP3 PUSH1 0x1 ADD PUSH1 0x1 PUSH2 0x100 EXP DUP2 SLOAD DUP2 PUSH1 0xFF MUL NOT AND SWAP1 DUP4 ISZERO ISZERO MUL OR SWAP1 SSTORE POP CALLER PUSH20 0xFFFFFFFFFFFFFFFFFFFFFFFFFFFFFFFFFFFFFFFF AND PUSH2 0x8FC DUP3 SWAP1 DUP2 ISZERO MUL SWAP1 PUSH1 0x40 MLOAD PUSH0 PUSH1 0x40 MLOAD DUP1 DUP4 SUB DUP2 DUP6 DUP9 DUP9 CALL SWAP4 POP POP POP POP ISZERO DUP1 ISZERO PUSH2 0xCD7 JUMPI RETURNDATASIZE PUSH0 DUP1 RETURNDATACOPY RETURNDATASIZE PUSH0 REVERT JUMPDEST POP CALLER PUSH20 0xFFFFFFFFFFFFFFFFFFFFFFFFFFFFFFFFFFFFFFFF AND PUSH32 0x24215BBAF0832FA4D6FFEF16DEE3971D8B714921FEF3AD63F793D578983C6DC2 DUP3 PUSH1 0x40 MLOAD PUSH2 0xD1E SWAP2 SWAP1 PUSH2 0xE25 JUMP JUMPDEST PUSH1 0x40 MLOAD DUP1 SWAP2 SUB SWAP1 LOG2 POP POP JUMP JUMPDEST PUSH1 0x4 PUSH1 0x14 SWAP1 SLOAD SWAP1 PUSH2 0x100 EXP SWAP1 DIV PUSH1 0xFF AND DUP2 JUMP JUMPDEST PUSH1 0x2 SLOAD DUP2 JUMP JUMPDEST PUSH0 DUP3 DUP3 MSTORE PUSH1 0x20 DUP3 ADD SWAP1 POP SWAP3 SWAP2 POP POP JUMP JUMPDEST PUSH32 0x446972656374207472616E7366657273206E6F7420616C6C6F77656400000000 PUSH0 DUP3 ADD MSTORE POP JUMP JUMPDEST PUSH0 PUSH2 0xD87 PUSH1 0x1C DUP4 PUSH2 0xD43 JUMP JUMPDEST SWAP2 POP PUSH2 0xD92 DUP3 PUSH2 0xD53 JUMP JUMPDEST PUSH1 0x20 DUP3 ADD SWAP1 POP SWAP2 SWAP1 POP JUMP JUMPDEST PUSH0 PUSH1 0x20 DUP3 ADD SWAP1 POP DUP2 DUP2 SUB PUSH0 DUP4 ADD MSTORE PUSH2 0xDB4 DUP2 PUSH2 0xD7B JUMP JUMPDEST SWAP1 POP SWAP2 SWAP1 POP JUMP JUMPDEST PUSH0 DUP1 REVERT JUMPDEST PUSH1 0x3 DUP2 LT PUSH2 0xDCB JUMPI PUSH0 DUP1 REVERT JUMPDEST POP JUMP JUMPDEST PUSH0 DUP2 CALLDATALOAD SWAP1 POP PUSH2 0xDDC DUP2 PUSH2 0xDBF JUMP JUMPDEST SWAP3 SWAP2 POP POP JUMP JUMPDEST PUSH0 PUSH1 0x20 DUP3 DUP5 SUB SLT ISZERO PUSH2 0xDF7 JUMPI PUSH2 0xDF6 PUSH2 0xDBB JUMP JUMPDEST JUMPDEST PUSH0 PUSH2 0xE04 DUP5 DUP3 DUP6 ADD PUSH2 0xDCE JUMP JUMPDEST SWAP2 POP POP SWAP3 SWAP2 POP POP JUMP JUMPDEST PUSH0 DUP2 SWAP1 POP SWAP2 SWAP1 POP JUMP JUMPDEST PUSH2 0xE1F DUP2 PUSH2 0xE0D JUMP JUMPDEST DUP3 MSTORE POP POP JUMP JUMPDEST PUSH0 PUSH1 0x20 DUP3 ADD SWAP1 POP PUSH2 0xE38 PUSH0 DUP4 ADD DUP5 PUSH2 0xE16 JUMP JUMPDEST SWAP3 SWAP2 POP POP JUMP JUMPDEST PUSH0 PUSH20 0xFFFFFFFFFFFFFFFFFFFFFFFFFFFFFFFFFFFFFFFF DUP3 AND SWAP1 POP SWAP2 SWAP1 POP JUMP JUMPDEST PUSH0 PUSH2 0xE67 DUP3 PUSH2 0xE3E JUMP JUMPDEST SWAP1 POP SWAP2 SWAP1 POP JUMP JUMPDEST PUSH2 0xE77 DUP2 PUSH2 0xE5D JUMP JUMPDEST DUP2 EQ PUSH2 0xE81 JUMPI PUSH0 DUP1 REVERT JUMPDEST POP JUMP JUMPDEST PUSH0 DUP2 CALLDATALOAD SWAP1 POP PUSH2 0xE92 DUP2 PUSH2 0xE6E JUMP JUMPDEST SWAP3 SWAP2 POP POP JUMP JUMPDEST PUSH0 PUSH1 0x20 DUP3 DUP5 SUB SLT ISZERO PUSH2 0xEAD JUMPI PUSH2 0xEAC PUSH2 0xDBB JUMP JUMPDEST JUMPDEST PUSH0 PUSH2 0xEBA DUP5 DUP3 DUP6 ADD PUSH2 0xE84 JUMP JUMPDEST SWAP2 POP POP SWAP3 SWAP2 POP POP JUMP JUMPDEST PUSH32 0x4E487B7100000000000000000000000000000000000000000000000000000000 PUSH0 MSTORE PUSH1 0x21 PUSH1 0x4 MSTORE PUSH1 0x24 PUSH0 REVERT JUMPDEST PUSH1 0x3 DUP2 LT PUSH2 0xF01 JUMPI PUSH2 0xF00 PUSH2 0xEC3 JUMP JUMPDEST JUMPDEST POP JUMP JUMPDEST PUSH0 DUP2 SWAP1 POP PUSH2 0xF11 DUP3 PUSH2 0xEF0 JUMP JUMPDEST SWAP2 SWAP1 POP JUMP JUMPDEST PUSH0 PUSH2 0xF20 DUP3 PUSH2 0xF04 JUMP JUMPDEST SWAP1 POP SWAP2 SWAP1 POP JUMP JUMPDEST PUSH2 0xF30 DUP2 PUSH2 0xF16 JUMP JUMPDEST DUP3 MSTORE POP POP JUMP JUMPDEST PUSH0 DUP2 ISZERO ISZERO SWAP1 POP SWAP2 SWAP1 POP JUMP JUMPDEST PUSH2 0xF4A DUP2 PUSH2 0xF36 JUMP JUMPDEST DUP3 MSTORE POP POP JUMP JUMPDEST PUSH0 PUSH1 0x60 DUP3 ADD SWAP1 POP PUSH2 0xF63 PUSH0 DUP4 ADD DUP7 PUSH2 0xE16 JUMP JUMPDEST PUSH2 0xF70 PUSH1 0x20 DUP4 ADD DUP6 PUSH2 0xF27 JUMP JUMPDEST PUSH2 0xF7D PUSH1 0x40 DUP4 ADD DUP5 PUSH2 0xF41 JUMP JUMPDEST SWAP5 SWAP4 POP POP POP POP JUMP JUMPDEST PUSH2 0xF8E DUP2 PUSH2 0xE5D JUMP JUMPDEST DUP3 MSTORE POP POP JUMP JUMPDEST PUSH0 PUSH1 0x20 DUP3 ADD SWAP1 POP PUSH2 0xFA7 PUSH0 DUP4 ADD DUP5 PUSH2 0xF85 JUMP JUMPDEST SWAP3 SWAP2 POP POP JUMP JUMPDEST PUSH1 0x3 DUP2 LT PUSH2 0xFBE JUMPI PUSH2 0xFBD PUSH2 0xEC3 JUMP JUMPDEST JUMPDEST POP JUMP JUMPDEST PUSH0 DUP2 SWAP1 POP PUSH2 0xFCE DUP3 PUSH2 0xFAD JUMP JUMPDEST SWAP2 SWAP1 POP JUMP JUMPDEST PUSH0 PUSH2 0xFDD DUP3 PUSH2 0xFC1 JUMP JUMPDEST SWAP1 POP SWAP2 SWAP1 POP JUMP JUMPDEST PUSH2 0xFED DUP2 PUSH2 0xFD3 JUMP JUMPDEST DUP3 MSTORE POP POP JUMP JUMPDEST PUSH0 PUSH1 0x20 DUP3 ADD SWAP1 POP PUSH2 0x1006 PUSH0 DUP4 ADD DUP5 PUSH2 0xFE4 JUMP JUMPDEST SWAP3 SWAP2 POP POP JUMP JUMPDEST PUSH0 PUSH1 0x20 DUP3 ADD SWAP1 POP PUSH2 0x101F PUSH0 DUP4 ADD DUP5 PUSH2 0xF27 JUMP JUMPDEST SWAP3 SWAP2 POP POP JUMP JUMPDEST PUSH32 0x4F6E6C7920746865206F776E65722063616E2063616C6C20746869732066756E PUSH0 DUP3 ADD MSTORE PUSH32 0x6374696F6E000000000000000000000000000000000000000000000000000000 PUSH1 0x20 DUP3 ADD MSTORE POP JUMP JUMPDEST PUSH0 PUSH2 0x107F PUSH1 0x25 DUP4 PUSH2 0xD43 JUMP JUMPDEST SWAP2 POP PUSH2 0x108A DUP3 PUSH2 0x1025 JUMP JUMPDEST PUSH1 0x40 DUP3 ADD SWAP1 POP SWAP2 SWAP1 POP JUMP JUMPDEST PUSH0 PUSH1 0x20 DUP3 ADD SWAP1 POP DUP2 DUP2 SUB PUSH0 DUP4 ADD MSTORE PUSH2 0x10AC DUP2 PUSH2 0x1073 JUMP JUMPDEST SWAP1 POP SWAP2 SWAP1 POP JUMP JUMPDEST PUSH32 0x42657474696E6720697320616C726561647920636C6F736564206F7220726573 PUSH0 DUP3 ADD MSTORE PUSH32 0x6F6C766564000000000000000000000000000000000000000000000000000000 PUSH1 0x20 DUP3 ADD MSTORE POP JUMP JUMPDEST PUSH0 PUSH2 0x110D PUSH1 0x25 DUP4 PUSH2 0xD43 JUMP JUMPDEST SWAP2 POP PUSH2 0x1118 DUP3 PUSH2 0x10B3 JUMP JUMPDEST PUSH1 0x40 DUP3 ADD SWAP1 POP SWAP2 SWAP1 POP JUMP JUMPDEST PUSH0 PUSH1 0x20 DUP3 ADD SWAP1 POP DUP2 DUP2 SUB PUSH0 DUP4 ADD MSTORE PUSH2 0x113A DUP2 PUSH2 0x1101 JUMP JUMPDEST SWAP1 POP SWAP2 SWAP1 POP JUMP JUMPDEST PUSH32 0x42657474696E67206973206E6F74206F70656E00000000000000000000000000 PUSH0 DUP3 ADD MSTORE POP JUMP JUMPDEST PUSH0 PUSH2 0x1175 PUSH1 0x13 DUP4 PUSH2 0xD43 JUMP JUMPDEST SWAP2 POP PUSH2 0x1180 DUP3 PUSH2 0x1141 JUMP JUMPDEST PUSH1 0x20 DUP3 ADD SWAP1 POP SWAP2 SWAP1 POP JUMP JUMPDEST PUSH0 PUSH1 0x20 DUP3 ADD SWAP1 POP DUP2 DUP2 SUB PUSH0 DUP4 ADD MSTORE PUSH2 0x11A2 DUP2 PUSH2 0x1169 JUMP JUMPDEST SWAP1 POP SWAP2 SWAP1 POP JUMP JUMPDEST PUSH32 0x596F75206861766520616C726561647920706C61636564206120626574000000 PUSH0 DUP3 ADD MSTORE POP JUMP JUMPDEST PUSH0 PUSH2 0x11DD PUSH1 0x1D DUP4 PUSH2 0xD43 JUMP JUMPDEST SWAP2 POP PUSH2 0x11E8 DUP3 PUSH2 0x11A9 JUMP JUMPDEST PUSH1 0x20 DUP3 ADD SWAP1 POP SWAP2 SWAP1 POP JUMP JUMPDEST PUSH0 PUSH1 0x20 DUP3 ADD SWAP1 POP DUP2 DUP2 SUB PUSH0 DUP4 ADD MSTORE PUSH2 0x120A DUP2 PUSH2 0x11D1 JUMP JUMPDEST SWAP1 POP SWAP2 SWAP1 POP JUMP JUMPDEST PUSH32 0x42657420616D6F756E74206D7573742062652067726561746572207468616E20 PUSH0 DUP3 ADD MSTORE PUSH32 0x3000000000000000000000000000000000000000000000000000000000000000 PUSH1 0x20 DUP3 ADD MSTORE POP JUMP JUMPDEST PUSH0 PUSH2 0x126B PUSH1 0x21 DUP4 PUSH2 0xD43 JUMP JUMPDEST SWAP2 POP PUSH2 0x1276 DUP3 PUSH2 0x1211 JUMP JUMPDEST PUSH1 0x40 DUP3 ADD SWAP1 POP SWAP2 SWAP1 POP JUMP JUMPDEST PUSH0 PUSH1 0x20 DUP3 ADD SWAP1 POP DUP2 DUP2 SUB PUSH0 DUP4 ADD MSTORE PUSH2 0x1298 DUP2 PUSH2 0x125F JUMP JUMPDEST SWAP1 POP SWAP2 SWAP1 POP JUMP JUMPDEST PUSH32 0x496E76616C6964207465616D2073656C65637465640000000000000000000000 PUSH0 DUP3 ADD MSTORE POP JUMP JUMPDEST PUSH0 PUSH2 0x12D3 PUSH1 0x15 DUP4 PUSH2 0xD43 JUMP JUMPDEST SWAP2 POP PUSH2 0x12DE DUP3 PUSH2 0x129F JUMP JUMPDEST PUSH1 0x20 DUP3 ADD SWAP1 POP SWAP2 SWAP1 POP JUMP JUMPDEST PUSH0 PUSH1 0x20 DUP3 ADD SWAP1 POP DUP2 DUP2 SUB PUSH0 DUP4 ADD MSTORE PUSH2 0x1300 DUP2 PUSH2 0x12C7 JUMP JUMPDEST SWAP1 POP SWAP2 SWAP1 POP JUMP JUMPDEST PUSH32 0x4E487B7100000000000000000000000000000000000000000000000000000000 PUSH0 MSTORE PUSH1 0x11 PUSH1 0x4 MSTORE PUSH1 0x24 PUSH0 REVERT JUMPDEST PUSH0 PUSH2 0x133E DUP3 PUSH2 0xE0D JUMP JUMPDEST SWAP2 POP PUSH2 0x1349 DUP4 PUSH2 0xE0D JUMP JUMPDEST SWAP3 POP DUP3 DUP3 ADD SWAP1 POP DUP1 DUP3 GT ISZERO PUSH2 0x1361 JUMPI PUSH2 0x1360 PUSH2 0x1307 JUMP JUMPDEST JUMPDEST SWAP3 SWAP2 POP POP JUMP JUMPDEST PUSH32 0x42657474696E67206D75737420626520636C6F73656420746F207265736F6C76 PUSH0 DUP3 ADD MSTORE PUSH32 0x6500000000000000000000000000000000000000000000000000000000000000 PUSH1 0x20 DUP3 ADD MSTORE POP JUMP JUMPDEST PUSH0 PUSH2 0x13C1 PUSH1 0x21 DUP4 PUSH2 0xD43 JUMP JUMPDEST SWAP2 POP PUSH2 0x13CC DUP3 PUSH2 0x1367 JUMP JUMPDEST PUSH1 0x40 DUP3 ADD SWAP1 POP SWAP2 SWAP1 POP JUMP JUMPDEST PUSH0 PUSH1 0x20 DUP3 ADD SWAP1 POP DUP2 DUP2 SUB PUSH0 DUP4 ADD MSTORE PUSH2 0x13EE DUP2 PUSH2 0x13B5 JUMP JUMPDEST SWAP1 POP SWAP2 SWAP1 POP JUMP JUMPDEST PUSH32 0x496E76616C69642077696E6E696E67207465616D000000000000000000000000 PUSH0 DUP3 ADD MSTORE POP JUMP JUMPDEST PUSH0 PUSH2 0x1429 PUSH1 0x14 DUP4 PUSH2 0xD43 JUMP JUMPDEST SWAP2 POP PUSH2 0x1434 DUP3 PUSH2 0x13F5 JUMP JUMPDEST PUSH1 0x20 DUP3 ADD SWAP1 POP SWAP2 SWAP1 POP JUMP JUMPDEST PUSH0 PUSH1 0x20 DUP3 ADD SWAP1 POP DUP2 DUP2 SUB PUSH0 DUP4 ADD MSTORE PUSH2 0x1456 DUP2 PUSH2 0x141D JUMP JUMPDEST SWAP1 POP SWAP2 SWAP1 POP JUMP JUMPDEST PUSH32 0x42657474696E6720686173206E6F74206265656E207265736F6C766564207965 PUSH0 DUP3 ADD MSTORE PUSH32 0x7400000000000000000000000000000000000000000000000000000000000000 PUSH1 0x20 DUP3 ADD MSTORE POP JUMP JUMPDEST PUSH0 PUSH2 0x14B7 PUSH1 0x21 DUP4 PUSH2 0xD43 JUMP JUMPDEST SWAP2 POP PUSH2 0x14C2 DUP3 PUSH2 0x145D JUMP JUMPDEST PUSH1 0x40 DUP3 ADD SWAP1 POP SWAP2 SWAP1 POP JUMP JUMPDEST PUSH0 PUSH1 0x20 DUP3 ADD SWAP1 POP DUP2 DUP2 SUB PUSH0 DUP4 ADD MSTORE PUSH2 0x14E4 DUP2 PUSH2 0x14AB JUMP JUMPDEST SWAP1 POP SWAP2 SWAP1 POP JUMP JUMPDEST PUSH32 0x4E6F2062657420706C6163656400000000000000000000000000000000000000 PUSH0 DUP3 ADD MSTORE POP JUMP JUMPDEST PUSH0 PUSH2 0x151F PUSH1 0xD DUP4 PUSH2 0xD43 JUMP JUMPDEST SWAP2 POP PUSH2 0x152A DUP3 PUSH2 0x14EB JUMP JUMPDEST PUSH1 0x20 DUP3 ADD SWAP1 POP SWAP2 SWAP1 POP JUMP JUMPDEST PUSH0 PUSH1 0x20 DUP3 ADD SWAP1 POP DUP2 DUP2 SUB PUSH0 DUP4 ADD MSTORE PUSH2 0x154C DUP2 PUSH2 0x1513 JUMP JUMPDEST SWAP1 POP SWAP2 SWAP1 POP JUMP JUMPDEST PUSH32 0x57696E6E696E677320616C72656164792077697468647261776E000000000000 PUSH0 DUP3 ADD MSTORE POP JUMP JUMPDEST PUSH0 PUSH2 0x1587 PUSH1 0x1A DUP4 PUSH2 0xD43 JUMP JUMPDEST SWAP2 POP PUSH2 0x1592 DUP3 PUSH2 0x1553 JUMP JUMPDEST PUSH1 0x20 DUP3 ADD SWAP1 POP SWAP2 SWAP1 POP JUMP JUMPDEST PUSH0 PUSH1 0x20 DUP3 ADD SWAP1 POP DUP2 DUP2 SUB PUSH0 DUP4 ADD MSTORE PUSH2 0x15B4 DUP2 PUSH2 0x157B JUMP JUMPDEST SWAP1 POP SWAP2 SWAP1 POP JUMP JUMPDEST PUSH32 0x596F7520646964206E6F7420626574206F6E207468652077696E6E696E672074 PUSH0 DUP3 ADD MSTORE PUSH32 0x65616D0000000000000000000000000000000000000000000000000000000000 PUSH1 0x20 DUP3 ADD MSTORE POP JUMP JUMPDEST PUSH0 PUSH2 0x1615 PUSH1 0x23 DUP4 PUSH2 0xD43 JUMP JUMPDEST SWAP2 POP PUSH2 0x1620 DUP3 PUSH2 0x15BB JUMP JUMPDEST PUSH1 0x40 DUP3 ADD SWAP1 POP SWAP2 SWAP1 POP JUMP JUMPDEST PUSH0 PUSH1 0x20 DUP3 ADD SWAP1 POP DUP2 DUP2 SUB PUSH0 DUP4 ADD MSTORE PUSH2 0x1642 DUP2 PUSH2 0x1609 JUMP JUMPDEST SWAP1 POP SWAP2 SWAP1 POP JUMP JUMPDEST PUSH0 PUSH2 0x1653 DUP3 PUSH2 0xE0D JUMP JUMPDEST SWAP2 POP PUSH2 0x165E DUP4 PUSH2 0xE0D JUMP JUMPDEST SWAP3 POP DUP3 DUP3 MUL PUSH2 0x166C DUP2 PUSH2 0xE0D JUMP JUMPDEST SWAP2 POP DUP3 DUP3 DIV DUP5 EQ DUP4 ISZERO OR PUSH2 0x1683 JUMPI PUSH2 0x1682 PUSH2 0x1307 JUMP JUMPDEST JUMPDEST POP SWAP3 SWAP2 POP POP JUMP JUMPDEST PUSH32 0x4E487B7100000000000000000000000000000000000000000000000000000000 PUSH0 MSTORE PUSH1 0x12 PUSH1 0x4 MSTORE PUSH1 0x24 PUSH0 REVERT JUMPDEST PUSH0 PUSH2 0x16C1 DUP3 PUSH2 0xE0D JUMP JUMPDEST SWAP2 POP PUSH2 0x16CC DUP4 PUSH2 0xE0D JUMP JUMPDEST SWAP3 POP DUP3 PUSH2 0x16DC JUMPI PUSH2 0x16DB PUSH2 0x168A JUMP JUMPDEST JUMPDEST DUP3 DUP3 DIV SWAP1 POP SWAP3 SWAP2 POP POP JUMP INVALID LOG2 PUSH5 0x6970667358 0x22 SLT KECCAK256 0xC1 SWAP2 PUSH2 0x596F 0xA9 0xC0 0x28 0xF6 SELFBALANCE 0xB7 PC EXP PUSH11 0x426B11243BBEB333391083 DUP3 SWAP9 SWAP13 MLOAD PUSH3 0xE9EB64 PUSH20 0x6F6C634300081A00330000000000000000000000 "
				},
				"gasEstimates": {
					"creation": {
						"codeDepositCost": "1183400",
						"executionCost": "49787",
						"totalCost": "1233187"
					},
					"external": {
						"bets(address)": "7547",
						"checkBetState()": "2656",
						"closeBetting()": "28805",
						"owner()": "2508",
						"placeBet(uint8)": "infinite",
						"resolveBet(uint8)": "54817",
						"state()": "2595",
						"totalBetAmountTeamA()": "2535",
						"totalBetAmountTeamB()": "2492",
						"winningTeam()": "2693",
						"withdrawWinnings()": "infinite"
					}
				},
				"methodIdentifiers": {
					"bets(address)": "89a78f1a",
					"checkBetState()": "2313313f",
					"closeBetting()": "15ac534d",
					"owner()": "8da5cb5b",
					"placeBet(uint8)": "43046844",
					"resolveBet(uint8)": "a179acdb",
					"state()": "c19d93fb",
					"totalBetAmountTeamA()": "fdd746be",
					"totalBetAmountTeamB()": "55587b8e",
					"winningTeam()": "de3f18e2",
					"withdrawWinnings()": "cc42e83a"
				}
			},
			"storageLayout": {
				"storage": [
					{
						"astId": 8,
						"contract": "SmartContract/Betting.sol:BettingContract",
						"label": "state",
						"offset": 0,
						"slot": "0",
						"type": "t_enum(BettingState)5"
					},
					{
						"astId": 25,
						"contract": "SmartContract/Betting.sol:BettingContract",
						"label": "bets",
						"offset": 0,
						"slot": "1",
						"type": "t_mapping(t_address,t_struct(Bet)20_storage)"
					},
					{
						"astId": 27,
						"contract": "SmartContract/Betting.sol:BettingContract",
						"label": "totalBetAmountTeamA",
						"offset": 0,
						"slot": "2",
						"type": "t_uint256"
					},
					{
						"astId": 29,
						"contract": "SmartContract/Betting.sol:BettingContract",
						"label": "totalBetAmountTeamB",
						"offset": 0,
						"slot": "3",
						"type": "t_uint256"
					},
					{
						"astId": 31,
						"contract": "SmartContract/Betting.sol:BettingContract",
						"label": "owner",
						"offset": 0,
						"slot": "4",
						"type": "t_address"
					},
					{
						"astId": 34,
						"contract": "SmartContract/Betting.sol:BettingContract",
						"label": "winningTeam",
						"offset": 20,
						"slot": "4",
						"type": "t_enum(Team)12"
					}
				],
				"types": {
					"t_address": {
						"encoding": "inplace",
						"label": "address",
						"numberOfBytes": "20"
					},
					"t_bool": {
						"encoding": "inplace",
						"label": "bool",
						"numberOfBytes": "1"
					},
					"t_enum(BettingState)5": {
						"encoding": "inplace",
						"label": "enum BettingContract.BettingState",
						"numberOfBytes": "1"
					},
					"t_enum(Team)12": {
						"encoding": "inplace",
						"label": "enum BettingContract.Team",
						"numberOfBytes": "1"
					},
					"t_mapping(t_address,t_struct(Bet)20_storage)": {
						"encoding": "mapping",
						"key": "t_address",
						"label": "mapping(address => struct BettingContract.Bet)",
						"numberOfBytes": "32",
						"value": "t_struct(Bet)20_storage"
					},
					"t_struct(Bet)20_storage": {
						"encoding": "inplace",
						"label": "struct BettingContract.Bet",
						"members": [
							{
								"astId": 14,
								"contract": "SmartContract/Betting.sol:BettingContract",
								"label": "amount",
								"offset": 0,
								"slot": "0",
								"type": "t_uint256"
							},
							{
								"astId": 17,
								"contract": "SmartContract/Betting.sol:BettingContract",
								"label": "selectedTeam",
								"offset": 0,
								"slot": "1",
								"type": "t_enum(Team)12"
							},
							{
								"astId": 19,
								"contract": "SmartContract/Betting.sol:BettingContract",
								"label": "withdrawn",
								"offset": 1,
								"slot": "1",
								"type": "t_bool"
							}
						],
						"numberOfBytes": "64"
					},
					"t_uint256": {
						"encoding": "inplace",
						"label": "uint256",
						"numberOfBytes": "32"
					}
				}
			},
			"userdoc": {
				"kind": "user",
				"methods": {},
				"version": 1
			}
		}
	}
}